{"abi":[{"type":"constructor","inputs":[],"stateMutability":"nonpayable"},{"type":"function","name":"claim","inputs":[{"name":"_poolId","type":"uint256","internalType":"uint256"}],"outputs":[{"name":"","type":"bool","internalType":"bool"}],"stateMutability":"nonpayable"},{"type":"function","name":"claimableAmount","inputs":[{"name":"_poolId","type":"uint256","internalType":"uint256"},{"name":"_recipient","type":"address","internalType":"address"}],"outputs":[{"name":"","type":"uint256","internalType":"uint256"}],"stateMutability":"view"},{"type":"function","name":"deposit","inputs":[{"name":"_poolId","type":"uint256","internalType":"uint256"},{"name":"amount","type":"uint256","internalType":"uint256"}],"outputs":[{"name":"","type":"bool","internalType":"bool"}],"stateMutability":"nonpayable"},{"type":"function","name":"depositPermit","inputs":[{"name":"_poolId","type":"uint256","internalType":"uint256"},{"name":"amount","type":"uint256","internalType":"uint256"},{"name":"signature","type":"bytes","internalType":"bytes"},{"name":"deadline","type":"uint256","internalType":"uint256"}],"outputs":[{"name":"","type":"bool","internalType":"bool"}],"stateMutability":"nonpayable"},{"type":"function","name":"distribute","inputs":[{"name":"_poolId","type":"uint256","internalType":"uint256"},{"name":"_recipients","type":"address[]","internalType":"address[]"},{"name":"_amounts","type":"uint256[]","internalType":"uint256[]"}],"outputs":[{"name":"","type":"bool","internalType":"bool"}],"stateMutability":"nonpayable"},{"type":"function","name":"getPoolBalance","inputs":[{"name":"_poolId","type":"uint256","internalType":"uint256"}],"outputs":[{"name":"","type":"uint256","internalType":"uint256"}],"stateMutability":"view"},{"type":"function","name":"getPoolIdByName","inputs":[{"name":"_name","type":"string","internalType":"string"}],"outputs":[{"name":"","type":"uint256","internalType":"uint256"}],"stateMutability":"view"},{"type":"function","name":"getPoolInfo","inputs":[{"name":"_poolId","type":"uint256","internalType":"uint256"}],"outputs":[{"name":"","type":"tuple","internalType":"struct Pool.PoolInfo","components":[{"name":"name","type":"string","internalType":"string"},{"name":"host","type":"address","internalType":"address"},{"name":"admin","type":"address","internalType":"address"},{"name":"token","type":"address","internalType":"address"},{"name":"poolStatus","type":"uint8","internalType":"enum Pool.POOLSTATUS"},{"name":"balance","type":"uint256","internalType":"uint256"},{"name":"totalDeposit","type":"uint256","internalType":"uint256"},{"name":"totalPayout","type":"uint256","internalType":"uint256"},{"name":"recipients","type":"address[]","internalType":"address[]"},{"name":"claimableAmounts","type":"uint256[]","internalType":"uint256[]"}]}],"stateMutability":"view"},{"type":"function","name":"getPoolsCreated","inputs":[{"name":"_creator","type":"address","internalType":"address"}],"outputs":[{"name":"","type":"uint256[]","internalType":"uint256[]"}],"stateMutability":"view"},{"type":"function","name":"getRemains","inputs":[{"name":"_poolId","type":"uint256","internalType":"uint256"}],"outputs":[{"name":"","type":"uint256","internalType":"uint256"}],"stateMutability":"view"},{"type":"function","name":"initiatePool","inputs":[{"name":"_token","type":"address","internalType":"address"},{"name":"_name","type":"string","internalType":"string"}],"outputs":[{"name":"","type":"bool","internalType":"bool"},{"name":"","type":"uint256","internalType":"uint256"}],"stateMutability":"nonpayable"},{"type":"function","name":"isInPool","inputs":[{"name":"_poolId","type":"uint256","internalType":"uint256"},{"name":"_recipient","type":"address","internalType":"address"}],"outputs":[{"name":"","type":"bool","internalType":"bool"}],"stateMutability":"view"},{"type":"function","name":"owner","inputs":[],"outputs":[{"name":"","type":"address","internalType":"address"}],"stateMutability":"view"},{"type":"function","name":"poolId","inputs":[],"outputs":[{"name":"","type":"uint256","internalType":"uint256"}],"stateMutability":"view"},{"type":"function","name":"poolInfo","inputs":[{"name":"","type":"uint256","internalType":"uint256"}],"outputs":[{"name":"name","type":"string","internalType":"string"},{"name":"host","type":"address","internalType":"address"},{"name":"admin","type":"address","internalType":"address"},{"name":"token","type":"address","internalType":"address"},{"name":"poolStatus","type":"uint8","internalType":"enum Pool.POOLSTATUS"},{"name":"balance","type":"uint256","internalType":"uint256"},{"name":"totalDeposit","type":"uint256","internalType":"uint256"},{"name":"totalPayout","type":"uint256","internalType":"uint256"}],"stateMutability":"view"},{"type":"function","name":"poolsCreated","inputs":[{"name":"","type":"address","internalType":"address"},{"name":"","type":"uint256","internalType":"uint256"}],"outputs":[{"name":"","type":"uint256","internalType":"uint256"}],"stateMutability":"view"},{"type":"function","name":"renounceOwnership","inputs":[],"outputs":[],"stateMutability":"nonpayable"},{"type":"function","name":"setAdmin","inputs":[{"name":"_poolId","type":"uint256","internalType":"uint256"},{"name":"_admin","type":"address","internalType":"address"}],"outputs":[{"name":"","type":"bool","internalType":"bool"}],"stateMutability":"nonpayable"},{"type":"function","name":"transferOwnership","inputs":[{"name":"newOwner","type":"address","internalType":"address"}],"outputs":[],"stateMutability":"nonpayable"},{"type":"function","name":"withdrawRemains","inputs":[{"name":"_poolId","type":"uint256","internalType":"uint256"}],"outputs":[{"name":"","type":"bool","internalType":"bool"}],"stateMutability":"nonpayable"},{"type":"event","name":"Claim","inputs":[{"name":"from","type":"address","indexed":true,"internalType":"address"},{"name":"poolId","type":"uint256","indexed":true,"internalType":"uint256"},{"name":"amount","type":"uint256","indexed":false,"internalType":"uint256"}],"anonymous":false},{"type":"event","name":"Deposit","inputs":[{"name":"from","type":"address","indexed":true,"internalType":"address"},{"name":"poolId","type":"uint256","indexed":true,"internalType":"uint256"},{"name":"amount","type":"uint256","indexed":false,"internalType":"uint256"}],"anonymous":false},{"type":"event","name":"Distribute","inputs":[{"name":"admin","type":"address","indexed":true,"internalType":"address"},{"name":"poolId","type":"uint256","indexed":true,"internalType":"uint256"},{"name":"totalAmount","type":"uint256","indexed":false,"internalType":"uint256"},{"name":"recipients","type":"address[]","indexed":false,"internalType":"address[]"},{"name":"amounts","type":"uint256[]","indexed":false,"internalType":"uint256[]"}],"anonymous":false},{"type":"event","name":"NewAdmin","inputs":[{"name":"poolId","type":"uint256","indexed":true,"internalType":"uint256"},{"name":"admin","type":"address","indexed":true,"internalType":"address"}],"anonymous":false},{"type":"event","name":"OwnershipTransferred","inputs":[{"name":"previousOwner","type":"address","indexed":true,"internalType":"address"},{"name":"newOwner","type":"address","indexed":true,"internalType":"address"}],"anonymous":false},{"type":"event","name":"PoolCreated","inputs":[{"name":"host","type":"address","indexed":true,"internalType":"address"},{"name":"poolId","type":"uint256","indexed":true,"internalType":"uint256"},{"name":"name","type":"string","indexed":false,"internalType":"string"},{"name":"token","type":"address","indexed":false,"internalType":"address"}],"anonymous":false},{"type":"event","name":"WithdrawRemains","inputs":[{"name":"host","type":"address","indexed":true,"internalType":"address"},{"name":"poolId","type":"uint256","indexed":true,"internalType":"uint256"},{"name":"amount","type":"uint256","indexed":false,"internalType":"uint256"}],"anonymous":false},{"type":"error","name":"OwnableInvalidOwner","inputs":[{"name":"owner","type":"address","internalType":"address"}]},{"type":"error","name":"OwnableUnauthorizedAccount","inputs":[{"name":"account","type":"address","internalType":"address"}]}],"bytecode":{"object":"0x60806040523480156200001157600080fd5b5033806200003957604051631e4fbdf760e01b81526000600482015260240160405180910390fd5b62000044816200004b565b506200009b565b600080546001600160a01b038381166001600160a01b0319831681178455604051919092169283917f8be0079c531659141344cd1fd0a4f28419497f9722a3daafe3b4186f6b6457e09190a35050565b612fb580620000ab6000396000f3fe608060405234801561001057600080fd5b506004361061012c5760003560e01c80638047317e116100ad578063e2bbb15811610071578063e2bbb158146102af578063ed1375d5146102c2578063f2fde38b146102e5578063f311df8e146102f8578063fe2321f91461030b57600080fd5b80638047317e146102485780638da5cb5b1461025b5780638e3e7b6014610276578063b5c5bdc314610289578063e27551f31461029c57600080fd5b8063343c1f34116100f4578063343c1f34146101ee578063379607f5146102015780633e0dc34e146102145780634256479a1461022b578063715018a61461023e57600080fd5b80630cc0d24514610131578063142e8e251461015a5780631526fe271461017d5780631aa26aa0146101a45780632f380b35146101ce575b600080fd5b61014461013f36600461265f565b61031e565b60405161015191906126bd565b60405180910390f35b61016d6101683660046126d0565b61038a565b6040519015158152602001610151565b61019061018b3660046126fc565b610479565b604051610151989796959493929190612793565b6101b76101b236600461283f565b610559565b604080519215158352602083019190915201610151565b6101e16101dc3660046126fc565b61065d565b60405161015191906128cc565b61016d6101fc3660046129ac565b6108a1565b61016d61020f3660046126fc565b610ce0565b61021d60015481565b604051908152602001610151565b61021d610239366004612a07565b6110ee565b610246611180565b005b61016d610256366004612b23565b611194565b6000546040516001600160a01b039091168152602001610151565b61021d6102843660046126fc565b61161c565b61016d6102973660046126d0565b61186b565b61021d6102aa366004612bee565b611abd565b61016d6102bd366004612c18565b611aee565b61021d6102d03660046126fc565b60009081526002602052604090206004015490565b6102466102f336600461265f565b611e53565b61021d6103063660046126d0565b611e91565b61016d6103193660046126fc565b6120f5565b6001600160a01b03811660009081526003602090815260409182902080548351818402810184019094528084526060939283018282801561037e57602002820191906000526020600020905b81548152602001906001019080831161036a575b50505050509050919050565b60008281526002602052604081206001015483906001600160a01b03163314806103ce5750600081815260026020819052604090912001546001600160a01b031633145b6104155760405162461bcd60e51b8152602060048201526013602482015272556e617574686f72697365642061636365737360681b60448201526064015b60405180910390fd5b600084815260026020819052604080832090910180546001600160a01b0319166001600160a01b0387169081179091559051909186917f2eb98f50e80ce2c2f5398f33a6dec15dad669f98d3d51c7e434389a4a1a20b079190a35060019392505050565b60026020526000908152604090208054819061049490612c3a565b80601f01602080910402602001604051908101604052809291908181526020018280546104c090612c3a565b801561050d5780601f106104e25761010080835404028352916020019161050d565b820191906000526020600020905b8154815290600101906020018083116104f057829003601f168201915b505050506001830154600284015460038501546004860154600587015460069097015495966001600160a01b0394851696938516955093821693600160a01b90920460ff169290919088565b600180546000918291908261056d83612c8a565b9091555050600154600090815260026020526040902061058e848683612cf4565b5060018054600090815260026020908152604080832084018054336001600160a01b0319918216811790925585548552828520600390810180549092166001600160a01b038d1617909155855485528285208101805460ff60a01b1916600160a01b17905581855283528184208554815480880183559186529390942090930191909155915491517f90942ec62166ecc98168bf6679e4c917d515240811778e57e22aa748016da1129061064790889088908b90612db5565b60405180910390a3505060018054935093915050565b6106b3604080516101408101825260608082526000602083018190529282018390528101829052906080820190815260200160008152602001600081526020016000815260200160608152602001606081525090565b60008281526002602052604090819020815161014081019092528054829082906106dc90612c3a565b80601f016020809104026020016040519081016040528092919081815260200182805461070890612c3a565b80156107555780601f1061072a57610100808354040283529160200191610755565b820191906000526020600020905b81548152906001019060200180831161073857829003601f168201915b505050918352505060018201546001600160a01b0390811660208301526002808401548216604084015260038401549182166060840152608090920191600160a01b90910460ff16908111156107ad576107ad61275b565b60028111156107be576107be61275b565b81526020016004820154815260200160058201548152602001600682015481526020016007820180548060200260200160405190810160405280929190818152602001828054801561083957602002820191906000526020600020905b81546001600160a01b0316815260019091019060200180831161081b575b505050505081526020016008820180548060200260200160405190810160405280929190818152602001828054801561089157602002820191906000526020600020905b81548152602001906001019080831161087d575b5050505050815250509050919050565b60008581526002602052604080822081516101408101909252805483929190829082906108cd90612c3a565b80601f01602080910402602001604051908101604052809291908181526020018280546108f990612c3a565b80156109465780601f1061091b57610100808354040283529160200191610946565b820191906000526020600020905b81548152906001019060200180831161092957829003601f168201915b505050918352505060018201546001600160a01b0390811660208301526002808401548216604084015260038401549182166060840152608090920191600160a01b90910460ff169081111561099e5761099e61275b565b60028111156109af576109af61275b565b815260200160048201548152602001600582015481526020016006820154815260200160078201805480602002602001604051908101604052809291908181526020018280548015610a2a57602002820191906000526020600020905b81546001600160a01b03168152600190910190602001808311610a0c575b5050505050815260200160088201805480602002602001604051908101604052809291908181526020018280548015610a8257602002820191906000526020600020905b815481526020019060010190808311610a6e575b505050505081525050905060016002811115610aa057610aa061275b565b81608001516002811115610ab657610ab661275b565b14610ad35760405162461bcd60e51b815260040161040c90612df6565b60008611610af35760405162461bcd60e51b815260040161040c90612e22565b6000806000610b3788888080601f01602080910402602001604051908101604052809392919081815260200183838082843760009201919091525061249f92505050565b606087015160405163d505accf60e01b8152336004820152306024820152604481018e9052606481018b905260ff8516608482015260a4810184905260c4810183905293965091945092506001600160a01b03169063d505accf9060e401600060405180830381600087803b158015610baf57600080fd5b505af1158015610bc3573d6000803e3d6000fd5b50505060608501516040516323b872dd60e01b8152336004820152306024820152604481018c90526001600160a01b0390911691506323b872dd906064016020604051808303816000875af1158015610c20573d6000803e3d6000fd5b505050506040513d601f19601f82011682018060405250810190610c449190612e59565b610c4d57600080fd5b60008a815260026020526040812060040180548b9290610c6e908490612e7b565b909155505060008a815260026020526040812060050180548b9290610c94908490612e7b565b90915550506040518981528a9033907f90890809c654f11d6e72a28fa60149770a0d11ec6c92319d6ceb2bb0a4ea1a159060200160405180910390a35060019998505050505050505050565b6000818152600260205260408082208151610140810190925280548392919082908290610d0c90612c3a565b80601f0160208091040260200160405190810160405280929190818152602001828054610d3890612c3a565b8015610d855780601f10610d5a57610100808354040283529160200191610d85565b820191906000526020600020905b815481529060010190602001808311610d6857829003601f168201915b505050918352505060018201546001600160a01b0390811660208301526002808401548216604084015260038401549182166060840152608090920191600160a01b90910460ff1690811115610ddd57610ddd61275b565b6002811115610dee57610dee61275b565b815260200160048201548152602001600582015481526020016006820154815260200160078201805480602002602001604051908101604052809291908181526020018280548015610e6957602002820191906000526020600020905b81546001600160a01b03168152600190910190602001808311610e4b575b5050505050815260200160088201805480602002602001604051908101604052809291908181526020018280548015610ec157602002820191906000526020600020905b815481526020019060010190808311610ead575b5050505050815250509050600280811115610ede57610ede61275b565b81608001516002811115610ef457610ef461275b565b14610f395760405162461bcd60e51b8152602060048201526015602482015274141bdbdb081a5cc81b9bdd0818dbdb5c1b195d1959605a1b604482015260640161040c565b6000805b826101000151518110156110ab57336001600160a01b03168361010001518281518110610f6c57610f6c612e8e565b60200260200101516001600160a01b031603611099578261012001518181518110610f9957610f99612e8e565b6020026020010151915081600003610fbd5780610fb581612c8a565b915050611099565b6000858152600260205260408120600801805483908110610fe057610fe0612e8e565b9060005260206000200181905550816002600087815260200190815260200160002060040160008282546110149190612ea4565b9091555050606083015160405163a9059cbb60e01b8152336004820152602481018490526001600160a01b039091169063a9059cbb906044016020604051808303816000875af115801561106c573d6000803e3d6000fd5b505050506040513d601f19601f820116820180604052508101906110909190612e59565b61109957600080fd5b806110a381612c8a565b915050610f3d565b50604051818152849033907f34fcbac0073d7c3d388e51312faf357774904998eeb8fca628b9e6f65ee1cbf7906020015b60405180910390a35060019392505050565b6001546000905b801561117457838360405160200161110e929190612eb7565b60408051601f198184030181528282528051602091820120600085815260028352929092209192611140929101612ec7565b604051602081830303815290604052805190602001200361116257905061117a565b8061116c81612f3d565b9150506110f5565b50600090505b92915050565b611188612511565b611192600061253e565b565b60008381526002602052604081206001015484906001600160a01b03163314806111d85750600081815260026020819052604090912001546001600160a01b031633145b61121a5760405162461bcd60e51b8152602060048201526013602482015272556e617574686f72697365642061636365737360681b604482015260640161040c565b6000858152600260205260408082208151610140810190925280548290829061124290612c3a565b80601f016020809104026020016040519081016040528092919081815260200182805461126e90612c3a565b80156112bb5780601f10611290576101008083540402835291602001916112bb565b820191906000526020600020905b81548152906001019060200180831161129e57829003601f168201915b505050918352505060018201546001600160a01b0390811660208301526002808401548216604084015260038401549182166060840152608090920191600160a01b90910460ff16908111156113135761131361275b565b60028111156113245761132461275b565b81526020016004820154815260200160058201548152602001600682015481526020016007820180548060200260200160405190810160405280929190818152602001828054801561139f57602002820191906000526020600020905b81546001600160a01b03168152600190910190602001808311611381575b50505050508152602001600882018054806020026020016040519081016040528092919081815260200182805480156113f757602002820191906000526020600020905b8154815260200190600101908083116113e3575b5050505050815250509050600160028111156114155761141561275b565b8160800151600281111561142b5761142b61275b565b146114485760405162461bcd60e51b815260040161040c90612df6565b83518551146114995760405162461bcd60e51b815260206004820152601760248201527f417272617973206c656e677468206e6f7420657175616c000000000000000000604482015260640161040c565b6000805b855181101561150e5760008682815181106114ba576114ba612e8e565b6020026020010151116114df5760405162461bcd60e51b815260040161040c90612e22565b8581815181106114f1576114f1612e8e565b6020026020010151826115049190612e7b565b915060010161149d565b508160a0015181111561155a5760405162461bcd60e51b8152602060048201526014602482015273496e73756666696369656e742062616c616e636560601b604482015260640161040c565b60008781526002602090815260409091206006810183905587516115869260079092019189019061258e565b50600087815260026020908152604090912086516115ac926008909201918801906125f3565b5060008781526002602052604090819020600301805460ff60a01b1916600160a11b17905551879033907f3bc15f455024a749aa7eda4afea193e352a6da9fa6b27d398d8e07c4f13d2e4f906116079085908b908b90612f54565b60405180910390a35060019695505050505050565b600081815260026020526040808220815161014081019092528054839291908290829061164890612c3a565b80601f016020809104026020016040519081016040528092919081815260200182805461167490612c3a565b80156116c15780601f10611696576101008083540402835291602001916116c1565b820191906000526020600020905b8154815290600101906020018083116116a457829003601f168201915b505050918352505060018201546001600160a01b0390811660208301526002808401548216604084015260038401549182166060840152608090920191600160a01b90910460ff16908111156117195761171961275b565b600281111561172a5761172a61275b565b8152602001600482015481526020016005820154815260200160068201548152602001600782018054806020026020016040519081016040528092919081815260200182805480156117a557602002820191906000526020600020905b81546001600160a01b03168152600190910190602001808311611787575b50505050508152602001600882018054806020026020016040519081016040528092919081815260200182805480156117fd57602002820191906000526020600020905b8154815260200190600101908083116117e9575b5050505050815250509050600080600090505b8261012001515181101561185257826101200151818151811061183557611835612e8e565b6020026020010151826118489190612e7b565b9150600101611810565b50808260a001516118639190612ea4565b949350505050565b600082815260026020526040808220815161014081019092528054839291908290829061189790612c3a565b80601f01602080910402602001604051908101604052809291908181526020018280546118c390612c3a565b80156119105780601f106118e557610100808354040283529160200191611910565b820191906000526020600020905b8154815290600101906020018083116118f357829003601f168201915b505050918352505060018201546001600160a01b0390811660208301526002808401548216604084015260038401549182166060840152608090920191600160a01b90910460ff16908111156119685761196861275b565b60028111156119795761197961275b565b8152602001600482015481526020016005820154815260200160068201548152602001600782018054806020026020016040519081016040528092919081815260200182805480156119f457602002820191906000526020600020905b81546001600160a01b031681526001909101906020018083116119d6575b5050505050815260200160088201805480602002602001604051908101604052809291908181526020018280548015611a4c57602002820191906000526020600020905b815481526020019060010190808311611a38575b505050505081525050905060005b81610100015151811015611ab257836001600160a01b03168261010001518281518110611a8957611a89612e8e565b60200260200101516001600160a01b031603611aaa5760019250505061117a565b600101611a5a565b506000949350505050565b60036020528160005260406000208181548110611ad957600080fd5b90600052602060002001600091509150505481565b6000828152600260205260408082208151610140810190925280548392919082908290611b1a90612c3a565b80601f0160208091040260200160405190810160405280929190818152602001828054611b4690612c3a565b8015611b935780601f10611b6857610100808354040283529160200191611b93565b820191906000526020600020905b815481529060010190602001808311611b7657829003601f168201915b505050918352505060018201546001600160a01b0390811660208301526002808401548216604084015260038401549182166060840152608090920191600160a01b90910460ff1690811115611beb57611beb61275b565b6002811115611bfc57611bfc61275b565b815260200160048201548152602001600582015481526020016006820154815260200160078201805480602002602001604051908101604052809291908181526020018280548015611c7757602002820191906000526020600020905b81546001600160a01b03168152600190910190602001808311611c59575b5050505050815260200160088201805480602002602001604051908101604052809291908181526020018280548015611ccf57602002820191906000526020600020905b815481526020019060010190808311611cbb575b505050505081525050905060016002811115611ced57611ced61275b565b81608001516002811115611d0357611d0361275b565b14611d205760405162461bcd60e51b815260040161040c90612df6565b60008311611d405760405162461bcd60e51b815260040161040c90612e22565b60608101516040516323b872dd60e01b8152336004820152306024820152604481018590526001600160a01b03909116906323b872dd906064016020604051808303816000875af1158015611d99573d6000803e3d6000fd5b505050506040513d601f19601f82011682018060405250810190611dbd9190612e59565b611dc657600080fd5b60008481526002602052604081206004018054859290611de7908490612e7b565b909155505060008481526002602052604081206005018054859290611e0d908490612e7b565b9091555050604051838152849033907f90890809c654f11d6e72a28fa60149770a0d11ec6c92319d6ceb2bb0a4ea1a159060200160405180910390a35060019392505050565b611e5b612511565b6001600160a01b038116611e8557604051631e4fbdf760e01b81526000600482015260240161040c565b611e8e8161253e565b50565b6000828152600260205260408082208151610140810190925280548392919082908290611ebd90612c3a565b80601f0160208091040260200160405190810160405280929190818152602001828054611ee990612c3a565b8015611f365780601f10611f0b57610100808354040283529160200191611f36565b820191906000526020600020905b815481529060010190602001808311611f1957829003601f168201915b505050918352505060018201546001600160a01b0390811660208301526002808401548216604084015260038401549182166060840152608090920191600160a01b90910460ff1690811115611f8e57611f8e61275b565b6002811115611f9f57611f9f61275b565b81526020016004820154815260200160058201548152602001600682015481526020016007820180548060200260200160405190810160405280929190818152602001828054801561201a57602002820191906000526020600020905b81546001600160a01b03168152600190910190602001808311611ffc575b505050505081526020016008820180548060200260200160405190810160405280929190818152602001828054801561207257602002820191906000526020600020905b81548152602001906001019080831161205e575b505050505081525050905060005b81610100015151811015611ab257836001600160a01b031682610100015182815181106120af576120af612e8e565b60200260200101516001600160a01b0316036120ed5781610120015181815181106120dc576120dc612e8e565b60200260200101519250505061117a565b600101612080565b600081815260026020526040808220815161014081019092528054839291908290829061212190612c3a565b80601f016020809104026020016040519081016040528092919081815260200182805461214d90612c3a565b801561219a5780601f1061216f5761010080835404028352916020019161219a565b820191906000526020600020905b81548152906001019060200180831161217d57829003601f168201915b505050918352505060018201546001600160a01b0390811660208301526002808401548216604084015260038401549182166060840152608090920191600160a01b90910460ff16908111156121f2576121f261275b565b60028111156122035761220361275b565b81526020016004820154815260200160058201548152602001600682015481526020016007820180548060200260200160405190810160405280929190818152602001828054801561227e57602002820191906000526020600020905b81546001600160a01b03168152600190910190602001808311612260575b50505050508152602001600882018054806020026020016040519081016040528092919081815260200182805480156122d657602002820191906000526020600020905b8154815260200190600101908083116122c2575b50505050508152505090506002808111156122f3576122f361275b565b816080015160028111156123095761230961275b565b1461234e5760405162461bcd60e51b8152602060048201526015602482015274141bdbdb081a5cc81b9bdd0818dbdb5c1b195d1959605a1b604482015260640161040c565b60008160a00151116123995760405162461bcd60e51b81526020600482015260146024820152734e6f2072656d61696e696e672062616c616e636560601b604482015260640161040c565b60008160e001518260c001516123af9190612ea4565b6060830151602084015160405163a9059cbb60e01b81526001600160a01b03918216600482015260248101849052929350169063a9059cbb906044016020604051808303816000875af115801561240a573d6000803e3d6000fd5b505050506040513d601f19601f8201168201806040525081019061242e9190612e59565b61243757600080fd5b60008481526002602052604081206004018054839290612458908490612ea4565b925050819055508382602001516001600160a01b03167f16aebea94b778ab225d9415c5dfa4085ad0351941ad10e721554356b382321e0836040516110dc91815260200190565b600080600083516041146124f55760405162461bcd60e51b815260206004820152601860248201527f696e76616c6964207369676e6174757265206c656e6774680000000000000000604482015260640161040c565b5050506020810151604082015160609092015160001a92909190565b6000546001600160a01b031633146111925760405163118cdaa760e01b815233600482015260240161040c565b600080546001600160a01b038381166001600160a01b0319831681178455604051919092169283917f8be0079c531659141344cd1fd0a4f28419497f9722a3daafe3b4186f6b6457e09190a35050565b8280548282559060005260206000209081019282156125e3579160200282015b828111156125e357825182546001600160a01b0319166001600160a01b039091161782556020909201916001909101906125ae565b506125ef92915061262e565b5090565b8280548282559060005260206000209081019282156125e3579160200282015b828111156125e3578251825591602001919060010190612613565b5b808211156125ef576000815560010161262f565b80356001600160a01b038116811461265a57600080fd5b919050565b60006020828403121561267157600080fd5b61267a82612643565b9392505050565b60008151808452602080850194506020840160005b838110156126b257815187529582019590820190600101612696565b509495945050505050565b60208152600061267a6020830184612681565b600080604083850312156126e357600080fd5b823591506126f360208401612643565b90509250929050565b60006020828403121561270e57600080fd5b5035919050565b6000815180845260005b8181101561273b5760208185018101518683018201520161271f565b506000602082860101526020601f19601f83011685010191505092915050565b634e487b7160e01b600052602160045260246000fd5b6003811061278f57634e487b7160e01b600052602160045260246000fd5b9052565b60006101008083526127a78184018c612715565b6001600160a01b038b811660208601528a811660408601528916606085015291506127d790506080830187612771565b8460a08301528360c08301528260e08301529998505050505050505050565b60008083601f84011261280857600080fd5b50813567ffffffffffffffff81111561282057600080fd5b60208301915083602082850101111561283857600080fd5b9250929050565b60008060006040848603121561285457600080fd5b61285d84612643565b9250602084013567ffffffffffffffff81111561287957600080fd5b612885868287016127f6565b9497909650939450505050565b60008151808452602080850194506020840160005b838110156126b25781516001600160a01b0316875295820195908201906001016128a7565b60208152600082516101408060208501526128eb610160850183612715565b9150602085015161290760408601826001600160a01b03169052565b5060408501516001600160a01b03811660608601525060608501516001600160a01b038116608086015250608085015161294460a0860182612771565b5060a085015160c085015260c085015160e085015260e0850151610100818187015280870151915050601f196101208187860301818801526129868584612892565b9088015187820390920184880152935090506129a28382612681565b9695505050505050565b6000806000806000608086880312156129c457600080fd5b8535945060208601359350604086013567ffffffffffffffff8111156129e957600080fd5b6129f5888289016127f6565b96999598509660600135949350505050565b60008060208385031215612a1a57600080fd5b823567ffffffffffffffff811115612a3157600080fd5b612a3d858286016127f6565b90969095509350505050565b634e487b7160e01b600052604160045260246000fd5b604051601f8201601f1916810167ffffffffffffffff81118282101715612a8857612a88612a49565b604052919050565b600067ffffffffffffffff821115612aaa57612aaa612a49565b5060051b60200190565b600082601f830112612ac557600080fd5b81356020612ada612ad583612a90565b612a5f565b8083825260208201915060208460051b870101935086841115612afc57600080fd5b602086015b84811015612b185780358352918301918301612b01565b509695505050505050565b600080600060608486031215612b3857600080fd5b8335925060208085013567ffffffffffffffff80821115612b5857600080fd5b818701915087601f830112612b6c57600080fd5b8135612b7a612ad582612a90565b81815260059190911b8301840190848101908a831115612b9957600080fd5b938501935b82851015612bbe57612baf85612643565b82529385019390850190612b9e565b965050506040870135925080831115612bd657600080fd5b5050612be486828701612ab4565b9150509250925092565b60008060408385031215612c0157600080fd5b612c0a83612643565b946020939093013593505050565b60008060408385031215612c2b57600080fd5b50508035926020909101359150565b600181811c90821680612c4e57607f821691505b602082108103612c6e57634e487b7160e01b600052602260045260246000fd5b50919050565b634e487b7160e01b600052601160045260246000fd5b600060018201612c9c57612c9c612c74565b5060010190565b601f821115612cef576000816000526020600020601f850160051c81016020861015612ccc5750805b601f850160051c820191505b81811015612ceb57828155600101612cd8565b5050505b505050565b67ffffffffffffffff831115612d0c57612d0c612a49565b612d2083612d1a8354612c3a565b83612ca3565b6000601f841160018114612d545760008515612d3c5750838201355b600019600387901b1c1916600186901b178355612dae565b600083815260209020601f19861690835b82811015612d855786850135825560209485019460019092019101612d65565b5086821015612da25760001960f88860031b161c19848701351681555b505060018560011b0183555b5050505050565b6040815282604082015282846060830137600060608483018101919091526001600160a01b03929092166020820152601f909201601f191690910101919050565b602080825260129082015271506f6f6c206973206e6f742061637469766560701b604082015260600190565b6020808252601d908201527f416d6f756e74206d7573742062652067726561746572207468616e2030000000604082015260600190565b600060208284031215612e6b57600080fd5b8151801515811461267a57600080fd5b8082018082111561117a5761117a612c74565b634e487b7160e01b600052603260045260246000fd5b8181038181111561117a5761117a612c74565b8183823760009101908152919050565b6000808354612ed581612c3a565b60018281168015612eed5760018114612f0257612f31565b60ff1984168752821515830287019450612f31565b8760005260208060002060005b85811015612f285781548a820152908401908201612f0f565b50505082870194505b50929695505050505050565b600081612f4c57612f4c612c74565b506000190190565b838152606060208201526000612f6d6060830185612892565b82810360408401526129a2818561268156fea2646970667358221220f5ad58ee87d37840e96e29eb32031b075540c52984ad4d6bdb51a480ea4701b964736f6c63430008180033","linkReferences":{}},"methodIdentifiers":{"claim(uint256)":"379607f5","claimableAmount(uint256,address)":"f311df8e","deposit(uint256,uint256)":"e2bbb158","depositPermit(uint256,uint256,bytes,uint256)":"343c1f34","distribute(uint256,address[],uint256[])":"8047317e","getPoolBalance(uint256)":"ed1375d5","getPoolIdByName(string)":"4256479a","getPoolInfo(uint256)":"2f380b35","getPoolsCreated(address)":"0cc0d245","getRemains(uint256)":"8e3e7b60","initiatePool(address,string)":"1aa26aa0","isInPool(uint256,address)":"b5c5bdc3","owner()":"8da5cb5b","poolId()":"3e0dc34e","poolInfo(uint256)":"1526fe27","poolsCreated(address,uint256)":"e27551f3","renounceOwnership()":"715018a6","setAdmin(uint256,address)":"142e8e25","transferOwnership(address)":"f2fde38b","withdrawRemains(uint256)":"fe2321f9"},"id":49}