{"abi":[{"type":"constructor","inputs":[{"name":"_DOMAIN_SEPARATOR","type":"bytes32","internalType":"bytes32"}],"stateMutability":"nonpayable"},{"type":"function","name":"DROPLETCLAIM_TYPEHASH","inputs":[],"outputs":[{"name":"","type":"bytes32","internalType":"bytes32"}],"stateMutability":"view"},{"type":"function","name":"getStructHash","inputs":[{"name":"_claim","type":"tuple","internalType":"struct SigUtilsClaim.Claim","components":[{"name":"to","type":"address","internalType":"address"},{"name":"amount","type":"uint256","internalType":"uint256"},{"name":"token","type":"address","internalType":"address"},{"name":"nonce","type":"uint256","internalType":"uint256"}]}],"outputs":[{"name":"","type":"bytes32","internalType":"bytes32"}],"stateMutability":"pure"},{"type":"function","name":"getTypedDataHash","inputs":[{"name":"_claim","type":"tuple","internalType":"struct SigUtilsClaim.Claim","components":[{"name":"to","type":"address","internalType":"address"},{"name":"amount","type":"uint256","internalType":"uint256"},{"name":"token","type":"address","internalType":"address"},{"name":"nonce","type":"uint256","internalType":"uint256"}]}],"outputs":[{"name":"","type":"bytes32","internalType":"bytes32"}],"stateMutability":"view"}],"bytecode":{"object":"0x608060405234801561001057600080fd5b5060405161029338038061029383398101604081905261002f91610037565b600055610050565b60006020828403121561004957600080fd5b5051919050565b6102348061005f6000396000f3fe608060405234801561001057600080fd5b50600436106100415760003560e01c80630810756a14610046578063242c94c81461006b578063d7a6090a14610092575b600080fd5b61005961005436600461017e565b6100a5565b60405190815260200160405180910390f35b6100597fdf1125e21a3c1780cef37e28b5e17b91626efbd31353506b44cd3276beef95bc81565b6100596100a036600461017e565b6100ee565b600080546100b2836100ee565b60405161190160f01b6020820152602281019290925260428201526062015b604051602081830303815290604052805190602001209050919050565b60007fdf1125e21a3c1780cef37e28b5e17b91626efbd31353506b44cd3276beef95bc82600001518360200151846040015185606001516040516020016100d19594939291909485526001600160a01b03938416602086015260408501929092529091166060830152608082015260a00190565b80356001600160a01b038116811461017957600080fd5b919050565b60006080828403121561019057600080fd5b6040516080810181811067ffffffffffffffff821117156101c157634e487b7160e01b600052604160045260246000fd5b6040526101cd83610162565b8152602083013560208201526101e560408401610162565b604082015260608301356060820152809150509291505056fea2646970667358221220091f7a3985b13780686ee9a345b5242070536134fdbc849f50cbddb5b7ae953f64736f6c63430008180033","linkReferences":{}},"methodIdentifiers":{"DROPLETCLAIM_TYPEHASH()":"242c94c8","getStructHash((address,uint256,address,uint256))":"d7a6090a","getTypedDataHash((address,uint256,address,uint256))":"0810756a"},"id":58}