{"abi":[{"type":"constructor","inputs":[],"stateMutability":"nonpayable"},{"type":"function","name":"acceptOwnership","inputs":[],"outputs":[],"stateMutability":"nonpayable"},{"type":"function","name":"changeEndTime","inputs":[{"name":"poolId","type":"uint256","internalType":"uint256"},{"name":"timeEnd","type":"uint40","internalType":"uint40"}],"outputs":[],"stateMutability":"nonpayable"},{"type":"function","name":"changeStartTime","inputs":[{"name":"poolId","type":"uint256","internalType":"uint256"},{"name":"timeStart","type":"uint40","internalType":"uint40"}],"outputs":[],"stateMutability":"nonpayable"},{"type":"function","name":"claimWinning","inputs":[{"name":"poolId","type":"uint256","internalType":"uint256"},{"name":"winner","type":"address","internalType":"address"}],"outputs":[],"stateMutability":"nonpayable"},{"type":"function","name":"claimWinnings","inputs":[{"name":"poolIds","type":"uint256[]","internalType":"uint256[]"},{"name":"_winners","type":"address[]","internalType":"address[]"}],"outputs":[],"stateMutability":"nonpayable"},{"type":"function","name":"claimablePools","inputs":[{"name":"","type":"address","internalType":"address"},{"name":"","type":"uint256","internalType":"uint256"}],"outputs":[{"name":"","type":"uint256","internalType":"uint256"}],"stateMutability":"view"},{"type":"function","name":"collectFees","inputs":[{"name":"poolId","type":"uint256","internalType":"uint256"}],"outputs":[],"stateMutability":"nonpayable"},{"type":"function","name":"collectRemainingBalance","inputs":[{"name":"poolId","type":"uint256","internalType":"uint256"}],"outputs":[],"stateMutability":"nonpayable"},{"type":"function","name":"createPool","inputs":[{"name":"timeStart","type":"uint40","internalType":"uint40"},{"name":"timeEnd","type":"uint40","internalType":"uint40"},{"name":"poolName","type":"string","internalType":"string"},{"name":"depositAmountPerPerson","type":"uint256","internalType":"uint256"},{"name":"penaltyFeeRate","type":"uint16","internalType":"uint16"},{"name":"token","type":"address","internalType":"address"}],"outputs":[{"name":"","type":"uint256","internalType":"uint256"}],"stateMutability":"nonpayable"},{"type":"function","name":"createdPools","inputs":[{"name":"","type":"address","internalType":"address"},{"name":"","type":"uint256","internalType":"uint256"}],"outputs":[{"name":"","type":"uint256","internalType":"uint256"}],"stateMutability":"view"},{"type":"function","name":"deletePool","inputs":[{"name":"poolId","type":"uint256","internalType":"uint256"}],"outputs":[],"stateMutability":"nonpayable"},{"type":"function","name":"deposit","inputs":[{"name":"poolId","type":"uint256","internalType":"uint256"},{"name":"amount","type":"uint256","internalType":"uint256"}],"outputs":[{"name":"","type":"bool","internalType":"bool"}],"stateMutability":"nonpayable"},{"type":"function","name":"emergencyWithdraw","inputs":[{"name":"token","type":"address","internalType":"contract IERC20"},{"name":"amount","type":"uint256","internalType":"uint256"}],"outputs":[],"stateMutability":"nonpayable"},{"type":"function","name":"enableDeposit","inputs":[{"name":"poolId","type":"uint256","internalType":"uint256"}],"outputs":[],"stateMutability":"nonpayable"},{"type":"function","name":"endPool","inputs":[{"name":"poolId","type":"uint256","internalType":"uint256"}],"outputs":[],"stateMutability":"nonpayable"},{"type":"function","name":"forfeitWinnings","inputs":[{"name":"poolId","type":"uint256","internalType":"uint256"},{"name":"winner","type":"address","internalType":"address"}],"outputs":[],"stateMutability":"nonpayable"},{"type":"function","name":"getAllPoolInfo","inputs":[{"name":"poolId","type":"uint256","internalType":"uint256"}],"outputs":[{"name":"_poolAdmin","type":"tuple","internalType":"struct IPool.PoolAdmin","components":[{"name":"host","type":"address","internalType":"address"},{"name":"penaltyFeeRate","type":"uint16","internalType":"uint16"}]},{"name":"_poolDetail","type":"tuple","internalType":"struct IPool.PoolDetail","components":[{"name":"timeStart","type":"uint40","internalType":"uint40"},{"name":"timeEnd","type":"uint40","internalType":"uint40"},{"name":"poolName","type":"string","internalType":"string"},{"name":"depositAmountPerPerson","type":"uint256","internalType":"uint256"}]},{"name":"_poolBalance","type":"tuple","internalType":"struct IPool.PoolBalance","components":[{"name":"totalDeposits","type":"uint256","internalType":"uint256"},{"name":"feesAccumulated","type":"uint256","internalType":"uint256"},{"name":"feesCollected","type":"uint256","internalType":"uint256"},{"name":"balance","type":"uint256","internalType":"uint256"},{"name":"extraBalance","type":"uint256","internalType":"uint256"}]},{"name":"_poolStatus","type":"uint8","internalType":"enum IPool.POOLSTATUS"},{"name":"_poolToken","type":"address","internalType":"address"},{"name":"_participants","type":"address[]","internalType":"address[]"},{"name":"_winners","type":"address[]","internalType":"address[]"}],"stateMutability":"view"},{"type":"function","name":"getClaimablePools","inputs":[{"name":"winner","type":"address","internalType":"address"}],"outputs":[{"name":"","type":"uint256[]","internalType":"uint256[]"},{"name":"","type":"bool[]","internalType":"bool[]"}],"stateMutability":"view"},{"type":"function","name":"getExtraBalance","inputs":[{"name":"poolId","type":"uint256","internalType":"uint256"}],"outputs":[{"name":"","type":"uint256","internalType":"uint256"}],"stateMutability":"view"},{"type":"function","name":"getFeesAccumulated","inputs":[{"name":"poolId","type":"uint256","internalType":"uint256"}],"outputs":[{"name":"","type":"uint256","internalType":"uint256"}],"stateMutability":"view"},{"type":"function","name":"getFeesCollected","inputs":[{"name":"poolId","type":"uint256","internalType":"uint256"}],"outputs":[{"name":"","type":"uint256","internalType":"uint256"}],"stateMutability":"view"},{"type":"function","name":"getHost","inputs":[{"name":"poolId","type":"uint256","internalType":"uint256"}],"outputs":[{"name":"","type":"address","internalType":"address"}],"stateMutability":"view"},{"type":"function","name":"getParticipantDeposit","inputs":[{"name":"participant","type":"address","internalType":"address"},{"name":"poolId","type":"uint256","internalType":"uint256"}],"outputs":[{"name":"","type":"uint256","internalType":"uint256"}],"stateMutability":"view"},{"type":"function","name":"getParticipantDetail","inputs":[{"name":"participant","type":"address","internalType":"address"},{"name":"poolId","type":"uint256","internalType":"uint256"}],"outputs":[{"name":"","type":"tuple","internalType":"struct IPool.ParticipantDetail","components":[{"name":"deposit","type":"uint256","internalType":"uint256"},{"name":"feesCharged","type":"uint256","internalType":"uint256"},{"name":"participantIndex","type":"uint120","internalType":"uint120"},{"name":"joinedPoolsIndex","type":"uint120","internalType":"uint120"},{"name":"refunded","type":"bool","internalType":"bool"}]}],"stateMutability":"view"},{"type":"function","name":"getParticipants","inputs":[{"name":"poolId","type":"uint256","internalType":"uint256"}],"outputs":[{"name":"","type":"address[]","internalType":"address[]"}],"stateMutability":"view"},{"type":"function","name":"getPoolBalance","inputs":[{"name":"poolId","type":"uint256","internalType":"uint256"}],"outputs":[{"name":"","type":"uint256","internalType":"uint256"}],"stateMutability":"view"},{"type":"function","name":"getPoolDetail","inputs":[{"name":"poolId","type":"uint256","internalType":"uint256"}],"outputs":[{"name":"","type":"tuple","internalType":"struct IPool.PoolDetail","components":[{"name":"timeStart","type":"uint40","internalType":"uint40"},{"name":"timeEnd","type":"uint40","internalType":"uint40"},{"name":"poolName","type":"string","internalType":"string"},{"name":"depositAmountPerPerson","type":"uint256","internalType":"uint256"}]}],"stateMutability":"view"},{"type":"function","name":"getPoolFeeRate","inputs":[{"name":"poolId","type":"uint256","internalType":"uint256"}],"outputs":[{"name":"","type":"uint16","internalType":"uint16"}],"stateMutability":"view"},{"type":"function","name":"getPoolsCreatedBy","inputs":[{"name":"host","type":"address","internalType":"address"}],"outputs":[{"name":"","type":"uint256[]","internalType":"uint256[]"}],"stateMutability":"view"},{"type":"function","name":"getPoolsJoinedBy","inputs":[{"name":"participant","type":"address","internalType":"address"}],"outputs":[{"name":"","type":"uint256[]","internalType":"uint256[]"}],"stateMutability":"view"},{"type":"function","name":"getWinnerDetail","inputs":[{"name":"poolId","type":"uint256","internalType":"uint256"},{"name":"winner","type":"address","internalType":"address"}],"outputs":[{"name":"","type":"tuple","internalType":"struct IPool.WinnerDetail","components":[{"name":"amountWon","type":"uint256","internalType":"uint256"},{"name":"amountClaimed","type":"uint256","internalType":"uint256"},{"name":"timeWon","type":"uint40","internalType":"uint40"},{"name":"claimed","type":"bool","internalType":"bool"},{"name":"forfeited","type":"bool","internalType":"bool"}]}],"stateMutability":"view"},{"type":"function","name":"getWinners","inputs":[{"name":"poolId","type":"uint256","internalType":"uint256"}],"outputs":[{"name":"","type":"address[]","internalType":"address[]"}],"stateMutability":"view"},{"type":"function","name":"getWinnersDetails","inputs":[{"name":"poolId","type":"uint256","internalType":"uint256"}],"outputs":[{"name":"","type":"address[]","internalType":"address[]"},{"name":"","type":"tuple[]","internalType":"struct IPool.WinnerDetail[]","components":[{"name":"amountWon","type":"uint256","internalType":"uint256"},{"name":"amountClaimed","type":"uint256","internalType":"uint256"},{"name":"timeWon","type":"uint40","internalType":"uint40"},{"name":"claimed","type":"bool","internalType":"bool"},{"name":"forfeited","type":"bool","internalType":"bool"}]}],"stateMutability":"view"},{"type":"function","name":"getWinningAmount","inputs":[{"name":"poolId","type":"uint256","internalType":"uint256"},{"name":"winner","type":"address","internalType":"address"}],"outputs":[{"name":"","type":"uint256","internalType":"uint256"}],"stateMutability":"view"},{"type":"function","name":"isHost","inputs":[{"name":"","type":"address","internalType":"address"},{"name":"poolId","type":"uint256","internalType":"uint256"}],"outputs":[{"name":"","type":"bool","internalType":"bool"}],"stateMutability":"view"},{"type":"function","name":"isParticipant","inputs":[{"name":"","type":"address","internalType":"address"},{"name":"poolId","type":"uint256","internalType":"uint256"}],"outputs":[{"name":"","type":"bool","internalType":"bool"}],"stateMutability":"view"},{"type":"function","name":"joinedPools","inputs":[{"name":"","type":"address","internalType":"address"},{"name":"","type":"uint256","internalType":"uint256"}],"outputs":[{"name":"","type":"uint256","internalType":"uint256"}],"stateMutability":"view"},{"type":"function","name":"latestPoolId","inputs":[],"outputs":[{"name":"","type":"uint256","internalType":"uint256"}],"stateMutability":"view"},{"type":"function","name":"owner","inputs":[],"outputs":[{"name":"","type":"address","internalType":"address"}],"stateMutability":"view"},{"type":"function","name":"participantDetail","inputs":[{"name":"","type":"address","internalType":"address"},{"name":"poolId","type":"uint256","internalType":"uint256"}],"outputs":[{"name":"deposit","type":"uint256","internalType":"uint256"},{"name":"feesCharged","type":"uint256","internalType":"uint256"},{"name":"participantIndex","type":"uint120","internalType":"uint120"},{"name":"joinedPoolsIndex","type":"uint120","internalType":"uint120"},{"name":"refunded","type":"bool","internalType":"bool"}],"stateMutability":"view"},{"type":"function","name":"participants","inputs":[{"name":"","type":"uint256","internalType":"uint256"},{"name":"","type":"uint256","internalType":"uint256"}],"outputs":[{"name":"","type":"address","internalType":"address"}],"stateMutability":"view"},{"type":"function","name":"pause","inputs":[],"outputs":[],"stateMutability":"nonpayable"},{"type":"function","name":"paused","inputs":[],"outputs":[{"name":"","type":"bool","internalType":"bool"}],"stateMutability":"view"},{"type":"function","name":"pendingOwner","inputs":[],"outputs":[{"name":"","type":"address","internalType":"address"}],"stateMutability":"view"},{"type":"function","name":"poolAdmin","inputs":[{"name":"","type":"uint256","internalType":"uint256"}],"outputs":[{"name":"host","type":"address","internalType":"address"},{"name":"penaltyFeeRate","type":"uint16","internalType":"uint16"}],"stateMutability":"view"},{"type":"function","name":"poolBalance","inputs":[{"name":"","type":"uint256","internalType":"uint256"}],"outputs":[{"name":"totalDeposits","type":"uint256","internalType":"uint256"},{"name":"feesAccumulated","type":"uint256","internalType":"uint256"},{"name":"feesCollected","type":"uint256","internalType":"uint256"},{"name":"balance","type":"uint256","internalType":"uint256"},{"name":"extraBalance","type":"uint256","internalType":"uint256"}],"stateMutability":"view"},{"type":"function","name":"poolDetail","inputs":[{"name":"","type":"uint256","internalType":"uint256"}],"outputs":[{"name":"timeStart","type":"uint40","internalType":"uint40"},{"name":"timeEnd","type":"uint40","internalType":"uint40"},{"name":"poolName","type":"string","internalType":"string"},{"name":"depositAmountPerPerson","type":"uint256","internalType":"uint256"}],"stateMutability":"view"},{"type":"function","name":"poolStatus","inputs":[{"name":"","type":"uint256","internalType":"uint256"}],"outputs":[{"name":"","type":"uint8","internalType":"enum IPool.POOLSTATUS"}],"stateMutability":"view"},{"type":"function","name":"poolToken","inputs":[{"name":"","type":"uint256","internalType":"uint256"}],"outputs":[{"name":"","type":"address","internalType":"contract IERC20"}],"stateMutability":"view"},{"type":"function","name":"reenableDeposit","inputs":[{"name":"poolId","type":"uint256","internalType":"uint256"}],"outputs":[],"stateMutability":"nonpayable"},{"type":"function","name":"refundParticipant","inputs":[{"name":"poolId","type":"uint256","internalType":"uint256"},{"name":"participant","type":"address","internalType":"address"},{"name":"amount","type":"uint256","internalType":"uint256"}],"outputs":[],"stateMutability":"nonpayable"},{"type":"function","name":"renounceOwnership","inputs":[],"outputs":[],"stateMutability":"nonpayable"},{"type":"function","name":"selfRefund","inputs":[{"name":"poolId","type":"uint256","internalType":"uint256"}],"outputs":[],"stateMutability":"nonpayable"},{"type":"function","name":"setWinner","inputs":[{"name":"poolId","type":"uint256","internalType":"uint256"},{"name":"winner","type":"address","internalType":"address"},{"name":"amount","type":"uint256","internalType":"uint256"}],"outputs":[],"stateMutability":"nonpayable"},{"type":"function","name":"setWinners","inputs":[{"name":"poolId","type":"uint256","internalType":"uint256"},{"name":"_winners","type":"address[]","internalType":"address[]"},{"name":"amounts","type":"uint256[]","internalType":"uint256[]"}],"outputs":[],"stateMutability":"nonpayable"},{"type":"function","name":"startPool","inputs":[{"name":"poolId","type":"uint256","internalType":"uint256"}],"outputs":[],"stateMutability":"nonpayable"},{"type":"function","name":"transferOwnership","inputs":[{"name":"newOwner","type":"address","internalType":"address"}],"outputs":[],"stateMutability":"nonpayable"},{"type":"function","name":"unpause","inputs":[],"outputs":[],"stateMutability":"nonpayable"},{"type":"function","name":"winnerDetail","inputs":[{"name":"","type":"address","internalType":"address"},{"name":"poolId","type":"uint256","internalType":"uint256"}],"outputs":[{"name":"amountWon","type":"uint256","internalType":"uint256"},{"name":"amountClaimed","type":"uint256","internalType":"uint256"},{"name":"timeWon","type":"uint40","internalType":"uint40"},{"name":"claimed","type":"bool","internalType":"bool"},{"name":"forfeited","type":"bool","internalType":"bool"}],"stateMutability":"view"},{"type":"function","name":"winners","inputs":[{"name":"","type":"uint256","internalType":"uint256"},{"name":"","type":"uint256","internalType":"uint256"}],"outputs":[{"name":"","type":"address","internalType":"address"}],"stateMutability":"view"},{"type":"event","name":"Deposit","inputs":[{"name":"poolId","type":"uint256","indexed":false,"internalType":"uint256"},{"name":"participant","type":"address","indexed":true,"internalType":"address"},{"name":"amount","type":"uint256","indexed":false,"internalType":"uint256"}],"anonymous":false},{"type":"event","name":"ExtraDeposit","inputs":[{"name":"poolId","type":"uint256","indexed":false,"internalType":"uint256"},{"name":"participant","type":"address","indexed":true,"internalType":"address"},{"name":"amount","type":"uint256","indexed":false,"internalType":"uint256"}],"anonymous":false},{"type":"event","name":"FeesCharged","inputs":[{"name":"poolId","type":"uint256","indexed":false,"internalType":"uint256"},{"name":"participant","type":"address","indexed":true,"internalType":"address"},{"name":"fees","type":"uint256","indexed":false,"internalType":"uint256"},{"name":"chargedAll","type":"bool","indexed":false,"internalType":"bool"}],"anonymous":false},{"type":"event","name":"FeesCollected","inputs":[{"name":"poolId","type":"uint256","indexed":false,"internalType":"uint256"},{"name":"host","type":"address","indexed":true,"internalType":"address"},{"name":"fees","type":"uint256","indexed":false,"internalType":"uint256"}],"anonymous":false},{"type":"event","name":"JoinedPoolsRemoved","inputs":[{"name":"poolId","type":"uint256","indexed":false,"internalType":"uint256"},{"name":"participant","type":"address","indexed":true,"internalType":"address"}],"anonymous":false},{"type":"event","name":"OwnershipTransferStarted","inputs":[{"name":"previousOwner","type":"address","indexed":true,"internalType":"address"},{"name":"newOwner","type":"address","indexed":true,"internalType":"address"}],"anonymous":false},{"type":"event","name":"OwnershipTransferred","inputs":[{"name":"previousOwner","type":"address","indexed":true,"internalType":"address"},{"name":"newOwner","type":"address","indexed":true,"internalType":"address"}],"anonymous":false},{"type":"event","name":"ParticipantRemoved","inputs":[{"name":"poolId","type":"uint256","indexed":false,"internalType":"uint256"},{"name":"participant","type":"address","indexed":true,"internalType":"address"}],"anonymous":false},{"type":"event","name":"Paused","inputs":[{"name":"account","type":"address","indexed":false,"internalType":"address"}],"anonymous":false},{"type":"event","name":"PoolCreated","inputs":[{"name":"poolId","type":"uint256","indexed":false,"internalType":"uint256"},{"name":"host","type":"address","indexed":true,"internalType":"address"},{"name":"poolName","type":"string","indexed":false,"internalType":"string"},{"name":"depositAmountPerPerson","type":"uint256","indexed":false,"internalType":"uint256"},{"name":"penaltyFeeRate","type":"uint256","indexed":false,"internalType":"uint256"},{"name":"token","type":"address","indexed":true,"internalType":"address"}],"anonymous":false},{"type":"event","name":"PoolEndTimeChanged","inputs":[{"name":"poolId","type":"uint256","indexed":false,"internalType":"uint256"},{"name":"endTime","type":"uint256","indexed":false,"internalType":"uint256"}],"anonymous":false},{"type":"event","name":"PoolStartTimeChanged","inputs":[{"name":"poolId","type":"uint256","indexed":false,"internalType":"uint256"},{"name":"startTime","type":"uint256","indexed":false,"internalType":"uint256"}],"anonymous":false},{"type":"event","name":"PoolStatusChanged","inputs":[{"name":"poolId","type":"uint256","indexed":false,"internalType":"uint256"},{"name":"status","type":"uint8","indexed":false,"internalType":"enum IPool.POOLSTATUS"}],"anonymous":false},{"type":"event","name":"Refund","inputs":[{"name":"poolId","type":"uint256","indexed":false,"internalType":"uint256"},{"name":"participant","type":"address","indexed":true,"internalType":"address"},{"name":"amount","type":"uint256","indexed":false,"internalType":"uint256"}],"anonymous":false},{"type":"event","name":"RemainingBalanceCollected","inputs":[{"name":"poolId","type":"uint256","indexed":false,"internalType":"uint256"},{"name":"host","type":"address","indexed":true,"internalType":"address"},{"name":"amount","type":"uint256","indexed":false,"internalType":"uint256"}],"anonymous":false},{"type":"event","name":"Unpaused","inputs":[{"name":"account","type":"address","indexed":false,"internalType":"address"}],"anonymous":false},{"type":"event","name":"WinnerSet","inputs":[{"name":"poolId","type":"uint256","indexed":false,"internalType":"uint256"},{"name":"winner","type":"address","indexed":true,"internalType":"address"},{"name":"amount","type":"uint256","indexed":false,"internalType":"uint256"}],"anonymous":false},{"type":"event","name":"WinningClaimed","inputs":[{"name":"poolId","type":"uint256","indexed":false,"internalType":"uint256"},{"name":"winner","type":"address","indexed":true,"internalType":"address"},{"name":"amount","type":"uint256","indexed":false,"internalType":"uint256"}],"anonymous":false},{"type":"event","name":"WinningForfeited","inputs":[{"name":"poolId","type":"uint256","indexed":false,"internalType":"uint256"},{"name":"winner","type":"address","indexed":true,"internalType":"address"},{"name":"amount","type":"uint256","indexed":false,"internalType":"uint256"}],"anonymous":false},{"type":"error","name":"EnforcedPause","inputs":[]},{"type":"error","name":"ExpectedPause","inputs":[]},{"type":"error","name":"OwnableInvalidOwner","inputs":[{"name":"owner","type":"address","internalType":"address"}]},{"type":"error","name":"OwnableUnauthorizedAccount","inputs":[{"name":"account","type":"address","internalType":"address"}]},{"type":"error","name":"Unauthorized","inputs":[{"name":"caller","type":"address","internalType":"address"}]}],"bytecode":{"object":"0x6080604052348015600f57600080fd5b50338080603657604051631e4fbdf760e01b81526000600482015260240160405180910390fd5b603d816050565b50506001805460ff60a01b1916905560ba565b600180546001600160a01b0319169055606781606a565b50565b600080546001600160a01b038381166001600160a01b0319831681178455604051919092169283917f8be0079c531659141344cd1fd0a4f28419497f9722a3daafe3b4186f6b6457e09190a35050565b6149b7806100c96000396000f3fe608060405234801561001057600080fd5b50600436106103a45760003560e01c80637b482eaa116101e9578063b6c8f0ea1161010f578063e4e64531116100ad578063f665d10b1161007c578063f665d10b14610bc7578063f6c2d29214610bf7578063f8f192b914610c0a578063fe240bed14610c1d57600080fd5b8063e4e6453114610b7b578063eaccc6ed14610b8e578063ed1375d514610ba1578063f2fde38b14610bb457600080fd5b8063c964ee9f116100e9578063c964ee9f14610a3e578063c9e9af1914610a51578063e2bbb15814610b57578063e30c397814610b6a57600080fd5b8063b6c8f0ea146109f7578063bb32b69c14610a18578063c1e3bd3e14610a2b57600080fd5b8063917dd1c0116101875780639d5292f7116101565780639d5292f71461099e578063a7c0d8d4146109b1578063a901d15c146109d1578063b17acdcd146109e457600080fd5b8063917dd1c01461092f5780639294a9a01461095557806393fae2431461097857806395ccea671461098b57600080fd5b806383a06e5b116101c357806383a06e5b146108dd5780638456cb59146109035780638da5cb5b1461090b57806390cb68b31461091c57600080fd5b80637b482eaa146108a457806381fb1fb4146108b757806382ef7b64146108ca57600080fd5b80634c7d819b116102ce5780636b1426a41161026c57806371311f5d1161023b57806371311f5d14610860578063715018a6146108815780637946ec5e1461088957806379ba50971461089c57600080fd5b80636b1426a4146107d65780636cb0b567146107f65780636e7d4019146108095780636f527aed1461083257600080fd5b80635530324d116102a85780635530324d146107395780635c975abb1461074c578063686108fc1461075e5780636a6d964e1461077157600080fd5b80634c7d819b1461065b57806351b42283146106e857806355062d2b146106fb57600080fd5b80631f0c0499116103465780633dfd95e4116103155780633dfd95e4146105df5780633f4ba83a146105f257806346541a24146105fa5780634b17640c1461060357600080fd5b80631f0c04991461045b5780632827c699146104ec5780633a8b28bb146104ff5780633bfa94cf1461051f57600080fd5b806312b4dd8e1161038257806312b4dd8e1461040f57806318806da7146104225780631ae36af5146104355780631be461241461044857600080fd5b806301285261146103a9578063016c8537146103cf5780630efc8865146103e4575b600080fd5b6103bc6103b7366004613f60565b610c30565b6040519081526020015b60405180910390f35b6103e26103dd36600461401f565b610ec0565b005b6103f76103f236600461404f565b611036565b6040516001600160a01b0390911681526020016103c6565b6103bc61041d366004614071565b61106e565b6103e261043036600461408a565b611087565b6103bc610443366004614071565b611194565b6103e2610456366004614071565b6111ab565b6104b66104693660046140b6565b600e6020908152600092835260408084209091529082529020805460018201546002909201549091906001600160781b0380821691600160781b810490911690600160f01b900460ff1685565b6040805195865260208601949094526001600160781b03928316938501939093521660608301521515608082015260a0016103c6565b6103e26104fa36600461401f565b61129f565b61051261050d366004614071565b6114da565b6040516103c6919061417a565b6105d261052d36600461401f565b6040805160a081018252600080825260208201819052918101829052606081018290526080810191909152506001600160a01b0381166000908152600f60209081526040808320858452825291829020825160a081018452815481526001820154928101929092526002015464ffffffffff81169282019290925260ff600160281b8304811615156060830152600160301b9092049091161515608082015292915050565b6040516103c6919061418d565b6103f76105ed366004614071565b6115f4565b6103e2611611565b6103bc60025481565b610639610611366004614071565b6003602052600090815260409020546001600160a01b03811690600160a01b900461ffff1682565b604080516001600160a01b03909316835261ffff9091166020830152016103c6565b6106b26106693660046140b6565b600f60209081526000928352604080842090915290825290208054600182015460029092015490919064ffffffffff81169060ff600160281b8204811691600160301b90041685565b60408051958652602086019490945264ffffffffff9092169284019290925290151560608301521515608082015260a0016103c6565b6103e26106f63660046141d1565b611623565b6107296107093660046140b6565b600b60209081526000928352604080842090915290825290205460ff1681565b60405190151581526020016103c6565b6103bc61074736600461401f565b61188f565b600154600160a01b900460ff16610729565b6103bc61076c3660046140b6565b6118bb565b6107ae61077f366004614071565b600660205260009081526040902080546001820154600283015460038401546004909401549293919290919085565b604080519586526020860194909452928401919091526060830152608082015260a0016103c6565b6107e96107e4366004614071565b6118ec565b6040516103c6919061424e565b6103e26108043660046142ad565b611958565b6103f7610817366004614071565b6005602052600090815260409020546001600160a01b031681565b6107296108403660046140b6565b600d60209081526000928352604080842090915290825290205460ff1681565b61087361086e366004614327565b611a43565b6040516103c6929190614375565b6103e2611bda565b6103e26108973660046143ce565b611bec565b6103e2611c51565b6103e26108b23660046141d1565b611c95565b6103f76108c536600461404f565b611df6565b6103e26108d8366004614071565b611e12565b6108f06108eb366004614071565b611f9e565b6040516103c69796959493929190614472565b6103e2612247565b6000546001600160a01b03166103f7565b6103e261092a366004614071565b612257565b61094261093d366004614071565b612468565b60405161ffff90911681526020016103c6565b610968610963366004614071565b612487565b6040516103c6949392919061452b565b6103bc610986366004614071565b612545565b6103e26109993660046140b6565b61255c565b6103bc6109ac3660046140b6565b612584565b6109c46109bf366004614327565b6125a0565b6040516103c69190614566565b6103e26109df366004614071565b61260b565b6103e26109f2366004614071565b612711565b610a0a610a05366004614071565b612843565b6040516103c6929190614579565b6103bc610a263660046140b6565b612a26565b6107e9610a39366004614071565b612a4f565b6103e2610a4c366004614071565b612ab9565b610b04610a5f3660046140b6565b6040805160a081018252600080825260208201819052918101829052606081018290526080810191909152506001600160a01b03919091166000908152600e6020908152604080832093835292815290829020825160a08101845281548152600182015492810192909252600201546001600160781b0380821693830193909352600160781b81049092166060820152600160f01b90910460ff161515608082015290565b6040516103c69190600060a082019050825182526020830151602083015260408301516001600160781b038082166040850152806060860151166060850152505060808301511515608083015292915050565b610729610b6536600461404f565b612bb2565b6001546001600160a01b03166103f7565b6103e2610b8936600461408a565b612f1c565b6103e2610b9c366004614071565b61301e565b6103bc610baf366004614071565b6130cb565b6103e2610bc2366004614327565b6130e2565b610bea610bd5366004614071565b60076020526000908152604090205460ff1681565b6040516103c69190614603565b6103e2610c05366004614071565b613153565b6109c4610c18366004614327565b6131d6565b6103bc610c2b3660046140b6565b613240565b6000610c3a61325c565b8664ffffffffff168864ffffffffff1610610c8d5760405162461bcd60e51b815260206004820152600e60248201526d496e76616c69642074696d696e6760901b60448201526064015b60405180910390fd5b61271061ffff84161115610cd75760405162461bcd60e51b8152602060048201526011602482015270496e76616c69642066656573207261746560781b6044820152606401610c84565b813b63ffffffff16610d205760405162461bcd60e51b8152602060048201526012602482015271151bdad95b881b9bdd0818dbdb9d1c9858dd60721b6044820152606401610c84565b60028054906000610d3083614627565b90915550506002546000908152600460205260409020610d509089613287565b6002546000908152600460205260409020610d6b90886132a0565b610db986868080601f01602080910402602001604051908101604052809392919081815260200183838082843760009201829052506002548152600460205260409020939250506132c59050565b60028054600090815260046020908152604080832084018890558354835260038252808320805461ffff60a01b1916600160a01b61ffff8a16021790558354835280832080546001600160a01b031990811633908117909255818552600b8452828520865486528452828520805460ff19166001908117909155828652600a8552838620875481549283018255908752858720909101558554855260059093529281902080546001600160a01b0388169316831790559254925190927f62cf78dd3c1528a147e40a8e7413f29c3deed8603e2ee1d0c5284b052dae722191610ea991908b908b908b908b90614640565b60405180910390a350600254979650505050505050565b610ec861325c565b6001600160a01b0381166000908152600f60209081526040808320858452909152902060020154600160281b900460ff1615610f385760405162461bcd60e51b815260206004820152600f60248201526e105b1c9958591e4818db185a5b5959608a1b6044820152606401610c84565b6001600160a01b0381166000908152600f6020908152604080832085845290915290205480610f975760405162461bcd60e51b815260206004820152600b60248201526a4e6f2077696e6e696e677360a81b6044820152606401610c84565b6001600160a01b038281166000908152600f60209081526040808320878452825280832060028101805465ff00000000001916600160281b1790556001018590556005909152902054610fec911683836132d8565b60408051848152602081018390526001600160a01b038416917f2235d3737edbaa6f1f53953988ba08ed1156b2fa3d5adccff4994f361c9ecbb791015b60405180910390a2505050565b6009602052816000526040600020818154811061105257600080fd5b6000918252602090912001546001600160a01b03169150829050565b6000818152600660205260408120600201545b92915050565b336000908152600b60209081526040808320858452909152902054829060ff166110c65760405163472511eb60e11b8152336004820152602401610c84565b6110ce61325c565b600260008481526007602052604090205460ff1660048111156110f3576110f361443a565b036111375760405162461bcd60e51b8152602060048201526014602482015273141bdbdb08185b1c9958591e481cdd185c9d195960621b6044820152606401610c84565b600083815260046020526040902061114f9083613287565b6040805184815264ffffffffff841660208201527fb8a6489b7f7447f932fffdc3c3472eb54218b939444821792933567f8b46dbfc91015b60405180910390a1505050565b600081815260066020526040812060040154611081565b336000908152600b60209081526040808320848452909152902054819060ff166111ea5760405163472511eb60e11b8152336004820152602401610c84565b6111f261325c565b600260008381526007602052604090205460ff1660048111156112175761121761443a565b146112575760405162461bcd60e51b815260206004820152601060248201526f141bdbdb081b9bdd081cdd185c9d195960821b6044820152606401610c84565b60008281526007602052604090819020805460ff191660019081179091559051600080516020614962833981519152916112939185919061468b565b60405180910390a15050565b336000908152600b60209081526040808320858452909152902054829060ff166112de5760405163472511eb60e11b8152336004820152602401610c84565b6112e661325c565b600360008481526007602052604090205460ff16600481111561130b5761130b61443a565b146113285760405162461bcd60e51b8152600401610c849061469f565b600083815260046020526040902054600160281b900464ffffffffff1642116113635760405162461bcd60e51b8152600401610c849061469f565b6001600160a01b0382166000908152600f60209081526040808320868452909152902060020154600160281b900460ff16156113d35760405162461bcd60e51b815260206004820152600f60248201526e105b1c9958591e4818db185a5b5959608a1b6044820152606401610c84565b6001600160a01b0382166000908152600f60209081526040808320868452909152902054806114325760405162461bcd60e51b815260206004820152600b60248201526a4e6f2077696e6e696e677360a81b6044820152606401610c84565b6001600160a01b0383166000908152600f60209081526040808320878452825280832060028101805466ff0000000000001916600160301b17905583905560069091528120600301805483929061148a9084906146c7565b909155505060408051858152602081018390526001600160a01b038516917fd840ce428f0497df2b24959630df9071d7a9848c376a7ee85c9f71d0318c7e0f91015b60405180910390a250505050565b6115136040518060800160405280600064ffffffffff168152602001600064ffffffffff16815260200160608152602001600081525090565b6000828152600460209081526040918290208251608081018452815464ffffffffff8082168352600160281b90910416928101929092526001810180549293919291840191611561906146da565b80601f016020809104026020016040519081016040528092919081815260200182805461158d906146da565b80156115da5780601f106115af576101008083540402835291602001916115da565b820191906000526020600020905b8154815290600101906020018083116115bd57829003601f168201915b505050505081526020016002820154815250509050919050565b6000818152600360205260408120546001600160a01b0316611081565b611619613483565b6116216134b0565b565b336000908152600b60209081526040808320868452909152902054839060ff166116625760405163472511eb60e11b8152336004820152602401610c84565b61166a61325c565b60008481526007602052604081205460ff16600481111561168d5761168d61443a565b141580156116be5750600460008581526007602052604090205460ff1660048111156116bb576116bb61443a565b14155b6117005760405162461bcd60e51b8152602060048201526013602482015272141bdbdb081cdd185d1d5cc81a5b9d985b1a59606a1b6044820152606401610c84565b6001600160a01b0383166000908152600d6020908152604080832087845290915290205460ff166117435760405162461bcd60e51b8152600401610c8490614714565b6000848152600660205260409020600301548211156117995760405162461bcd60e51b81526020600482015260126024820152714e6f7420656e6f7567682062616c616e636560701b6044820152606401610c84565b600084815260066020526040812060030180548492906117ba90849061473f565b90915550506001600160a01b0383166000908152600f602090815260408083208784529091529020611804908360028201805464ffffffffff19164264ffffffffff161790559055565b60008481526009602090815260408083208054600180820183559185528385200180546001600160a01b0319166001600160a01b03891690811790915580855260108452828520805492830181558552938390200187905580518781529182018590527f86c416066bc80b64ebce6090a491b86f879b69c8a018bfc62da9549e2c618e5a91016114cc565b6001600160a01b0381166000908152600f602090815260408083208584529091528120545b9392505050565b600c60205281600052604060002081815481106118d757600080fd5b90600052602060002001600091509150505481565b60008181526009602090815260409182902080548351818402810184019094528084526060939283018282801561194c57602002820191906000526020600020905b81546001600160a01b0316815260019091019060200180831161192e575b50505050509050919050565b336000908152600b60209081526040808320888452909152902054859060ff166119975760405163472511eb60e11b8152336004820152602401610c84565b61199f61325c565b8382146119de5760405162461bcd60e51b815260206004820152600d60248201526c125b9d985b1a59081a5b9c1d5d609a1b6044820152606401610c84565b60005b84811015611a3a57611a32878787848181106119ff576119ff614752565b9050602002016020810190611a149190614327565b868685818110611a2657611a26614752565b90506020020135611623565b6001016119e1565b50505050505050565b6001600160a01b038116600090815260106020526040812054606091829167ffffffffffffffff811115611a7957611a79614768565b604051908082528060200260200182016040528015611aa2578160200160208202803683370190505b50905060005b6001600160a01b038516600090815260106020526040902054811015611b57576001600160a01b0385166000908152600f60209081526040808320601090925282208054611b2d93919085908110611b0257611b02614752565b906000526020600020015481526020019081526020016000206002015460ff600160281b9091041690565b828281518110611b3f57611b3f614752565b91151560209283029190910190910152600101611aa8565b5060106000856001600160a01b03166001600160a01b031681526020019081526020016000208181805480602002602001604051908101604052809291908181526020018280548015611bc957602002820191906000526020600020905b815481526020019060010190808311611bb5575b505050505091509250925050915091565b611be2613483565b6116216000613505565b611bf461325c565b60005b83811015611c4a57611c42858583818110611c1457611c14614752565b90506020020135848484818110611c2d57611c2d614752565b90506020020160208101906103dd9190614327565b600101611bf7565b5050505050565b60015433906001600160a01b03168114611c895760405163118cdaa760e01b81526001600160a01b0382166004820152602401610c84565b611c9281613505565b50565b336000908152600b60209081526040808320868452909152902054839060ff16611cd45760405163472511eb60e11b8152336004820152602401610c84565b611cdc61325c565b6001600160a01b0383166000908152600d6020908152604080832087845290915290205460ff16611d1f5760405162461bcd60e51b8152600401610c8490614714565b6001600160a01b0383166000908152600e60209081526040808320878452909152902060020154600160f01b900460ff1615611d905760405162461bcd60e51b815260206004820152601060248201526f105b1c9958591e481c99599d5b99195960821b6044820152606401610c84565b60008481526006602052604081206003015411611de55760405162461bcd60e51b8152602060048201526013602482015272506f6f6c20686173206e6f2062616c616e636560681b6044820152606401610c84565b611df084848461351e565b50505050565b6008602052816000526040600020818154811061105257600080fd5b336000908152600b60209081526040808320848452909152902054819060ff16611e515760405163472511eb60e11b8152336004820152602401610c84565b611e5961325c565b600360008381526007602052604090205460ff166004811115611e7e57611e7e61443a565b1480611eac5750600460008381526007602052604090205460ff166004811115611eaa57611eaa61443a565b145b611ec85760405162461bcd60e51b8152600401610c849061469f565b60008281526006602052604090206003015480611f1d5760405162461bcd60e51b81526020600482015260136024820152724e6f7468696e6720746f20776974686472617760681b6044820152606401610c84565b600083815260066020908152604080832060039081018490558252808320546005909252909120546001600160a01b0391821691611f5d911682846132d8565b60408051858152602081018490526001600160a01b038316917f0d8b7f535379cc0ea989891df832f4201d074cd58a544b15f916d2ebf1d3639c91016114cc565b604080518082018252600080825260208083018290528351608081018552828152908101829052606093810184905292830152906120046040518060a0016040528060008152602001600081526020016000815260200160008152602001600081525090565b600084815260036020908152604080832060048352818420600684528285206007855283862054600586528487205460088752858820600988528689208751808901895296546001600160a01b038082168952600160a01b90910461ffff16888b01528851608081018a52875464ffffffffff8082168352600160281b909104169a81019a909a526001870180548c9b60609b8c9b9a999860ff16979490941695949390928992918401916120b8906146da565b80601f01602080910402602001604051908101604052809291908181526020018280546120e4906146da565b80156121315780601f1061210657610100808354040283529160200191612131565b820191906000526020600020905b81548152906001019060200180831161211457829003601f168201915b50505091835250506002918201546020918201526040805160a0810182528954815260018a0154818401529289015483820152600389015460608401526004909801546080830152845488518183028101830190995280895292985090969184918301828280156121cb57602002820191906000526020600020905b81546001600160a01b031681526001909101906020018083116121ad575b505050505091508080548060200260200160405190810160405280929190818152602001828054801561222757602002820191906000526020600020905b81546001600160a01b03168152600190910190602001808311612209575b505050505090509650965096509650965096509650919395979092949650565b61224f613483565b6116216136c3565b61225f61325c565b600260008281526007602052604090205460ff1660048111156122845761228461443a565b036122c05760405162461bcd60e51b815260206004820152600c60248201526b141bdbdb081cdd185c9d195960a21b6044820152606401610c84565b600360008281526007602052604090205460ff1660048111156122e5576122e561443a565b0361231f5760405162461bcd60e51b815260206004820152600a602482015269141bdbdb08195b99195960b21b6044820152606401610c84565b336000908152600d6020908152604080832084845290915290205460ff166123595760405162461bcd60e51b8152600401610c8490614714565b336000908152600e60209081526040808320848452909152902060020154600160f01b900460ff16156123c15760405162461bcd60e51b815260206004820152601060248201526f105b1c9958591e481c99599d5b99195960821b6044820152606401610c84565b336000908152600f60209081526040808320848452909152902054156124295760405162461bcd60e51b815260206004820152601760248201527f57696e6e65722063616e6e6f7420646f20726566756e640000000000000000006044820152606401610c84565b600460008281526007602052604090205460ff16600481111561244e5761244e61443a565b1461245c5761245c81613706565b611c928133600061351e565b600081815260036020526040812054600160a01b900461ffff16611081565b6004602052600090815260409020805460018201805464ffffffffff80841694600160281b909404169291906124bc906146da565b80601f01602080910402602001604051908101604052809291908181526020018280546124e8906146da565b80156125355780601f1061250a57610100808354040283529160200191612535565b820191906000526020600020905b81548152906001019060200180831161251857829003601f168201915b5050505050908060020154905084565b600081815260066020526040812060010154611081565b612564613483565b61256c6138d6565b6125806001600160a01b03831633836132d8565b5050565b601060205281600052604060002081815481106118d757600080fd5b6001600160a01b0381166000908152600c602090815260409182902080548351818402810184019094528084526060939283018282801561194c57602002820191906000526020600020905b8154815260200190600101908083116125ec5750505050509050919050565b336000908152600b60209081526040808320848452909152902054819060ff1661264a5760405163472511eb60e11b8152336004820152602401610c84565b61265261325c565b600160008381526007602052604090205460ff1660048111156126775761267761443a565b146126c45760405162461bcd60e51b815260206004820152601760248201527f4465706f736974206e6f7420656e61626c6564207965740000000000000000006044820152606401610c84565b6000828152600760209081526040808320805460ff19166002179055600490915290206126f19042613287565b60008051602061496283398151915282600260405161129392919061468b565b61271961325c565b6000818152600660205260408120600281015460019091015461273c919061473f565b9050806000036127835760405162461bcd60e51b8152602060048201526012602482015271139bc81999595cc81d1bc818dbdb1b1958dd60721b6044820152606401610c84565b600082815260066020526040812060030180548392906127a490849061473f565b9091555050600082815260066020526040812060020180548392906127ca9084906146c7565b90915550506000828152600360209081526040808320546005909252909120546001600160a01b0391821691612802911682846132d8565b60408051848152602081018490526001600160a01b038316917f72015ace03712f361249380657b3d40777dd8f8a686664cab48afd9dbbe4499f9101611029565b600081815260096020526040812054606091829167ffffffffffffffff81111561286f5761286f614768565b6040519080825280602002602001820160405280156128c857816020015b6040805160a08101825260008082526020808301829052928201819052606082018190526080820152825260001990920191018161288d5790505b50905060005b6000858152600960205260409020548110156129ac5760008581526009602052604081208054600f9291908490811061290957612909614752565b60009182526020808320909101546001600160a01b0316835282810193909352604091820181208882528352819020815160a081018352815481526001820154938101939093526002015464ffffffffff81169183019190915260ff600160281b8204811615156060840152600160301b9091041615156080820152825183908390811061299957612999614752565b60209081029190910101526001016128ce565b50600960008581526020019081526020016000208181805480602002602001604051908101604052809291908181526020018280548015611bc957602002820191906000526020600020905b81546001600160a01b031681526001909101906020018083116129f857505050505091509250925050915091565b6001600160a01b0382166000908152600e602090815260408083208484529091528120546118b4565b60008181526008602090815260409182902080548351818402810184019094528084526060939283018282801561194c576020028201919060005260206000209081546001600160a01b0316815260019091019060200180831161192e5750505050509050919050565b336000908152600b60209081526040808320848452909152902054819060ff16612af85760405163472511eb60e11b8152336004820152602401610c84565b612b0061325c565b600260008381526007602052604090205460ff166004811115612b2557612b2561443a565b14612b655760405162461bcd60e51b815260206004820152601060248201526f141bdbdb081b9bdd081cdd185c9d195960821b6044820152606401610c84565b6000828152600760209081526040808320805460ff1916600317905560049091529020612b9290426132a0565b60008051602061496283398151915282600360405161129392919061468b565b6000612bbc61325c565b600160008481526007602052604090205460ff166004811115612be157612be161443a565b14612c245760405162461bcd60e51b815260206004820152601360248201527211195c1bdcda5d081b9bdd08195b98589b1959606a1b6044820152606401610c84565b336000908152600d6020908152604080832086845290915290205460ff1615612c815760405162461bcd60e51b815260206004820152600f60248201526e105b1c9958591e481a5b881c1bdbdb608a1b6044820152606401610c84565b60008381526004602052604090206002015480831015612cd65760405162461bcd60e51b815260206004820152601060248201526f125b98dbdc9c9958dd08185b5bdd5b9d60821b6044820152606401610c84565b600084815260056020526040902054612cfa906001600160a01b0316333086613900565b80831115612d7957612d0c818461473f565b60008581526006602052604081206004018054909190612d2d9084906146c7565b909155503390507f4b980b78760b02f4b4f1149bdcc168aec45990f1247e5e26860f1a6dc7a17ba485612d60848761473f565b6040805192835260208301919091520160405180910390a25b60008481526006602052604081208054859290612d979084906146c7565b909155505060008481526006602052604081206003018054859290612dbd9084906146c7565b9091555050600084815260086020908152604080832054338452600e8352818420888552909252909120612df091613aaf565b600084815260086020908152604080832080546001810182559084528284200180546001600160a01b031916339081179091558352600c825280832054600e8352818420888552909252909120612e4691613adc565b336000818152600c6020908152604080832080546001808201835591855283852001899055848452600d83528184208985528352818420805460ff19169091179055928252600e815282822087835290522081815560020154600160f01b900460ff1615612ed757336000908152600e602090815260408083208784529091529020600201805460ff60f01b191690555b604080518581526020810185905233917feaa18152488ce5959073c9c79c88ca90b3d96c00de1f118cfaad664c3dab06b9910160405180910390a25060019392505050565b336000908152600b60209081526040808320858452909152902054829060ff16612f5b5760405163472511eb60e11b8152336004820152602401610c84565b612f6361325c565b600360008481526007602052604090205460ff166004811115612f8857612f8861443a565b03612fca5760405162461bcd60e51b8152602060048201526012602482015271141bdbdb08185b1c9958591e48195b99195960721b6044820152606401610c84565b6000838152600460205260409020612fe290836132a0565b6040805184815264ffffffffff841660208201527f83c0995d7f1fc1d9c1d04dd63ebde842d2caf94ece2531c9d9ea68a916e381b09101611187565b336000908152600b60209081526040808320848452909152902054819060ff1661305d5760405163472511eb60e11b8152336004820152602401610c84565b61306561325c565b60008281526007602052604081205460ff1660048111156130885761308861443a565b146112575760405162461bcd60e51b8152602060048201526013602482015272506f6f6c20616c72656164792061637469766560681b6044820152606401610c84565b600081815260066020526040812060030154611081565b6130ea613483565b600180546001600160a01b0383166001600160a01b0319909116811790915561311b6000546001600160a01b031690565b6001600160a01b03167f38d16b8cac22d99fc7c124b9cd0de2d3fa1faef420bfe791d8c362d765e2270060405160405180910390a350565b336000908152600b60209081526040808320848452909152902054819060ff166131925760405163472511eb60e11b8152336004820152602401610c84565b61319a61325c565b60008281526007602052604090819020805460ff191660049081179091559051600080516020614962833981519152916112939185919061468b565b6001600160a01b0381166000908152600a602090815260409182902080548351818402810184019094528084526060939283018282801561194c57602002820191906000526020600020908154815260200190600101908083116125ec5750505050509050919050565b600a60205281600052604060002081815481106118d757600080fd5b600154600160a01b900460ff16156116215760405163d93c066560e01b815260040160405180910390fd5b815464ffffffffff191664ffffffffff91909116179055565b815464ffffffffff909116600160281b0269ffffffffff000000000019909116179055565b600182016132d382826147c6565b505050565b6040805180820190915260078152666e6f20636f646560c81b60208201526001600160a01b0384163b61331e5760405162461bcd60e51b8152600401610c849190614886565b506040516001600160a01b03838116602483015260448201839052600091829186169060640160408051601f198184030181529181526020820180516001600160e01b031663a9059cbb60e01b179052516133799190614899565b6000604051808303816000865af19150503d80600081146133b6576040519150601f19603f3d011682016040523d82523d6000602084013e6133bb565b606091505b509150915081604051806040016040528060118152602001701d1c985b9cd9995c881c995d995c9d1959607a1b815250906134095760405162461bcd60e51b8152600401610c849190614886565b508051158061342757508080602001905181019061342791906148b5565b6040518060400160405280601781526020017f7472616e736665722072657475726e65642066616c73650000000000000000008152509061347b5760405162461bcd60e51b8152600401610c849190614886565b505050505050565b6000546001600160a01b031633146116215760405163118cdaa760e01b8152336004820152602401610c84565b6134b86138d6565b6001805460ff60a01b191690557f5db9ee0a495bf2e6ff9c91a7834c1ba4fdd244a5e8aa4e537bd38aeae4b073aa335b6040516001600160a01b03909116815260200160405180910390a1565b600180546001600160a01b0319169055611c9281613b13565b6001600160a01b0382166000908152600e602090815260408083208684529091528120549082900361357e576001600160a01b0383166000908152600e6020908152604080832087845290915290206001015461357b908261473f565b91505b808211156135c35760405162461bcd60e51b81526020600482015260126024820152714e6f7420656e6f7567682062616c616e636560701b6044820152606401610c84565b6001600160a01b0383166000908152600e60209081526040808320878452825280832060028101805460ff60f01b1916600160f01b17905583905560069091528120600301805484929061361890849061473f565b90915550506000848152600660205260408120805484929061363b90849061473f565b909155506136519050600e6008600d8688613b63565b61365f600e600c8587613d45565b600084815260056020526040902054613682906001600160a01b031684846132d8565b60408051858152602081018490526001600160a01b038516917f21e12a7cad0da5928167e1084ea4d5fdf8d9af66657a2543a9ac76a0ca08147791016114cc565b6136cb61325c565b6001805460ff60a01b1916600160a01b1790557f62e78cea01bee320cd4e420270b5ea74000d11b0c9f74754ebdbfc544b05a2586134e83390565b60008181526004602052604090205464ffffffffff1661372962015180826148d7565b64ffffffffff16421015801561374657508064ffffffffff164211155b1561381b57600061271061375a3385612a26565b61376385612468565b61ffff1661377191906148fc565b61377b9190614913565b336000908152600e602090815260408083208784529091528120600101805492935083929091906137ad9084906146c7565b9091555050600083815260066020526040812060010180548392906137d39084906146c7565b9091555050604080518481526020810183905260009181019190915233907f91e70b531ad5a24521e08b51cd971ba40fe890590859cd4e240cabc688861d4190606001611029565b8064ffffffffff164211156125805760006138363384612a26565b336000908152600e602090815260408083208784529091528120600101805492935083929091906138689084906146c7565b90915550506000838152600660205260408120600101805483929061388e9084906146c7565b9091555050604080518481526020810183905260019181019190915233907f91e70b531ad5a24521e08b51cd971ba40fe890590859cd4e240cabc688861d4190606001611029565b600154600160a01b900460ff1661162157604051638dfc202b60e01b815260040160405180910390fd5b6040805180820190915260078152666e6f20636f646560c81b60208201526001600160a01b0385163b6139465760405162461bcd60e51b8152600401610c849190614886565b506040516001600160a01b038481166024830152838116604483015260648201839052600091829187169060840160408051601f198184030181529181526020820180516001600160e01b03166323b872dd60e01b179052516139a99190614899565b6000604051808303816000865af19150503d80600081146139e6576040519150601f19603f3d011682016040523d82523d6000602084013e6139eb565b606091505b509150915081604051806040016040528060158152602001741d1c985b9cd9995c919c9bdb481c995d995c9d1959605a1b81525090613a3d5760405162461bcd60e51b8152600401610c849190614886565b5080511580613a5b575080806020019051810190613a5b91906148b5565b6040518060400160405280601b81526020017f7472616e7366657246726f6d2072657475726e65642066616c7365000000000081525090611a3a5760405162461bcd60e51b8152600401610c849190614886565b60029190910180546effffffffffffffffffffffffffffff19166001600160781b03909216919091179055565b600290910180546001600160781b03909216600160781b026effffffffffffffffffffffffffffff60781b19909216919091179055565b600080546001600160a01b038381166001600160a01b0319831681178455604051919092169283917f8be0079c531659141344cd1fd0a4f28419497f9722a3daafe3b4186f6b6457e09190a35050565b6001600160a01b0382166000908152602086815260408083208484528252808320600201549187905290912080546001600160781b039092169182908110613bad57613bad614752565b6000918252602090912001546001600160a01b03848116911614613bd357613bd3614935565b600082815260208690526040902054613bee9060019061473f565b811015613ca45760008281526020869052604081208054613c119060019061473f565b81548110613c2157613c21614752565b600091825260208083209091015485835290889052604090912080546001600160a01b039092169250829184908110613c5c57613c5c614752565b600091825260208083209190910180546001600160a01b0319166001600160a01b039485161790559183168152888252604080822086835290925220613ca29083613aaf565b505b6000828152602086905260409020805480613cc157613cc161494b565b60008281526020808220600019908401810180546001600160a01b03191690559092019092556001600160a01b0385168083528682526040808420868552835292839020805460ff1916905591518481527fcef8fac05afb87995942422eac900de6af11a555d80d075340af81db492119fe910160405180910390a2505050505050565b6001600160a01b0382166000818152602086815260408083208584528252808320600201549383529086905290208054600160781b9092046001600160781b03169182908110613d9757613d97614752565b90600052602060002001548214613db057613db0614935565b6001600160a01b038316600090815260208590526040902054613dd59060019061473f565b811015613e8d576001600160a01b03831660009081526020859052604081208054613e029060019061473f565b81548110613e1257613e12614752565b9060005260206000200154905080856000866001600160a01b03166001600160a01b031681526020019081526020016000208381548110613e5557613e55614752565b60009182526020808320909101929092556001600160a01b0386168152878252604080822084835290925220613e8b9083613adc565b505b6001600160a01b0383166000908152602085905260409020805480613eb457613eb461494b565b60019003818190600052602060002001600090559055826001600160a01b03167ff0b3f080b2f718fff5676317c118cb60a324d72090440b3000b9881724fce95183604051613f0591815260200190565b60405180910390a25050505050565b803564ffffffffff81168114613f2957600080fd5b919050565b803561ffff81168114613f2957600080fd5b6001600160a01b0381168114611c9257600080fd5b8035613f2981613f40565b600080600080600080600060c0888a031215613f7b57600080fd5b613f8488613f14565b9650613f9260208901613f14565b9550604088013567ffffffffffffffff80821115613faf57600080fd5b818a0191508a601f830112613fc357600080fd5b813581811115613fd257600080fd5b8b6020828501011115613fe457600080fd5b6020830197508096505050506060880135925061400360808901613f2e565b915061401160a08901613f55565b905092959891949750929550565b6000806040838503121561403257600080fd5b82359150602083013561404481613f40565b809150509250929050565b6000806040838503121561406257600080fd5b50508035926020909101359150565b60006020828403121561408357600080fd5b5035919050565b6000806040838503121561409d57600080fd5b823591506140ad60208401613f14565b90509250929050565b600080604083850312156140c957600080fd5b82356140d481613f40565b946020939093013593505050565b60005b838110156140fd5781810151838201526020016140e5565b50506000910152565b6000815180845261411e8160208601602086016140e2565b601f01601f19169290920160200192915050565b600064ffffffffff808351168452806020840151166020850152506040820151608060408501526141666080850182614106565b606093840151949093019390935250919050565b6020815260006118b46020830184614132565b60a081016110818284805182526020810151602083015264ffffffffff60408201511660408301526060810151151560608301526080810151151560808301525050565b6000806000606084860312156141e657600080fd5b8335925060208401356141f881613f40565b929592945050506040919091013590565b60008151808452602080850194506020840160005b838110156142435781516001600160a01b03168752958201959082019060010161421e565b509495945050505050565b6020815260006118b46020830184614209565b60008083601f84011261427357600080fd5b50813567ffffffffffffffff81111561428b57600080fd5b6020830191508360208260051b85010111156142a657600080fd5b9250929050565b6000806000806000606086880312156142c557600080fd5b85359450602086013567ffffffffffffffff808211156142e457600080fd5b6142f089838a01614261565b9096509450604088013591508082111561430957600080fd5b5061431688828901614261565b969995985093965092949392505050565b60006020828403121561433957600080fd5b81356118b481613f40565b60008151808452602080850194506020840160005b8381101561424357815187529582019590820190600101614359565b6040815260006143886040830185614344565b82810360208481019190915284518083528582019282019060005b818110156143c15784511515835293830193918301916001016143a3565b5090979650505050505050565b600080600080604085870312156143e457600080fd5b843567ffffffffffffffff808211156143fc57600080fd5b61440888838901614261565b9096509450602087013591508082111561442157600080fd5b5061442e87828801614261565b95989497509550505050565b634e487b7160e01b600052602160045260246000fd5b6005811061446e57634e487b7160e01b600052602160045260246000fd5b9052565b87516001600160a01b0316815260208089015161ffff1690820152610180604082018190526000906144a68382018a614132565b90508751606084015260208801516080840152604088015160a0840152606088015160c0840152608088015160e08401526144e5610100840188614450565b6001600160a01b0386166101208401528281036101408401526145088186614209565b905082810361016084015261451d8185614209565b9a9950505050505050505050565b600064ffffffffff8087168352808616602084015250608060408301526145556080830185614106565b905082606083015295945050505050565b6020815260006118b46020830184614344565b60408152600061458c6040830185614209565b82810360208481019190915284518083528582019282019060005b818110156143c1576145f0838651805182526020810151602083015264ffffffffff60408201511660408301526060810151151560608301526080810151151560808301525050565b9383019360a092909201916001016145a7565b602081016110818284614450565b634e487b7160e01b600052601160045260246000fd5b60006001820161463957614639614611565b5060010190565b85815260806020820152836080820152838560a0830137600060a08583010152600060a0601f19601f870116830101905083604083015261ffff831660608301529695505050505050565b828152604081016118b46020830184614450565b6020808252600e908201526d141bdbdb081b9bdd08195b99195960921b604082015260600190565b8082018082111561108157611081614611565b600181811c908216806146ee57607f821691505b60208210810361470e57634e487b7160e01b600052602260045260246000fd5b50919050565b602080825260119082015270139bdd0818481c185c9d1a58da5c185b9d607a1b604082015260600190565b8181038181111561108157611081614611565b634e487b7160e01b600052603260045260246000fd5b634e487b7160e01b600052604160045260246000fd5b601f8211156132d3576000816000526020600020601f850160051c810160208610156147a75750805b601f850160051c820191505b8181101561347b578281556001016147b3565b815167ffffffffffffffff8111156147e0576147e0614768565b6147f4816147ee84546146da565b8461477e565b602080601f83116001811461482957600084156148115750858301515b600019600386901b1c1916600185901b17855561347b565b600085815260208120601f198616915b8281101561485857888601518255948401946001909101908401614839565b50858210156148765787850151600019600388901b60f8161c191681555b5050505050600190811b01905550565b6020815260006118b46020830184614106565b600082516148ab8184602087016140e2565b9190910192915050565b6000602082840312156148c757600080fd5b815180151581146118b457600080fd5b64ffffffffff8281168282160390808211156148f5576148f5614611565b5092915050565b808202811582820484141761108157611081614611565b60008261493057634e487b7160e01b600052601260045260246000fd5b500490565b634e487b7160e01b600052600160045260246000fd5b634e487b7160e01b600052603160045260246000fdfe31a9dc34623b73afced82caba571a54d1c45d5fdeb4aacfd33ed0cb5df28e172a26469706673582212207611dd7fd63ae170d40427ae6f8c14445d6571cce2b29550f167e178af84954664736f6c63430008190033","linkReferences":{}},"methodIdentifiers":{"acceptOwnership()":"79ba5097","changeEndTime(uint256,uint40)":"e4e64531","changeStartTime(uint256,uint40)":"18806da7","claimWinning(uint256,address)":"016c8537","claimWinnings(uint256[],address[])":"7946ec5e","claimablePools(address,uint256)":"9d5292f7","collectFees(uint256)":"b17acdcd","collectRemainingBalance(uint256)":"82ef7b64","createPool(uint40,uint40,string,uint256,uint16,address)":"01285261","createdPools(address,uint256)":"fe240bed","deletePool(uint256)":"f6c2d292","deposit(uint256,uint256)":"e2bbb158","emergencyWithdraw(address,uint256)":"95ccea67","enableDeposit(uint256)":"eaccc6ed","endPool(uint256)":"c964ee9f","forfeitWinnings(uint256,address)":"2827c699","getAllPoolInfo(uint256)":"83a06e5b","getClaimablePools(address)":"71311f5d","getExtraBalance(uint256)":"1ae36af5","getFeesAccumulated(uint256)":"93fae243","getFeesCollected(uint256)":"12b4dd8e","getHost(uint256)":"3dfd95e4","getParticipantDeposit(address,uint256)":"bb32b69c","getParticipantDetail(address,uint256)":"c9e9af19","getParticipants(uint256)":"c1e3bd3e","getPoolBalance(uint256)":"ed1375d5","getPoolDetail(uint256)":"3a8b28bb","getPoolFeeRate(uint256)":"917dd1c0","getPoolsCreatedBy(address)":"f8f192b9","getPoolsJoinedBy(address)":"a7c0d8d4","getWinnerDetail(uint256,address)":"3bfa94cf","getWinners(uint256)":"6b1426a4","getWinnersDetails(uint256)":"b6c8f0ea","getWinningAmount(uint256,address)":"5530324d","isHost(address,uint256)":"55062d2b","isParticipant(address,uint256)":"6f527aed","joinedPools(address,uint256)":"686108fc","latestPoolId()":"46541a24","owner()":"8da5cb5b","participantDetail(address,uint256)":"1f0c0499","participants(uint256,uint256)":"81fb1fb4","pause()":"8456cb59","paused()":"5c975abb","pendingOwner()":"e30c3978","poolAdmin(uint256)":"4b17640c","poolBalance(uint256)":"6a6d964e","poolDetail(uint256)":"9294a9a0","poolStatus(uint256)":"f665d10b","poolToken(uint256)":"6e7d4019","reenableDeposit(uint256)":"1be46124","refundParticipant(uint256,address,uint256)":"7b482eaa","renounceOwnership()":"715018a6","selfRefund(uint256)":"90cb68b3","setWinner(uint256,address,uint256)":"51b42283","setWinners(uint256,address[],uint256[])":"6cb0b567","startPool(uint256)":"a901d15c","transferOwnership(address)":"f2fde38b","unpause()":"3f4ba83a","winnerDetail(address,uint256)":"4c7d819b","winners(uint256,uint256)":"0efc8865"},"id":33}