{"abi":[{"type":"constructor","inputs":[],"stateMutability":"nonpayable"},{"type":"function","name":"acceptOwnership","inputs":[],"outputs":[],"stateMutability":"nonpayable"},{"type":"function","name":"claimWinning","inputs":[{"name":"poolId","type":"uint256","internalType":"uint256"},{"name":"winner","type":"address","internalType":"address"}],"outputs":[],"stateMutability":"nonpayable"},{"type":"function","name":"claimWinnings","inputs":[{"name":"poolIds","type":"uint256[]","internalType":"uint256[]"},{"name":"_winners","type":"address[]","internalType":"address[]"}],"outputs":[],"stateMutability":"nonpayable"},{"type":"function","name":"collectFees","inputs":[{"name":"poolId","type":"uint256","internalType":"uint256"}],"outputs":[],"stateMutability":"nonpayable"},{"type":"function","name":"collectRemainingBalance","inputs":[{"name":"poolId","type":"uint256","internalType":"uint256"}],"outputs":[],"stateMutability":"nonpayable"},{"type":"function","name":"createPool","inputs":[{"name":"timeStart","type":"uint40","internalType":"uint40"},{"name":"timeEnd","type":"uint40","internalType":"uint40"},{"name":"poolName","type":"string","internalType":"string"},{"name":"depositAmountPerPerson","type":"uint256","internalType":"uint256"},{"name":"penaltyFeeRate","type":"uint16","internalType":"uint16"},{"name":"token","type":"address","internalType":"address"}],"outputs":[{"name":"","type":"uint256","internalType":"uint256"}],"stateMutability":"nonpayable"},{"type":"function","name":"createdPools","inputs":[{"name":"","type":"address","internalType":"address"},{"name":"","type":"uint256","internalType":"uint256"}],"outputs":[{"name":"","type":"uint256","internalType":"uint256"}],"stateMutability":"view"},{"type":"function","name":"deletePool","inputs":[{"name":"poolId","type":"uint256","internalType":"uint256"}],"outputs":[],"stateMutability":"nonpayable"},{"type":"function","name":"deposit","inputs":[{"name":"poolId","type":"uint256","internalType":"uint256"},{"name":"amount","type":"uint256","internalType":"uint256"}],"outputs":[{"name":"","type":"bool","internalType":"bool"}],"stateMutability":"nonpayable"},{"type":"function","name":"emergencyWithdraw","inputs":[{"name":"token","type":"address","internalType":"contract IERC20"},{"name":"amount","type":"uint256","internalType":"uint256"}],"outputs":[],"stateMutability":"nonpayable"},{"type":"function","name":"enableDeposit","inputs":[{"name":"poolId","type":"uint256","internalType":"uint256"}],"outputs":[],"stateMutability":"nonpayable"},{"type":"function","name":"endPool","inputs":[{"name":"poolId","type":"uint256","internalType":"uint256"}],"outputs":[],"stateMutability":"nonpayable"},{"type":"function","name":"getAllPoolInfo","inputs":[{"name":"poolId","type":"uint256","internalType":"uint256"}],"outputs":[{"name":"_poolAdmin","type":"tuple","internalType":"struct IPool.PoolAdmin","components":[{"name":"host","type":"address","internalType":"address"},{"name":"penaltyFeeRate","type":"uint16","internalType":"uint16"}]},{"name":"_poolDetail","type":"tuple","internalType":"struct IPool.PoolDetail","components":[{"name":"timeStart","type":"uint40","internalType":"uint40"},{"name":"timeEnd","type":"uint40","internalType":"uint40"},{"name":"poolName","type":"string","internalType":"string"},{"name":"depositAmountPerPerson","type":"uint256","internalType":"uint256"}]},{"name":"_poolBalance","type":"tuple","internalType":"struct IPool.PoolBalance","components":[{"name":"totalDeposits","type":"uint256","internalType":"uint256"},{"name":"feesAccumulated","type":"uint256","internalType":"uint256"},{"name":"feesCollected","type":"uint256","internalType":"uint256"},{"name":"balance","type":"uint256","internalType":"uint256"},{"name":"extraBalance","type":"uint256","internalType":"uint256"}]},{"name":"_poolStatus","type":"uint8","internalType":"enum IPool.POOLSTATUS"},{"name":"_poolToken","type":"address","internalType":"address"},{"name":"_participants","type":"address[]","internalType":"address[]"},{"name":"_winners","type":"address[]","internalType":"address[]"}],"stateMutability":"view"},{"type":"function","name":"getExtraBalance","inputs":[{"name":"poolId","type":"uint256","internalType":"uint256"}],"outputs":[{"name":"","type":"uint256","internalType":"uint256"}],"stateMutability":"view"},{"type":"function","name":"getFeesAccumulated","inputs":[{"name":"poolId","type":"uint256","internalType":"uint256"}],"outputs":[{"name":"","type":"uint256","internalType":"uint256"}],"stateMutability":"view"},{"type":"function","name":"getFeesCollected","inputs":[{"name":"poolId","type":"uint256","internalType":"uint256"}],"outputs":[{"name":"","type":"uint256","internalType":"uint256"}],"stateMutability":"view"},{"type":"function","name":"getHost","inputs":[{"name":"poolId","type":"uint256","internalType":"uint256"}],"outputs":[{"name":"","type":"address","internalType":"address"}],"stateMutability":"view"},{"type":"function","name":"getParticipantDeposit","inputs":[{"name":"participant","type":"address","internalType":"address"},{"name":"poolId","type":"uint256","internalType":"uint256"}],"outputs":[{"name":"","type":"uint256","internalType":"uint256"}],"stateMutability":"view"},{"type":"function","name":"getParticipants","inputs":[{"name":"poolId","type":"uint256","internalType":"uint256"}],"outputs":[{"name":"","type":"address[]","internalType":"address[]"}],"stateMutability":"view"},{"type":"function","name":"getPoolBalance","inputs":[{"name":"poolId","type":"uint256","internalType":"uint256"}],"outputs":[{"name":"","type":"uint256","internalType":"uint256"}],"stateMutability":"view"},{"type":"function","name":"getPoolFeeRate","inputs":[{"name":"poolId","type":"uint256","internalType":"uint256"}],"outputs":[{"name":"","type":"uint16","internalType":"uint16"}],"stateMutability":"view"},{"type":"function","name":"getPoolsCreatedBy","inputs":[{"name":"host","type":"address","internalType":"address"}],"outputs":[{"name":"","type":"uint256[]","internalType":"uint256[]"}],"stateMutability":"view"},{"type":"function","name":"getPoolsJoinedBy","inputs":[{"name":"participant","type":"address","internalType":"address"}],"outputs":[{"name":"","type":"uint256[]","internalType":"uint256[]"}],"stateMutability":"view"},{"type":"function","name":"getWinners","inputs":[{"name":"poolId","type":"uint256","internalType":"uint256"}],"outputs":[{"name":"","type":"address[]","internalType":"address[]"}],"stateMutability":"view"},{"type":"function","name":"getWinningAmount","inputs":[{"name":"poolId","type":"uint256","internalType":"uint256"},{"name":"winner","type":"address","internalType":"address"}],"outputs":[{"name":"","type":"uint256","internalType":"uint256"}],"stateMutability":"view"},{"type":"function","name":"isHost","inputs":[{"name":"","type":"address","internalType":"address"},{"name":"poolId","type":"uint256","internalType":"uint256"}],"outputs":[{"name":"","type":"bool","internalType":"bool"}],"stateMutability":"view"},{"type":"function","name":"isParticipant","inputs":[{"name":"","type":"address","internalType":"address"},{"name":"poolId","type":"uint256","internalType":"uint256"}],"outputs":[{"name":"","type":"bool","internalType":"bool"}],"stateMutability":"view"},{"type":"function","name":"isWinner","inputs":[{"name":"poolId","type":"uint256","internalType":"uint256"},{"name":"winner","type":"address","internalType":"address"}],"outputs":[{"name":"","type":"bool","internalType":"bool"}],"stateMutability":"view"},{"type":"function","name":"joinedPools","inputs":[{"name":"","type":"address","internalType":"address"},{"name":"","type":"uint256","internalType":"uint256"}],"outputs":[{"name":"","type":"uint256","internalType":"uint256"}],"stateMutability":"view"},{"type":"function","name":"latestPoolId","inputs":[],"outputs":[{"name":"","type":"uint256","internalType":"uint256"}],"stateMutability":"view"},{"type":"function","name":"owner","inputs":[],"outputs":[{"name":"","type":"address","internalType":"address"}],"stateMutability":"view"},{"type":"function","name":"participantDetail","inputs":[{"name":"","type":"address","internalType":"address"},{"name":"poolId","type":"uint256","internalType":"uint256"}],"outputs":[{"name":"deposit","type":"uint256","internalType":"uint256"},{"name":"feesCharged","type":"uint256","internalType":"uint256"},{"name":"participantIndex","type":"uint120","internalType":"uint120"},{"name":"joinedPoolsIndex","type":"uint120","internalType":"uint120"},{"name":"refunded","type":"bool","internalType":"bool"}],"stateMutability":"view"},{"type":"function","name":"participants","inputs":[{"name":"","type":"uint256","internalType":"uint256"},{"name":"","type":"uint256","internalType":"uint256"}],"outputs":[{"name":"","type":"address","internalType":"address"}],"stateMutability":"view"},{"type":"function","name":"pause","inputs":[],"outputs":[],"stateMutability":"nonpayable"},{"type":"function","name":"paused","inputs":[],"outputs":[{"name":"","type":"bool","internalType":"bool"}],"stateMutability":"view"},{"type":"function","name":"pendingOwner","inputs":[],"outputs":[{"name":"","type":"address","internalType":"address"}],"stateMutability":"view"},{"type":"function","name":"poolAdmin","inputs":[{"name":"","type":"uint256","internalType":"uint256"}],"outputs":[{"name":"host","type":"address","internalType":"address"},{"name":"penaltyFeeRate","type":"uint16","internalType":"uint16"}],"stateMutability":"view"},{"type":"function","name":"poolBalance","inputs":[{"name":"","type":"uint256","internalType":"uint256"}],"outputs":[{"name":"totalDeposits","type":"uint256","internalType":"uint256"},{"name":"feesAccumulated","type":"uint256","internalType":"uint256"},{"name":"feesCollected","type":"uint256","internalType":"uint256"},{"name":"balance","type":"uint256","internalType":"uint256"},{"name":"extraBalance","type":"uint256","internalType":"uint256"}],"stateMutability":"view"},{"type":"function","name":"poolDetail","inputs":[{"name":"","type":"uint256","internalType":"uint256"}],"outputs":[{"name":"timeStart","type":"uint40","internalType":"uint40"},{"name":"timeEnd","type":"uint40","internalType":"uint40"},{"name":"poolName","type":"string","internalType":"string"},{"name":"depositAmountPerPerson","type":"uint256","internalType":"uint256"}],"stateMutability":"view"},{"type":"function","name":"poolStatus","inputs":[{"name":"","type":"uint256","internalType":"uint256"}],"outputs":[{"name":"","type":"uint8","internalType":"enum IPool.POOLSTATUS"}],"stateMutability":"view"},{"type":"function","name":"poolToken","inputs":[{"name":"","type":"uint256","internalType":"uint256"}],"outputs":[{"name":"","type":"address","internalType":"contract IERC20"}],"stateMutability":"view"},{"type":"function","name":"refundParticipant","inputs":[{"name":"poolId","type":"uint256","internalType":"uint256"},{"name":"participant","type":"address","internalType":"address"}],"outputs":[],"stateMutability":"nonpayable"},{"type":"function","name":"renounceOwnership","inputs":[],"outputs":[],"stateMutability":"nonpayable"},{"type":"function","name":"selfRefund","inputs":[{"name":"poolId","type":"uint256","internalType":"uint256"}],"outputs":[],"stateMutability":"nonpayable"},{"type":"function","name":"setWinner","inputs":[{"name":"poolId","type":"uint256","internalType":"uint256"},{"name":"winner","type":"address","internalType":"address"},{"name":"amount","type":"uint256","internalType":"uint256"}],"outputs":[],"stateMutability":"nonpayable"},{"type":"function","name":"setWinners","inputs":[{"name":"poolId","type":"uint256","internalType":"uint256"},{"name":"_winners","type":"address[]","internalType":"address[]"},{"name":"amounts","type":"uint256[]","internalType":"uint256[]"}],"outputs":[],"stateMutability":"nonpayable"},{"type":"function","name":"startPool","inputs":[{"name":"poolId","type":"uint256","internalType":"uint256"}],"outputs":[],"stateMutability":"nonpayable"},{"type":"function","name":"transferOwnership","inputs":[{"name":"newOwner","type":"address","internalType":"address"}],"outputs":[],"stateMutability":"nonpayable"},{"type":"function","name":"unpause","inputs":[],"outputs":[],"stateMutability":"nonpayable"},{"type":"function","name":"winnerDetail","inputs":[{"name":"","type":"address","internalType":"address"},{"name":"poolId","type":"uint256","internalType":"uint256"}],"outputs":[{"name":"amountWon","type":"uint256","internalType":"uint256"},{"name":"claimed","type":"bool","internalType":"bool"}],"stateMutability":"view"},{"type":"function","name":"winners","inputs":[{"name":"","type":"uint256","internalType":"uint256"},{"name":"","type":"uint256","internalType":"uint256"}],"outputs":[{"name":"","type":"address","internalType":"address"}],"stateMutability":"view"},{"type":"event","name":"Deposit","inputs":[{"name":"poolId","type":"uint256","indexed":false,"internalType":"uint256"},{"name":"participant","type":"address","indexed":true,"internalType":"address"},{"name":"amount","type":"uint256","indexed":false,"internalType":"uint256"}],"anonymous":false},{"type":"event","name":"ExtraDeposit","inputs":[{"name":"poolId","type":"uint256","indexed":false,"internalType":"uint256"},{"name":"participant","type":"address","indexed":true,"internalType":"address"},{"name":"amount","type":"uint256","indexed":false,"internalType":"uint256"}],"anonymous":false},{"type":"event","name":"FeesCharged","inputs":[{"name":"poolId","type":"uint256","indexed":false,"internalType":"uint256"},{"name":"participant","type":"address","indexed":true,"internalType":"address"},{"name":"fees","type":"uint256","indexed":false,"internalType":"uint256"},{"name":"chargedAll","type":"bool","indexed":false,"internalType":"bool"}],"anonymous":false},{"type":"event","name":"FeesCollected","inputs":[{"name":"poolId","type":"uint256","indexed":false,"internalType":"uint256"},{"name":"host","type":"address","indexed":true,"internalType":"address"},{"name":"fees","type":"uint256","indexed":false,"internalType":"uint256"}],"anonymous":false},{"type":"event","name":"JoinedPoolsRemoved","inputs":[{"name":"poolId","type":"uint256","indexed":false,"internalType":"uint256"},{"name":"participant","type":"address","indexed":true,"internalType":"address"}],"anonymous":false},{"type":"event","name":"OwnershipTransferStarted","inputs":[{"name":"previousOwner","type":"address","indexed":true,"internalType":"address"},{"name":"newOwner","type":"address","indexed":true,"internalType":"address"}],"anonymous":false},{"type":"event","name":"OwnershipTransferred","inputs":[{"name":"previousOwner","type":"address","indexed":true,"internalType":"address"},{"name":"newOwner","type":"address","indexed":true,"internalType":"address"}],"anonymous":false},{"type":"event","name":"ParticipantRemoved","inputs":[{"name":"poolId","type":"uint256","indexed":false,"internalType":"uint256"},{"name":"participant","type":"address","indexed":true,"internalType":"address"}],"anonymous":false},{"type":"event","name":"Paused","inputs":[{"name":"account","type":"address","indexed":false,"internalType":"address"}],"anonymous":false},{"type":"event","name":"PoolCreated","inputs":[{"name":"poolId","type":"uint256","indexed":false,"internalType":"uint256"},{"name":"host","type":"address","indexed":true,"internalType":"address"},{"name":"poolName","type":"string","indexed":false,"internalType":"string"},{"name":"depositAmountPerPerson","type":"uint256","indexed":false,"internalType":"uint256"},{"name":"penaltyFeeRate","type":"uint256","indexed":false,"internalType":"uint256"},{"name":"token","type":"address","indexed":true,"internalType":"address"}],"anonymous":false},{"type":"event","name":"PoolStatusChanged","inputs":[{"name":"poolId","type":"uint256","indexed":false,"internalType":"uint256"},{"name":"status","type":"uint8","indexed":false,"internalType":"enum IPool.POOLSTATUS"}],"anonymous":false},{"type":"event","name":"Refund","inputs":[{"name":"poolId","type":"uint256","indexed":false,"internalType":"uint256"},{"name":"participant","type":"address","indexed":true,"internalType":"address"},{"name":"amount","type":"uint256","indexed":false,"internalType":"uint256"}],"anonymous":false},{"type":"event","name":"RemainingBalanceCollected","inputs":[{"name":"poolId","type":"uint256","indexed":false,"internalType":"uint256"},{"name":"host","type":"address","indexed":true,"internalType":"address"},{"name":"amount","type":"uint256","indexed":false,"internalType":"uint256"}],"anonymous":false},{"type":"event","name":"Unpaused","inputs":[{"name":"account","type":"address","indexed":false,"internalType":"address"}],"anonymous":false},{"type":"event","name":"WinnerSet","inputs":[{"name":"poolId","type":"uint256","indexed":false,"internalType":"uint256"},{"name":"winner","type":"address","indexed":true,"internalType":"address"},{"name":"amount","type":"uint256","indexed":false,"internalType":"uint256"}],"anonymous":false},{"type":"event","name":"WinningClaimed","inputs":[{"name":"poolId","type":"uint256","indexed":false,"internalType":"uint256"},{"name":"winner","type":"address","indexed":true,"internalType":"address"},{"name":"amount","type":"uint256","indexed":false,"internalType":"uint256"}],"anonymous":false},{"type":"error","name":"EnforcedPause","inputs":[]},{"type":"error","name":"ExpectedPause","inputs":[]},{"type":"error","name":"OwnableInvalidOwner","inputs":[{"name":"owner","type":"address","internalType":"address"}]},{"type":"error","name":"OwnableUnauthorizedAccount","inputs":[{"name":"account","type":"address","internalType":"address"}]},{"type":"error","name":"Unauthorized","inputs":[{"name":"caller","type":"address","internalType":"address"}]}],"bytecode":{"object":"0x6080604052348015600f57600080fd5b50338080603657604051631e4fbdf760e01b81526000600482015260240160405180910390fd5b603d816050565b50506001805460ff60a01b1916905560ba565b600180546001600160a01b0319169055606781606a565b50565b600080546001600160a01b038381166001600160a01b0319831681178455604051919092169283917f8be0079c531659141344cd1fd0a4f28419497f9722a3daafe3b4186f6b6457e09190a35050565b6138c0806100c96000396000f3fe608060405234801561001057600080fd5b50600436106102f15760003560e01c806381fb1fb41161019d578063bb32b69c116100e9578063eaccc6ed116100a2578063f665d10b1161007c578063f665d10b1461087f578063f6c2d292146108af578063f8f192b9146108c2578063fe240bed146108d557600080fd5b8063eaccc6ed14610846578063ed1375d514610859578063f2fde38b1461086c57600080fd5b8063bb32b69c146107b4578063bdd415af146107c7578063c1e3bd3e146107fc578063c964ee9f1461080f578063e2bbb15814610822578063e30c39781461083557600080fd5b8063917dd1c01161015657806395ccea671161013057806395ccea671461075b578063a7c0d8d41461076e578063a901d15c1461078e578063b17acdcd146107a157600080fd5b8063917dd1c0146106ff5780639294a9a01461072557806393fae2431461074857600080fd5b806381fb1fb41461068757806382ef7b641461069a57806383a06e5b146106ad5780638456cb59146106d35780638da5cb5b146106db57806390cb68b3146106ec57600080fd5b806351b422831161025c5780636b1426a4116102155780636f527aed116101ef5780636f527aed14610636578063715018a6146106645780637946ec5e1461066c57806379ba50971461067f57600080fd5b80636b1426a4146105da5780636cb0b567146105fa5780636e7d40191461060d57600080fd5b806351b42283146104ec57806355062d2b146104ff5780635530324d1461053d5780635c975abb14610550578063686108fc146105625780636a6d964e1461057557600080fd5b80631f0c0499116102ae5780631f0c0499146103955780633dfd95e4146104265780633f4ba83a1461043957806346541a24146104415780634b17640c1461044a5780634c7d819b146104a257600080fd5b806301285261146102f6578063016c85371461031c57806309d1fcf4146103315780630efc88651461034457806312b4dd8e1461036f5780631ae36af514610382575b600080fd5b610309610304366004613002565b6108e8565b6040519081526020015b60405180910390f35b61032f61032a3660046130c1565b610b99565b005b61032f61033f3660046130c1565b610cfb565b6103576103523660046130f1565b610e5a565b6040516001600160a01b039091168152602001610313565b61030961037d366004613113565b610e92565b610309610390366004613113565b610eab565b6103f06103a336600461312c565b600e6020908152600092835260408084209091529082529020805460018201546002909201549091906001600160781b0380821691600160781b810490911690600160f01b900460ff1685565b6040805195865260208601949094526001600160781b03928316938501939093521660608301521515608082015260a001610313565b610357610434366004613113565b610ec2565b61032f610edf565b61030960025481565b610480610458366004613113565b6003602052600090815260409020546001600160a01b03811690600160a01b900461ffff1682565b604080516001600160a01b03909316835261ffff909116602083015201610313565b6104d76104b036600461312c565b600f6020908152600092835260408084209091529082529020805460019091015460ff1682565b60408051928352901515602083015201610313565b61032f6104fa366004613158565b610ef1565b61052d61050d36600461312c565b600b60209081526000928352604080842090915290825290205460ff1681565b6040519015158152602001610313565b61030961054b3660046130c1565b611083565b600154600160a01b900460ff1661052d565b61030961057036600461312c565b6110af565b6105b2610583366004613113565b600660205260009081526040902080546001820154600283015460038401546004909401549293919290919085565b604080519586526020860194909452928401919091526060830152608082015260a001610313565b6105ed6105e8366004613113565b6110e0565b60405161031391906131d5565b61032f610608366004613234565b61114c565b61035761061b366004613113565b6005602052600090815260409020546001600160a01b031681565b61052d61064436600461312c565b600d60209081526000928352604080842090915290825290205460ff1681565b61032f611237565b61032f61067a3660046132ae565b611249565b61032f6112ae565b6103576106953660046130f1565b6112f2565b61032f6106a8366004613113565b61130e565b6106c06106bb366004613113565b61148e565b60405161031397969594939291906133a2565b61032f611737565b6000546001600160a01b0316610357565b61032f6106fa366004613113565b611747565b61071261070d366004613113565b61188f565b60405161ffff9091168152602001610313565b610738610733366004613113565b6118ae565b6040516103139493929190613498565b610309610756366004613113565b61196c565b61032f61076936600461312c565b611983565b61078161077c3660046134d3565b6119ab565b60405161031391906134f0565b61032f61079c366004613113565b611a16565b61032f6107af366004613113565b611b35565b6103096107c236600461312c565b611c27565b61052d6107d53660046130c1565b6001600160a01b03166000908152600f602090815260408083209383529290522054151590565b6105ed61080a366004613113565b611c50565b61032f61081d366004613113565b611cba565b61052d6108303660046130f1565b611dc9565b6001546001600160a01b0316610357565b61032f610854366004613113565b612133565b610309610867366004613113565b61221c565b61032f61087a3660046134d3565b612233565b6108a261088d366004613113565b60076020526000908152604090205460ff1681565b6040516103139190613534565b61032f6108bd366004613113565b6122a4565b6107816108d03660046134d3565b612327565b6103096108e336600461312c565b612391565b60006108f26123ad565b8664ffffffffff168864ffffffffff16106109455760405162461bcd60e51b815260206004820152600e60248201526d496e76616c69642074696d696e6760901b60448201526064015b60405180910390fd5b61271061ffff8416111561098f5760405162461bcd60e51b8152602060048201526011602482015270496e76616c69642066656573207261746560781b604482015260640161093c565b813b63ffffffff166109d85760405162461bcd60e51b8152602060048201526012602482015271151bdad95b881b9bdd0818dbdb9d1c9858dd60721b604482015260640161093c565b600280549060006109e883613558565b90915550506002546000908152600460205260409020805464ffffffffff191664ffffffffff8a161790556002546000908152600460205260409020805469ffffffffff00000000001916600160281b64ffffffffff8a1602179055610a9286868080601f01602080910402602001604051908101604052809392919081815260200183838082843760009201829052506002548152600460205260409020939250506123d89050565b60028054600090815260046020908152604080832084018890558354835260038252808320805461ffff60a01b1916600160a01b61ffff8a16021790558354835280832080546001600160a01b031990811633908117909255818552600b8452828520865486528452828520805460ff19166001908117909155828652600a8552838620875481549283018255908752858720909101558554855260059093529281902080546001600160a01b0388169316831790559254925190927f62cf78dd3c1528a147e40a8e7413f29c3deed8603e2ee1d0c5284b052dae722191610b8291908b908b908b908b90613571565b60405180910390a350600254979650505050505050565b610ba16123ad565b6001600160a01b0381166000908152600f6020908152604080832085845290915290206001015460ff1615610c0a5760405162461bcd60e51b815260206004820152600f60248201526e105b1c9958591e4818db185a5b5959608a1b604482015260640161093c565b6001600160a01b0381166000908152600f6020908152604080832085845290915290205480610c695760405162461bcd60e51b815260206004820152600b60248201526a4e6f2077696e6e696e677360a81b604482015260640161093c565b6001600160a01b038083166000908152600f6020908152604080832087845282528083206001908101805460ff191690911790556005909152902054610cb1911683836123e6565b60408051848152602081018390526001600160a01b038416917f2235d3737edbaa6f1f53953988ba08ed1156b2fa3d5adccff4994f361c9ecbb791015b60405180910390a2505050565b336000908152600b60209081526040808320858452909152902054829060ff16610d3a5760405163472511eb60e11b815233600482015260240161093c565b610d426123ad565b6001600160a01b0382166000908152600d6020908152604080832086845290915290205460ff16610d855760405162461bcd60e51b815260040161093c906135bc565b6001600160a01b0382166000908152600e60209081526040808320868452909152902060020154600160f01b900460ff1615610df65760405162461bcd60e51b815260206004820152601060248201526f105b1c9958591e481c99599d5b99195960821b604482015260640161093c565b60008381526006602052604081206003015411610e4b5760405162461bcd60e51b8152602060048201526013602482015272506f6f6c20686173206e6f2062616c616e636560681b604482015260640161093c565b610e558383612591565b505050565b60096020528160005260406000208181548110610e7657600080fd5b6000918252602090912001546001600160a01b03169150829050565b6000818152600660205260408120600201545b92915050565b600081815260066020526040812060040154610ea5565b6000818152600360205260408120546001600160a01b0316610ea5565b610ee76126ca565b610eef6126f7565b565b336000908152600b60209081526040808320868452909152902054839060ff16610f305760405163472511eb60e11b815233600482015260240161093c565b610f386123ad565b6001600160a01b0383166000908152600d6020908152604080832087845290915290205460ff16610f7b5760405162461bcd60e51b815260040161093c906135bc565b600084815260066020526040902060030154821115610fd15760405162461bcd60e51b81526020600482015260126024820152714e6f7420656e6f7567682062616c616e636560701b604482015260640161093c565b60008481526006602052604081206003018054849290610ff29084906135e7565b90915550506001600160a01b0383166000818152600f6020908152604080832088845282528083208690556009825280832080546001810182559084529282902090920180546001600160a01b0319168417905581518781529081018590527f86c416066bc80b64ebce6090a491b86f879b69c8a018bfc62da9549e2c618e5a91015b60405180910390a250505050565b6001600160a01b0381166000908152600f602090815260408083208584529091528120545b9392505050565b600c60205281600052604060002081815481106110cb57600080fd5b90600052602060002001600091509150505481565b60008181526009602090815260409182902080548351818402810184019094528084526060939283018282801561114057602002820191906000526020600020905b81546001600160a01b03168152600190910190602001808311611122575b50505050509050919050565b336000908152600b60209081526040808320888452909152902054859060ff1661118b5760405163472511eb60e11b815233600482015260240161093c565b6111936123ad565b8382146111d25760405162461bcd60e51b815260206004820152600d60248201526c125b9d985b1a59081a5b9c1d5d609a1b604482015260640161093c565b60005b8481101561122e57611226878787848181106111f3576111f36135fa565b905060200201602081019061120891906134d3565b86868581811061121a5761121a6135fa565b90506020020135610ef1565b6001016111d5565b50505050505050565b61123f6126ca565b610eef600061274c565b6112516123ad565b60005b838110156112a75761129f858583818110611271576112716135fa565b9050602002013584848481811061128a5761128a6135fa565b905060200201602081019061032a91906134d3565b600101611254565b5050505050565b60015433906001600160a01b031681146112e65760405163118cdaa760e01b81526001600160a01b038216600482015260240161093c565b6112ef8161274c565b50565b60086020528160005260406000208181548110610e7657600080fd5b336000908152600b60209081526040808320848452909152902054819060ff1661134d5760405163472511eb60e11b815233600482015260240161093c565b6113556123ad565b600360008381526007602052604090205460ff16600481111561137a5761137a61336a565b146113b85760405162461bcd60e51b815260206004820152600e60248201526d141bdbdb081b9bdd08195b99195960921b604482015260640161093c565b6000828152600660205260409020600301548061140d5760405162461bcd60e51b81526020600482015260136024820152724e6f7468696e6720746f20776974686472617760681b604482015260640161093c565b600083815260066020908152604080832060039081018490558252808320546005909252909120546001600160a01b039182169161144d911682846123e6565b60408051858152602081018490526001600160a01b038316917f0d8b7f535379cc0ea989891df832f4201d074cd58a544b15f916d2ebf1d3639c9101611075565b604080518082018252600080825260208083018290528351608081018552828152908101829052606093810184905292830152906114f46040518060a0016040528060008152602001600081526020016000815260200160008152602001600081525090565b600084815260036020908152604080832060048352818420600684528285206007855283862054600586528487205460088752858820600988528689208751808901895296546001600160a01b038082168952600160a01b90910461ffff16888b01528851608081018a52875464ffffffffff8082168352600160281b909104169a81019a909a526001870180548c9b60609b8c9b9a999860ff16979490941695949390928992918401916115a890613610565b80601f01602080910402602001604051908101604052809291908181526020018280546115d490613610565b80156116215780601f106115f657610100808354040283529160200191611621565b820191906000526020600020905b81548152906001019060200180831161160457829003601f168201915b50505091835250506002918201546020918201526040805160a0810182528954815260018a0154818401529289015483820152600389015460608401526004909801546080830152845488518183028101830190995280895292985090969184918301828280156116bb57602002820191906000526020600020905b81546001600160a01b0316815260019091019060200180831161169d575b505050505091508080548060200260200160405190810160405280929190818152602001828054801561171757602002820191906000526020600020905b81546001600160a01b031681526001909101906020018083116116f9575b505050505090509650965096509650965096509650919395979092949650565b61173f6126ca565b610eef612765565b61174f6123ad565b600260008281526007602052604090205460ff1660048111156117745761177461336a565b036117b05760405162461bcd60e51b815260206004820152600c60248201526b141bdbdb081cdd185c9d195960a21b604482015260640161093c565b336000908152600d6020908152604080832084845290915290205460ff166117ea5760405162461bcd60e51b815260040161093c906135bc565b336000908152600e60209081526040808320848452909152902060020154600160f01b900460ff16156118525760405162461bcd60e51b815260206004820152601060248201526f105b1c9958591e481c99599d5b99195960821b604482015260640161093c565b600460008281526007602052604090205460ff1660048111156118775761187761336a565b1461188557611885816127a8565b6112ef8133612591565b600081815260036020526040812054600160a01b900461ffff16610ea5565b6004602052600090815260409020805460018201805464ffffffffff80841694600160281b909404169291906118e390613610565b80601f016020809104026020016040519081016040528092919081815260200182805461190f90613610565b801561195c5780601f106119315761010080835404028352916020019161195c565b820191906000526020600020905b81548152906001019060200180831161193f57829003601f168201915b5050505050908060020154905084565b600081815260066020526040812060010154610ea5565b61198b6126ca565b611993612978565b6119a76001600160a01b03831633836123e6565b5050565b6001600160a01b0381166000908152600c602090815260409182902080548351818402810184019094528084526060939283018282801561114057602002820191906000526020600020905b8154815260200190600101908083116119f75750505050509050919050565b336000908152600b60209081526040808320848452909152902054819060ff16611a555760405163472511eb60e11b815233600482015260240161093c565b611a5d6123ad565b600160008381526007602052604090205460ff166004811115611a8257611a8261336a565b14611acf5760405162461bcd60e51b815260206004820152601760248201527f4465706f736974206e6f7420656e61626c656420796574000000000000000000604482015260640161093c565b6000828152600760209081526040808320805460ff1916600217905560049091529020805464ffffffffff421664ffffffffff1990911617905560008051602061386b833981519152826002604051611b2992919061364a565b60405180910390a15050565b611b3d6123ad565b60008181526006602052604081206002810154600190910154611b6091906135e7565b905080600660008481526020019081526020016000206003016000828254611b8891906135e7565b909155505060008281526006602052604081206002018054839290611bae90849061365e565b90915550506000828152600360209081526040808320546005909252909120546001600160a01b0391821691611be6911682846123e6565b60408051848152602081018490526001600160a01b038316917f72015ace03712f361249380657b3d40777dd8f8a686664cab48afd9dbbe4499f9101610cee565b6001600160a01b0382166000908152600e602090815260408083208484529091528120546110a8565b600081815260086020908152604091829020805483518184028101840190945280845260609392830182828015611140576020028201919060005260206000209081546001600160a01b031681526001909101906020018083116111225750505050509050919050565b336000908152600b60209081526040808320848452909152902054819060ff16611cf95760405163472511eb60e11b815233600482015260240161093c565b611d016123ad565b600260008381526007602052604090205460ff166004811115611d2657611d2661336a565b14611d665760405162461bcd60e51b815260206004820152601060248201526f141bdbdb081b9bdd081cdd185c9d195960821b604482015260640161093c565b6000828152600760209081526040808320805460ff1916600317905560049091529020805469ffffffffff00000000001916600160281b64ffffffffff42160217905560008051602061386b833981519152826003604051611b2992919061364a565b6000611dd36123ad565b600160008481526007602052604090205460ff166004811115611df857611df861336a565b14611e3b5760405162461bcd60e51b815260206004820152601360248201527211195c1bdcda5d081b9bdd08195b98589b1959606a1b604482015260640161093c565b336000908152600d6020908152604080832086845290915290205460ff1615611e985760405162461bcd60e51b815260206004820152600f60248201526e105b1c9958591e481a5b881c1bdbdb608a1b604482015260640161093c565b60008381526004602052604090206002015480831015611eed5760405162461bcd60e51b815260206004820152601060248201526f125b98dbdc9c9958dd08185b5bdd5b9d60821b604482015260640161093c565b600084815260056020526040902054611f11906001600160a01b03163330866129a2565b80831115611f9057611f2381846135e7565b60008581526006602052604081206004018054909190611f4490849061365e565b909155503390507f4b980b78760b02f4b4f1149bdcc168aec45990f1247e5e26860f1a6dc7a17ba485611f7784876135e7565b6040805192835260208301919091520160405180910390a25b60008481526006602052604081208054859290611fae90849061365e565b909155505060008481526006602052604081206003018054859290611fd490849061365e565b9091555050600084815260086020908152604080832054338452600e835281842088855290925290912061200791612b51565b600084815260086020908152604080832080546001810182559084528284200180546001600160a01b031916339081179091558352600c825280832054600e835281842088855290925290912061205d91612b7e565b336000818152600c6020908152604080832080546001808201835591855283852001899055848452600d83528184208985528352818420805460ff19169091179055928252600e815282822087835290522081815560020154600160f01b900460ff16156120ee57336000908152600e602090815260408083208784529091529020600201805460ff60f01b191690555b604080518581526020810185905233917feaa18152488ce5959073c9c79c88ca90b3d96c00de1f118cfaad664c3dab06b9910160405180910390a25060019392505050565b336000908152600b60209081526040808320848452909152902054819060ff166121725760405163472511eb60e11b815233600482015260240161093c565b61217a6123ad565b60008281526007602052604081205460ff16600481111561219d5761219d61336a565b146121e05760405162461bcd60e51b8152602060048201526013602482015272506f6f6c20616c72656164792061637469766560681b604482015260640161093c565b60008281526007602052604090819020805460ff19166001908117909155905160008051602061386b83398151915291611b299185919061364a565b600081815260066020526040812060030154610ea5565b61223b6126ca565b600180546001600160a01b0383166001600160a01b0319909116811790915561226c6000546001600160a01b031690565b6001600160a01b03167f38d16b8cac22d99fc7c124b9cd0de2d3fa1faef420bfe791d8c362d765e2270060405160405180910390a350565b336000908152600b60209081526040808320848452909152902054819060ff166122e35760405163472511eb60e11b815233600482015260240161093c565b6122eb6123ad565b60008281526007602052604090819020805460ff19166004908117909155905160008051602061386b83398151915291611b299185919061364a565b6001600160a01b0381166000908152600a602090815260409182902080548351818402810184019094528084526060939283018282801561114057602002820191906000526020600020908154815260200190600101908083116119f75750505050509050919050565b600a60205281600052604060002081815481106110cb57600080fd5b600154600160a01b900460ff1615610eef5760405163d93c066560e01b815260040160405180910390fd5b60018201610e5582826136cf565b6040805180820190915260078152666e6f20636f646560c81b60208201526001600160a01b0384163b61242c5760405162461bcd60e51b815260040161093c919061378f565b506040516001600160a01b03838116602483015260448201839052600091829186169060640160408051601f198184030181529181526020820180516001600160e01b031663a9059cbb60e01b1790525161248791906137a2565b6000604051808303816000865af19150503d80600081146124c4576040519150601f19603f3d011682016040523d82523d6000602084013e6124c9565b606091505b509150915081604051806040016040528060118152602001701d1c985b9cd9995c881c995d995c9d1959607a1b815250906125175760405162461bcd60e51b815260040161093c919061378f565b508051158061253557508080602001905181019061253591906137be565b6040518060400160405280601781526020017f7472616e736665722072657475726e65642066616c7365000000000000000000815250906125895760405162461bcd60e51b815260040161093c919061378f565b505050505050565b6001600160a01b0381166000908152600e602090815260408083208584529091528120600181015490546125c591906135e7565b6001600160a01b0383166000908152600e60209081526040808320878452825280832060028101805460ff60f01b1916600160f01b179055839055600690915281206003018054929350839290919061261f9084906135e7565b9091555050600083815260066020526040812080548392906126429084906135e7565b909155506126589050600e6008600d8587612bb5565b612666600e600c8486612d97565b600083815260056020526040902054612689906001600160a01b031683836123e6565b60408051848152602081018390526001600160a01b038416917f21e12a7cad0da5928167e1084ea4d5fdf8d9af66657a2543a9ac76a0ca0814779101610cee565b6000546001600160a01b03163314610eef5760405163118cdaa760e01b815233600482015260240161093c565b6126ff612978565b6001805460ff60a01b191690557f5db9ee0a495bf2e6ff9c91a7834c1ba4fdd244a5e8aa4e537bd38aeae4b073aa335b6040516001600160a01b03909116815260200160405180910390a1565b600180546001600160a01b03191690556112ef81612f66565b61276d6123ad565b6001805460ff60a01b1916600160a01b1790557f62e78cea01bee320cd4e420270b5ea74000d11b0c9f74754ebdbfc544b05a25861272f3390565b60008181526004602052604090205464ffffffffff166127cb62015180826137e0565b64ffffffffff1642101580156127e857508064ffffffffff164211155b156128bd5760006127106127fc3385611c27565b6128058561188f565b61ffff166128139190613805565b61281d919061381c565b336000908152600e6020908152604080832087845290915281206001018054929350839290919061284f90849061365e565b90915550506000838152600660205260408120600101805483929061287590849061365e565b9091555050604080518481526020810183905260009181019190915233907f91e70b531ad5a24521e08b51cd971ba40fe890590859cd4e240cabc688861d4190606001610cee565b8064ffffffffff164211156119a75760006128d83384611c27565b336000908152600e6020908152604080832087845290915281206001018054929350839290919061290a90849061365e565b90915550506000838152600660205260408120600101805483929061293090849061365e565b9091555050604080518481526020810183905260019181019190915233907f91e70b531ad5a24521e08b51cd971ba40fe890590859cd4e240cabc688861d4190606001610cee565b600154600160a01b900460ff16610eef57604051638dfc202b60e01b815260040160405180910390fd5b6040805180820190915260078152666e6f20636f646560c81b60208201526001600160a01b0385163b6129e85760405162461bcd60e51b815260040161093c919061378f565b506040516001600160a01b038481166024830152838116604483015260648201839052600091829187169060840160408051601f198184030181529181526020820180516001600160e01b03166323b872dd60e01b17905251612a4b91906137a2565b6000604051808303816000865af19150503d8060008114612a88576040519150601f19603f3d011682016040523d82523d6000602084013e612a8d565b606091505b509150915081604051806040016040528060158152602001741d1c985b9cd9995c919c9bdb481c995d995c9d1959605a1b81525090612adf5760405162461bcd60e51b815260040161093c919061378f565b5080511580612afd575080806020019051810190612afd91906137be565b6040518060400160405280601b81526020017f7472616e7366657246726f6d2072657475726e65642066616c736500000000008152509061122e5760405162461bcd60e51b815260040161093c919061378f565b60029190910180546effffffffffffffffffffffffffffff19166001600160781b03909216919091179055565b600290910180546001600160781b03909216600160781b026effffffffffffffffffffffffffffff60781b19909216919091179055565b6001600160a01b0382166000908152602086815260408083208484528252808320600201549187905290912080546001600160781b039092169182908110612bff57612bff6135fa565b6000918252602090912001546001600160a01b03848116911614612c2557612c2561383e565b600082815260208690526040902054612c40906001906135e7565b811015612cf65760008281526020869052604081208054612c63906001906135e7565b81548110612c7357612c736135fa565b600091825260208083209091015485835290889052604090912080546001600160a01b039092169250829184908110612cae57612cae6135fa565b600091825260208083209190910180546001600160a01b0319166001600160a01b039485161790559183168152888252604080822086835290925220612cf49083612b51565b505b6000828152602086905260409020805480612d1357612d13613854565b60008281526020808220600019908401810180546001600160a01b03191690559092019092556001600160a01b0385168083528682526040808420868552835292839020805460ff1916905591518481527fcef8fac05afb87995942422eac900de6af11a555d80d075340af81db492119fe910160405180910390a2505050505050565b6001600160a01b0382166000818152602086815260408083208584528252808320600201549383529086905290208054600160781b9092046001600160781b03169182908110612de957612de96135fa565b90600052602060002001548214612e0257612e0261383e565b6001600160a01b038316600090815260208590526040902054612e27906001906135e7565b811015612edf576001600160a01b03831660009081526020859052604081208054612e54906001906135e7565b81548110612e6457612e646135fa565b9060005260206000200154905080856000866001600160a01b03166001600160a01b031681526020019081526020016000208381548110612ea757612ea76135fa565b60009182526020808320909101929092556001600160a01b0386168152878252604080822084835290925220612edd9083612b7e565b505b6001600160a01b0383166000908152602085905260409020805480612f0657612f06613854565b60019003818190600052602060002001600090559055826001600160a01b03167ff0b3f080b2f718fff5676317c118cb60a324d72090440b3000b9881724fce95183604051612f5791815260200190565b60405180910390a25050505050565b600080546001600160a01b038381166001600160a01b0319831681178455604051919092169283917f8be0079c531659141344cd1fd0a4f28419497f9722a3daafe3b4186f6b6457e09190a35050565b803564ffffffffff81168114612fcb57600080fd5b919050565b803561ffff81168114612fcb57600080fd5b6001600160a01b03811681146112ef57600080fd5b8035612fcb81612fe2565b600080600080600080600060c0888a03121561301d57600080fd5b61302688612fb6565b965061303460208901612fb6565b9550604088013567ffffffffffffffff8082111561305157600080fd5b818a0191508a601f83011261306557600080fd5b81358181111561307457600080fd5b8b602082850101111561308657600080fd5b602083019750809650505050606088013592506130a560808901612fd0565b91506130b360a08901612ff7565b905092959891949750929550565b600080604083850312156130d457600080fd5b8235915060208301356130e681612fe2565b809150509250929050565b6000806040838503121561310457600080fd5b50508035926020909101359150565b60006020828403121561312557600080fd5b5035919050565b6000806040838503121561313f57600080fd5b823561314a81612fe2565b946020939093013593505050565b60008060006060848603121561316d57600080fd5b83359250602084013561317f81612fe2565b929592945050506040919091013590565b60008151808452602080850194506020840160005b838110156131ca5781516001600160a01b0316875295820195908201906001016131a5565b509495945050505050565b6020815260006110a86020830184613190565b60008083601f8401126131fa57600080fd5b50813567ffffffffffffffff81111561321257600080fd5b6020830191508360208260051b850101111561322d57600080fd5b9250929050565b60008060008060006060868803121561324c57600080fd5b85359450602086013567ffffffffffffffff8082111561326b57600080fd5b61327789838a016131e8565b9096509450604088013591508082111561329057600080fd5b5061329d888289016131e8565b969995985093965092949392505050565b600080600080604085870312156132c457600080fd5b843567ffffffffffffffff808211156132dc57600080fd5b6132e8888389016131e8565b9096509450602087013591508082111561330157600080fd5b5061330e878288016131e8565b95989497509550505050565b60005b8381101561333557818101518382015260200161331d565b50506000910152565b6000815180845261335681602086016020860161331a565b601f01601f19169290920160200192915050565b634e487b7160e01b600052602160045260246000fd5b6005811061339e57634e487b7160e01b600052602160045260246000fd5b9052565b600061018060018060a01b038a5116835261ffff60208b015116602084015280604084015264ffffffffff808a5116828501528060208b0151166101a08501525050604088015160806101c08401526133ff61020084018261333e565b905060608901516101e0840152613444606084018980518252602081015160208301526040810151604083015260608101516060830152608081015160808301525050565b613452610100840188613380565b6001600160a01b0386166101208401528281036101408401526134758186613190565b905082810361016084015261348a8185613190565b9a9950505050505050505050565b600064ffffffffff8087168352808616602084015250608060408301526134c2608083018561333e565b905082606083015295945050505050565b6000602082840312156134e557600080fd5b81356110a881612fe2565b6020808252825182820181905260009190848201906040850190845b818110156135285783518352928401929184019160010161350c565b50909695505050505050565b60208101610ea58284613380565b634e487b7160e01b600052601160045260246000fd5b60006001820161356a5761356a613542565b5060010190565b85815260806020820152836080820152838560a0830137600060a08583010152600060a0601f19601f870116830101905083604083015261ffff831660608301529695505050505050565b602080825260119082015270139bdd0818481c185c9d1a58da5c185b9d607a1b604082015260600190565b81810381811115610ea557610ea5613542565b634e487b7160e01b600052603260045260246000fd5b600181811c9082168061362457607f821691505b60208210810361364457634e487b7160e01b600052602260045260246000fd5b50919050565b828152604081016110a86020830184613380565b80820180821115610ea557610ea5613542565b634e487b7160e01b600052604160045260246000fd5b601f821115610e55576000816000526020600020601f850160051c810160208610156136b05750805b601f850160051c820191505b81811015612589578281556001016136bc565b815167ffffffffffffffff8111156136e9576136e9613671565b6136fd816136f78454613610565b84613687565b602080601f831160018114613732576000841561371a5750858301515b600019600386901b1c1916600185901b178555612589565b600085815260208120601f198616915b8281101561376157888601518255948401946001909101908401613742565b508582101561377f5787850151600019600388901b60f8161c191681555b5050505050600190811b01905550565b6020815260006110a8602083018461333e565b600082516137b481846020870161331a565b9190910192915050565b6000602082840312156137d057600080fd5b815180151581146110a857600080fd5b64ffffffffff8281168282160390808211156137fe576137fe613542565b5092915050565b8082028115828204841417610ea557610ea5613542565b60008261383957634e487b7160e01b600052601260045260246000fd5b500490565b634e487b7160e01b600052600160045260246000fd5b634e487b7160e01b600052603160045260246000fdfe31a9dc34623b73afced82caba571a54d1c45d5fdeb4aacfd33ed0cb5df28e172a2646970667358221220074c3aa59a57571eeed7b2d17d779ff5fc1a5220ae0d0b9bfb619fe03255d53664736f6c63430008190033","linkReferences":{}},"methodIdentifiers":{"acceptOwnership()":"79ba5097","claimWinning(uint256,address)":"016c8537","claimWinnings(uint256[],address[])":"7946ec5e","collectFees(uint256)":"b17acdcd","collectRemainingBalance(uint256)":"82ef7b64","createPool(uint40,uint40,string,uint256,uint16,address)":"01285261","createdPools(address,uint256)":"fe240bed","deletePool(uint256)":"f6c2d292","deposit(uint256,uint256)":"e2bbb158","emergencyWithdraw(address,uint256)":"95ccea67","enableDeposit(uint256)":"eaccc6ed","endPool(uint256)":"c964ee9f","getAllPoolInfo(uint256)":"83a06e5b","getExtraBalance(uint256)":"1ae36af5","getFeesAccumulated(uint256)":"93fae243","getFeesCollected(uint256)":"12b4dd8e","getHost(uint256)":"3dfd95e4","getParticipantDeposit(address,uint256)":"bb32b69c","getParticipants(uint256)":"c1e3bd3e","getPoolBalance(uint256)":"ed1375d5","getPoolFeeRate(uint256)":"917dd1c0","getPoolsCreatedBy(address)":"f8f192b9","getPoolsJoinedBy(address)":"a7c0d8d4","getWinners(uint256)":"6b1426a4","getWinningAmount(uint256,address)":"5530324d","isHost(address,uint256)":"55062d2b","isParticipant(address,uint256)":"6f527aed","isWinner(uint256,address)":"bdd415af","joinedPools(address,uint256)":"686108fc","latestPoolId()":"46541a24","owner()":"8da5cb5b","participantDetail(address,uint256)":"1f0c0499","participants(uint256,uint256)":"81fb1fb4","pause()":"8456cb59","paused()":"5c975abb","pendingOwner()":"e30c3978","poolAdmin(uint256)":"4b17640c","poolBalance(uint256)":"6a6d964e","poolDetail(uint256)":"9294a9a0","poolStatus(uint256)":"f665d10b","poolToken(uint256)":"6e7d4019","refundParticipant(uint256,address)":"09d1fcf4","renounceOwnership()":"715018a6","selfRefund(uint256)":"90cb68b3","setWinner(uint256,address,uint256)":"51b42283","setWinners(uint256,address[],uint256[])":"6cb0b567","startPool(uint256)":"a901d15c","transferOwnership(address)":"f2fde38b","unpause()":"3f4ba83a","winnerDetail(address,uint256)":"4c7d819b","winners(uint256,uint256)":"0efc8865"},"id":33}