{"abi":[{"type":"constructor","inputs":[],"stateMutability":"nonpayable"},{"type":"function","name":"claimWinning","inputs":[{"name":"poolId","type":"uint256","internalType":"uint256"},{"name":"winner","type":"address","internalType":"address"}],"outputs":[],"stateMutability":"nonpayable"},{"type":"function","name":"claimWinnings","inputs":[{"name":"poolIds","type":"uint256[]","internalType":"uint256[]"},{"name":"_winners","type":"address[]","internalType":"address[]"}],"outputs":[],"stateMutability":"nonpayable"},{"type":"function","name":"collectFees","inputs":[{"name":"poolId","type":"uint256","internalType":"uint256"}],"outputs":[],"stateMutability":"nonpayable"},{"type":"function","name":"collectRemainingBalance","inputs":[{"name":"poolId","type":"uint256","internalType":"uint256"}],"outputs":[],"stateMutability":"nonpayable"},{"type":"function","name":"createPool","inputs":[{"name":"timeStart","type":"uint40","internalType":"uint40"},{"name":"timeEnd","type":"uint40","internalType":"uint40"},{"name":"poolName","type":"string","internalType":"string"},{"name":"depositAmountPerPerson","type":"uint256","internalType":"uint256"},{"name":"penaltyFeeRate","type":"uint16","internalType":"uint16"},{"name":"token","type":"address","internalType":"address"}],"outputs":[{"name":"","type":"uint256","internalType":"uint256"}],"stateMutability":"nonpayable"},{"type":"function","name":"createdPools","inputs":[{"name":"","type":"address","internalType":"address"},{"name":"","type":"uint256","internalType":"uint256"}],"outputs":[{"name":"","type":"uint256","internalType":"uint256"}],"stateMutability":"view"},{"type":"function","name":"deletePool","inputs":[{"name":"poolId","type":"uint256","internalType":"uint256"}],"outputs":[],"stateMutability":"nonpayable"},{"type":"function","name":"deposit","inputs":[{"name":"poolId","type":"uint256","internalType":"uint256"},{"name":"amount","type":"uint256","internalType":"uint256"}],"outputs":[{"name":"","type":"bool","internalType":"bool"}],"stateMutability":"nonpayable"},{"type":"function","name":"emergencyWithdraw","inputs":[{"name":"token","type":"address","internalType":"contract IERC20"},{"name":"amount","type":"uint256","internalType":"uint256"}],"outputs":[],"stateMutability":"nonpayable"},{"type":"function","name":"enableDeposit","inputs":[{"name":"poolId","type":"uint256","internalType":"uint256"}],"outputs":[],"stateMutability":"nonpayable"},{"type":"function","name":"endPool","inputs":[{"name":"poolId","type":"uint256","internalType":"uint256"}],"outputs":[],"stateMutability":"nonpayable"},{"type":"function","name":"getExtraBalance","inputs":[{"name":"poolId","type":"uint256","internalType":"uint256"}],"outputs":[{"name":"","type":"uint256","internalType":"uint256"}],"stateMutability":"view"},{"type":"function","name":"getFeesAccumulated","inputs":[{"name":"poolId","type":"uint256","internalType":"uint256"}],"outputs":[{"name":"","type":"uint256","internalType":"uint256"}],"stateMutability":"view"},{"type":"function","name":"getFeesCollected","inputs":[{"name":"poolId","type":"uint256","internalType":"uint256"}],"outputs":[{"name":"","type":"uint256","internalType":"uint256"}],"stateMutability":"view"},{"type":"function","name":"getHost","inputs":[{"name":"poolId","type":"uint256","internalType":"uint256"}],"outputs":[{"name":"","type":"address","internalType":"address"}],"stateMutability":"view"},{"type":"function","name":"getParticipantDeposit","inputs":[{"name":"participant","type":"address","internalType":"address"},{"name":"poolId","type":"uint256","internalType":"uint256"}],"outputs":[{"name":"","type":"uint256","internalType":"uint256"}],"stateMutability":"view"},{"type":"function","name":"getParticipants","inputs":[{"name":"poolId","type":"uint256","internalType":"uint256"}],"outputs":[{"name":"","type":"address[]","internalType":"address[]"}],"stateMutability":"view"},{"type":"function","name":"getPoolBalance","inputs":[{"name":"poolId","type":"uint256","internalType":"uint256"}],"outputs":[{"name":"","type":"uint256","internalType":"uint256"}],"stateMutability":"view"},{"type":"function","name":"getPoolFeeRate","inputs":[{"name":"poolId","type":"uint256","internalType":"uint256"}],"outputs":[{"name":"","type":"uint16","internalType":"uint16"}],"stateMutability":"view"},{"type":"function","name":"getPoolsCreatedBy","inputs":[{"name":"host","type":"address","internalType":"address"}],"outputs":[{"name":"","type":"uint256[]","internalType":"uint256[]"}],"stateMutability":"view"},{"type":"function","name":"getPoolsJoinedBy","inputs":[{"name":"participant","type":"address","internalType":"address"}],"outputs":[{"name":"","type":"uint256[]","internalType":"uint256[]"}],"stateMutability":"view"},{"type":"function","name":"getWinners","inputs":[{"name":"poolId","type":"uint256","internalType":"uint256"}],"outputs":[{"name":"","type":"address[]","internalType":"address[]"}],"stateMutability":"view"},{"type":"function","name":"getWinningAmount","inputs":[{"name":"poolId","type":"uint256","internalType":"uint256"},{"name":"winner","type":"address","internalType":"address"}],"outputs":[{"name":"","type":"uint256","internalType":"uint256"}],"stateMutability":"view"},{"type":"function","name":"isHost","inputs":[{"name":"","type":"address","internalType":"address"},{"name":"","type":"uint256","internalType":"uint256"}],"outputs":[{"name":"","type":"bool","internalType":"bool"}],"stateMutability":"view"},{"type":"function","name":"isParticipant","inputs":[{"name":"","type":"address","internalType":"address"},{"name":"","type":"uint256","internalType":"uint256"}],"outputs":[{"name":"","type":"bool","internalType":"bool"}],"stateMutability":"view"},{"type":"function","name":"isWinner","inputs":[{"name":"poolId","type":"uint256","internalType":"uint256"},{"name":"winner","type":"address","internalType":"address"}],"outputs":[{"name":"","type":"bool","internalType":"bool"}],"stateMutability":"view"},{"type":"function","name":"joinedPools","inputs":[{"name":"","type":"address","internalType":"address"},{"name":"","type":"uint256","internalType":"uint256"}],"outputs":[{"name":"","type":"uint256","internalType":"uint256"}],"stateMutability":"view"},{"type":"function","name":"latestPoolId","inputs":[],"outputs":[{"name":"","type":"uint256","internalType":"uint256"}],"stateMutability":"view"},{"type":"function","name":"owner","inputs":[],"outputs":[{"name":"","type":"address","internalType":"address"}],"stateMutability":"view"},{"type":"function","name":"participantDetail","inputs":[{"name":"","type":"address","internalType":"address"},{"name":"","type":"uint256","internalType":"uint256"}],"outputs":[{"name":"deposit","type":"uint256","internalType":"uint256"},{"name":"feesCharged","type":"uint256","internalType":"uint256"},{"name":"participantIndex","type":"uint120","internalType":"uint120"},{"name":"joinedPoolsIndex","type":"uint120","internalType":"uint120"},{"name":"refunded","type":"bool","internalType":"bool"}],"stateMutability":"view"},{"type":"function","name":"participants","inputs":[{"name":"","type":"uint256","internalType":"uint256"},{"name":"","type":"uint256","internalType":"uint256"}],"outputs":[{"name":"","type":"address","internalType":"address"}],"stateMutability":"view"},{"type":"function","name":"pause","inputs":[],"outputs":[],"stateMutability":"nonpayable"},{"type":"function","name":"paused","inputs":[],"outputs":[{"name":"","type":"bool","internalType":"bool"}],"stateMutability":"view"},{"type":"function","name":"poolAdmin","inputs":[{"name":"","type":"uint256","internalType":"uint256"}],"outputs":[{"name":"host","type":"address","internalType":"address"},{"name":"penaltyFeeRate","type":"uint16","internalType":"uint16"}],"stateMutability":"view"},{"type":"function","name":"poolBalance","inputs":[{"name":"","type":"uint256","internalType":"uint256"}],"outputs":[{"name":"totalDeposits","type":"uint256","internalType":"uint256"},{"name":"feesAccumulated","type":"uint256","internalType":"uint256"},{"name":"feesCollected","type":"uint256","internalType":"uint256"},{"name":"balance","type":"uint256","internalType":"uint256"},{"name":"extraBalance","type":"uint256","internalType":"uint256"}],"stateMutability":"view"},{"type":"function","name":"poolDetail","inputs":[{"name":"","type":"uint256","internalType":"uint256"}],"outputs":[{"name":"timeStart","type":"uint40","internalType":"uint40"},{"name":"timeEnd","type":"uint40","internalType":"uint40"},{"name":"poolName","type":"string","internalType":"string"},{"name":"depositAmountPerPerson","type":"uint256","internalType":"uint256"}],"stateMutability":"view"},{"type":"function","name":"poolStatus","inputs":[{"name":"","type":"uint256","internalType":"uint256"}],"outputs":[{"name":"","type":"uint8","internalType":"enum IPool.POOLSTATUS"}],"stateMutability":"view"},{"type":"function","name":"poolToken","inputs":[{"name":"","type":"uint256","internalType":"uint256"}],"outputs":[{"name":"","type":"address","internalType":"contract IERC20"}],"stateMutability":"view"},{"type":"function","name":"refundParticipant","inputs":[{"name":"poolId","type":"uint256","internalType":"uint256"},{"name":"participant","type":"address","internalType":"address"}],"outputs":[],"stateMutability":"nonpayable"},{"type":"function","name":"selfRefund","inputs":[{"name":"poolId","type":"uint256","internalType":"uint256"}],"outputs":[],"stateMutability":"nonpayable"},{"type":"function","name":"setWinner","inputs":[{"name":"poolId","type":"uint256","internalType":"uint256"},{"name":"winner","type":"address","internalType":"address"},{"name":"amount","type":"uint256","internalType":"uint256"}],"outputs":[],"stateMutability":"nonpayable"},{"type":"function","name":"setWinners","inputs":[{"name":"poolId","type":"uint256","internalType":"uint256"},{"name":"_winners","type":"address[]","internalType":"address[]"},{"name":"amounts","type":"uint256[]","internalType":"uint256[]"}],"outputs":[],"stateMutability":"nonpayable"},{"type":"function","name":"startPool","inputs":[{"name":"poolId","type":"uint256","internalType":"uint256"}],"outputs":[],"stateMutability":"nonpayable"},{"type":"function","name":"transferOwnership","inputs":[{"name":"newOwner","type":"address","internalType":"address"}],"outputs":[],"stateMutability":"nonpayable"},{"type":"function","name":"unpause","inputs":[],"outputs":[],"stateMutability":"nonpayable"},{"type":"function","name":"winnerDetail","inputs":[{"name":"","type":"address","internalType":"address"},{"name":"","type":"uint256","internalType":"uint256"}],"outputs":[{"name":"amountWon","type":"uint256","internalType":"uint256"},{"name":"claimed","type":"bool","internalType":"bool"}],"stateMutability":"view"},{"type":"function","name":"winners","inputs":[{"name":"","type":"uint256","internalType":"uint256"},{"name":"","type":"uint256","internalType":"uint256"}],"outputs":[{"name":"","type":"address","internalType":"address"}],"stateMutability":"view"},{"type":"event","name":"Deposit","inputs":[{"name":"poolId","type":"uint256","indexed":false,"internalType":"uint256"},{"name":"participant","type":"address","indexed":true,"internalType":"address"},{"name":"amount","type":"uint256","indexed":false,"internalType":"uint256"}],"anonymous":false},{"type":"event","name":"FeesCharged","inputs":[{"name":"poolId","type":"uint256","indexed":false,"internalType":"uint256"},{"name":"participant","type":"address","indexed":true,"internalType":"address"},{"name":"fees","type":"uint256","indexed":false,"internalType":"uint256"},{"name":"chargedAll","type":"bool","indexed":false,"internalType":"bool"}],"anonymous":false},{"type":"event","name":"FeesCollected","inputs":[{"name":"poolId","type":"uint256","indexed":false,"internalType":"uint256"},{"name":"host","type":"address","indexed":true,"internalType":"address"},{"name":"fees","type":"uint256","indexed":false,"internalType":"uint256"}],"anonymous":false},{"type":"event","name":"JoinedPoolsRemoved","inputs":[{"name":"poolId","type":"uint256","indexed":false,"internalType":"uint256"},{"name":"participant","type":"address","indexed":true,"internalType":"address"}],"anonymous":false},{"type":"event","name":"OwnershipTransferred","inputs":[{"name":"user","type":"address","indexed":true,"internalType":"address"},{"name":"newOwner","type":"address","indexed":true,"internalType":"address"}],"anonymous":false},{"type":"event","name":"ParticipantRemoved","inputs":[{"name":"poolId","type":"uint256","indexed":false,"internalType":"uint256"},{"name":"participant","type":"address","indexed":true,"internalType":"address"}],"anonymous":false},{"type":"event","name":"Paused","inputs":[{"name":"account","type":"address","indexed":false,"internalType":"address"}],"anonymous":false},{"type":"event","name":"PoolCreated","inputs":[{"name":"poolId","type":"uint256","indexed":false,"internalType":"uint256"},{"name":"host","type":"address","indexed":true,"internalType":"address"},{"name":"poolName","type":"string","indexed":false,"internalType":"string"},{"name":"depositAmountPerPerson","type":"uint256","indexed":false,"internalType":"uint256"},{"name":"penaltyFeeRate","type":"uint256","indexed":false,"internalType":"uint256"},{"name":"token","type":"address","indexed":true,"internalType":"address"}],"anonymous":false},{"type":"event","name":"PoolStatusChanged","inputs":[{"name":"poolId","type":"uint256","indexed":false,"internalType":"uint256"},{"name":"status","type":"uint8","indexed":false,"internalType":"enum IPool.POOLSTATUS"}],"anonymous":false},{"type":"event","name":"Refund","inputs":[{"name":"poolId","type":"uint256","indexed":false,"internalType":"uint256"},{"name":"participant","type":"address","indexed":true,"internalType":"address"},{"name":"amount","type":"uint256","indexed":false,"internalType":"uint256"}],"anonymous":false},{"type":"event","name":"RemainingBalanceCollected","inputs":[{"name":"poolId","type":"uint256","indexed":false,"internalType":"uint256"},{"name":"host","type":"address","indexed":true,"internalType":"address"},{"name":"amount","type":"uint256","indexed":false,"internalType":"uint256"}],"anonymous":false},{"type":"event","name":"Unpaused","inputs":[{"name":"account","type":"address","indexed":false,"internalType":"address"}],"anonymous":false},{"type":"event","name":"WinnerSet","inputs":[{"name":"poolId","type":"uint256","indexed":false,"internalType":"uint256"},{"name":"winner","type":"address","indexed":true,"internalType":"address"},{"name":"amount","type":"uint256","indexed":false,"internalType":"uint256"}],"anonymous":false},{"type":"event","name":"WinningClaimed","inputs":[{"name":"poolId","type":"uint256","indexed":false,"internalType":"uint256"},{"name":"winner","type":"address","indexed":true,"internalType":"address"},{"name":"amount","type":"uint256","indexed":false,"internalType":"uint256"}],"anonymous":false},{"type":"error","name":"EnforcedPause","inputs":[]},{"type":"error","name":"ExpectedPause","inputs":[]},{"type":"error","name":"Unauthorized","inputs":[{"name":"caller","type":"address","internalType":"address"}]}],"bytecode":{"object":"0x6080604052348015600f57600080fd5b50600080546001600160a01b031916339081178255604051909182917f8be0079c531659141344cd1fd0a4f28419497f9722a3daafe3b4186f6b6457e0908290a3506000805460ff60a01b1916905561349e8061006d6000396000f3fe608060405234801561001057600080fd5b50600436106102955760003560e01c806381fb1fb411610167578063bb32b69c116100ce578063ed1375d511610087578063ed1375d5146107b8578063f2fde38b146107cb578063f665d10b146107de578063f6c2d2921461080e578063f8f192b914610821578063fe240bed1461083457600080fd5b8063bb32b69c14610724578063bdd415af14610737578063c1e3bd3e1461076c578063c964ee9f1461077f578063e2bbb15814610792578063eaccc6ed146107a557600080fd5b80639294a9a0116101205780639294a9a01461069557806393fae243146106b857806395ccea67146106cb578063a7c0d8d4146106de578063a901d15c146106fe578063b17acdcd1461071157600080fd5b806381fb1fb41461061b57806382ef7b641461062e5780638456cb59146106415780638da5cb5b1461064957806390cb68b31461065c578063917dd1c01461066f57600080fd5b80634c7d819b1161020b5780636a6d964e116101c45780636a6d964e146105195780636b1426a41461057e5780636cb0b5671461059e5780636e7d4019146105b15780636f527aed146105da5780637946ec5e1461060857600080fd5b80634c7d819b1461044657806351b422831461049057806355062d2b146104a35780635530324d146104e15780635c975abb146104f4578063686108fc1461050657600080fd5b80631ae36af51161025d5780631ae36af5146103265780631f0c0499146103395780633dfd95e4146103ca5780633f4ba83a146103dd57806346541a24146103e55780634b17640c146103ee57600080fd5b8063012852611461029a578063016c8537146102c057806309d1fcf4146102d55780630efc8865146102e857806312b4dd8e14610313575b600080fd5b6102ad6102a8366004612cc7565b610847565b6040519081526020015b60405180910390f35b6102d36102ce366004612d86565b610b6c565b005b6102d36102e3366004612d86565b610cd8565b6102fb6102f6366004612db6565b610e2e565b6040516001600160a01b0390911681526020016102b7565b6102ad610321366004612dd8565b610e66565b6102ad610334366004612dd8565b610e7f565b610394610347366004612df1565b600d6020908152600092835260408084209091529082529020805460018201546002909201549091906001600160781b0380821691600160781b810490911690600160f01b900460ff1685565b6040805195865260208601949094526001600160781b03928316938501939093521660608301521515608082015260a0016102b7565b6102fb6103d8366004612dd8565b610e96565b6102d3610eb3565b6102ad60015481565b6104246103fc366004612dd8565b6002602052600090815260409020546001600160a01b03811690600160a01b900461ffff1682565b604080516001600160a01b03909316835261ffff9091166020830152016102b7565b61047b610454366004612df1565b600e6020908152600092835260408084209091529082529020805460019091015460ff1682565b604080519283529015156020830152016102b7565b6102d361049e366004612e1d565b610ee7565b6104d16104b1366004612df1565b600a60209081526000928352604080842090915290825290205460ff1681565b60405190151581526020016102b7565b6102ad6104ef366004612d86565b611079565b600054600160a01b900460ff166104d1565b6102ad610514366004612df1565b6110a5565b610556610527366004612dd8565b600560205260009081526040902080546001820154600283015460038401546004909401549293919290919085565b604080519586526020860194909452928401919091526060830152608082015260a0016102b7565b61059161058c366004612dd8565b6110d6565b6040516102b79190612e55565b6102d36105ac366004612eee565b611142565b6102fb6105bf366004612dd8565b6004602052600090815260409020546001600160a01b031681565b6104d16105e8366004612df1565b600c60209081526000928352604080842090915290825290205460ff1681565b6102d3610616366004612f68565b61122d565b6102fb610629366004612db6565b611292565b6102d361063c366004612dd8565b6112ae565b6102d361142e565b6000546102fb906001600160a01b031681565b6102d361066a366004612dd8565b611460565b61068261067d366004612dd8565b6115b1565b60405161ffff90911681526020016102b7565b6106a86106a3366004612dd8565b6115d0565b6040516102b79493929190613024565b6102ad6106c6366004612dd8565b611690565b6102d36106d9366004612df1565b6116a7565b6106f16106ec36600461305f565b6116f1565b6040516102b7919061307c565b6102d361070c366004612dd8565b61175c565b6102d361071f366004612dd8565b61187b565b6102ad610732366004612df1565b61196d565b6104d1610745366004612d86565b6001600160a01b03166000908152600e602090815260408083209383529290522054151590565b61059161077a366004612dd8565b611996565b6102d361078d366004612dd8565b611a00565b6104d16107a0366004612db6565b611b12565b6102d36107b3366004612dd8565b611e8a565b6102ad6107c6366004612dd8565b611f73565b6102d36107d936600461305f565b611f8a565b6108016107ec366004612dd8565b60066020526000908152604090205460ff1681565b6040516102b791906130ec565b6102d361081c366004612dd8565b611fff565b6106f161082f36600461305f565b612082565b6102ad610842366004612df1565b6120ec565b6000610851612108565b8664ffffffffff168864ffffffffff16106108a45760405162461bcd60e51b815260206004820152600e60248201526d496e76616c69642074696d696e6760901b60448201526064015b60405180910390fd5b61271061ffff841611156108ee5760405162461bcd60e51b8152602060048201526011602482015270496e76616c69642066656573207261746560781b604482015260640161089b565b604051631627905560e01b81526001600160a01b038316600482015273__$49f01147f74baa368cdde07a287a0d99a6$__90631627905590602401602060405180830381865af4158015610946573d6000803e3d6000fd5b505050506040513d601f19601f8201168201806040525081019061096a91906130fa565b6109ab5760405162461bcd60e51b8152602060048201526012602482015271151bdad95b881b9bdd0818dbdb9d1c9858dd60721b604482015260640161089b565b600180549060006109bb83613132565b90915550506001546000908152600360205260409020805464ffffffffff191664ffffffffff8a161790556001546000908152600360205260409020805469ffffffffff000000000019166501000000000064ffffffffff8a1602179055610a6786868080601f01602080910402602001604051908101604052809392919081815260200183838082843760009201829052506001548152600360205260409020939250506121339050565b6001805460009081526003602090815260408083206002908101899055845484528252808320805461ffff8916600160a01b0261ffff60a01b19909116179055835483528083208054336001600160a01b03199182168117909255818552600a8452828520865486528452828520805460ff19168717905581855260098452828520865481548089018355918752858720909101558554855260049093529281902080546001600160a01b0388169316831790559254925190927f62cf78dd3c1528a147e40a8e7413f29c3deed8603e2ee1d0c5284b052dae722191610b5591908b908b908b908b9061314b565b60405180910390a350600154979650505050505050565b610b74612108565b600360008381526006602052604090205460ff166004811115610b9957610b996130b4565b14610bd75760405162461bcd60e51b815260206004820152600e60248201526d141bdbdb081b9bdd08195b99195960921b604482015260640161089b565b6001600160a01b0381166000908152600e6020908152604080832085845290915290206001015460ff1615610c405760405162461bcd60e51b815260206004820152600f60248201526e105b1c9958591e4818db185a5b5959608a1b604482015260640161089b565b6001600160a01b038181166000908152600e60209081526040808320868452825280832080546001918201805460ff19169092179091556004909252909120549091610c8e91168383612141565b60408051848152602081018390526001600160a01b038416917f2235d3737edbaa6f1f53953988ba08ed1156b2fa3d5adccff4994f361c9ecbb791015b60405180910390a2505050565b336000908152600a60209081526040808320858452909152902054829060ff16610d175760405163472511eb60e11b815233600482015260240161089b565b610d1f612108565b6001600160a01b0382166000908152600c6020908152604080832086845290915290205460ff16610d625760405162461bcd60e51b815260040161089b90613196565b6001600160a01b0382166000908152600d60209081526040808320868452909152902060020154600160f01b900460ff1615610dd35760405162461bcd60e51b815260206004820152601060248201526f105b1c9958591e481c99599d5b99195960821b604482015260640161089b565b60008381526005602052604081206003015411610e1f5760405162461bcd60e51b815260206004820152600a6024820152694e6f2062616c616e636560b01b604482015260640161089b565b610e2983836122ec565b505050565b60086020528160005260406000208181548110610e4a57600080fd5b6000918252602090912001546001600160a01b03169150829050565b6000818152600560205260408120600201545b92915050565b600081815260056020526040812060040154610e79565b6000818152600260205260408120546001600160a01b0316610e79565b6000546001600160a01b03163314610edd5760405162461bcd60e51b815260040161089b906131c1565b610ee5612425565b565b336000908152600a60209081526040808320868452909152902054839060ff16610f265760405163472511eb60e11b815233600482015260240161089b565b610f2e612108565b6001600160a01b0383166000908152600c6020908152604080832087845290915290205460ff16610f715760405162461bcd60e51b815260040161089b90613196565b600084815260056020526040902060030154821115610fc75760405162461bcd60e51b81526020600482015260126024820152714e6f7420656e6f7567682062616c616e636560701b604482015260640161089b565b60008481526005602052604081206003018054849290610fe89084906131e7565b90915550506001600160a01b0383166000818152600e6020908152604080832088845282528083208690556008825280832080546001810182559084529282902090920180546001600160a01b0319168417905581518781529081018590527f86c416066bc80b64ebce6090a491b86f879b69c8a018bfc62da9549e2c618e5a91015b60405180910390a250505050565b6001600160a01b0381166000908152600e602090815260408083208584529091528120545b9392505050565b600b60205281600052604060002081815481106110c157600080fd5b90600052602060002001600091509150505481565b60008181526008602090815260409182902080548351818402810184019094528084526060939283018282801561113657602002820191906000526020600020905b81546001600160a01b03168152600190910190602001808311611118575b50505050509050919050565b336000908152600a60209081526040808320888452909152902054859060ff166111815760405163472511eb60e11b815233600482015260240161089b565b611189612108565b8382146111c85760405162461bcd60e51b815260206004820152600d60248201526c125b9d985b1a59081a5b9c1d5d609a1b604482015260640161089b565b60005b848110156112245761121c878787848181106111e9576111e96131fa565b90506020020160208101906111fe919061305f565b868685818110611210576112106131fa565b90506020020135610ee7565b6001016111cb565b50505050505050565b611235612108565b60005b8381101561128b57611283858583818110611255576112556131fa565b9050602002013584848481811061126e5761126e6131fa565b90506020020160208101906102ce919061305f565b600101611238565b5050505050565b60076020528160005260406000208181548110610e4a57600080fd5b336000908152600a60209081526040808320848452909152902054819060ff166112ed5760405163472511eb60e11b815233600482015260240161089b565b6112f5612108565b600360008381526006602052604090205460ff16600481111561131a5761131a6130b4565b146113585760405162461bcd60e51b815260206004820152600e60248201526d141bdbdb081b9bdd08195b99195960921b604482015260640161089b565b600082815260056020526040902060030154806113ad5760405162461bcd60e51b81526020600482015260136024820152724e6f7468696e6720746f20776974686472617760681b604482015260640161089b565b600083815260056020908152604080832060030183905560028252808320546004909252909120546001600160a01b03918216916113ed91168284612141565b60408051858152602081018490526001600160a01b038316917f0d8b7f535379cc0ea989891df832f4201d074cd58a544b15f916d2ebf1d3639c910161106b565b6000546001600160a01b031633146114585760405162461bcd60e51b815260040161089b906131c1565b610ee561247a565b611468612108565b600360008281526006602052604090205460ff16600481111561148d5761148d6130b4565b036114cf5760405162461bcd60e51b8152602060048201526012602482015271141bdbdb08185b1c9958591e48195b99195960721b604482015260640161089b565b336000908152600c6020908152604080832084845290915290205460ff166115095760405162461bcd60e51b815260040161089b90613196565b336000908152600d60209081526040808320848452909152902060020154600160f01b900460ff16156115715760405162461bcd60e51b815260206004820152601060248201526f105b1c9958591e481c99599d5b99195960821b604482015260640161089b565b600460008281526006602052604090205460ff166004811115611596576115966130b4565b146115a4576115a4816124bd565b6115ae81336122ec565b50565b600081815260026020526040812054600160a01b900461ffff16610e79565b6003602052600090815260409020805460018201805464ffffffffff80841694650100000000009094041692919061160790613210565b80601f016020809104026020016040519081016040528092919081815260200182805461163390613210565b80156116805780601f1061165557610100808354040283529160200191611680565b820191906000526020600020905b81548152906001019060200180831161166357829003601f168201915b5050505050908060020154905084565b600081815260056020526040812060010154610e79565b6000546001600160a01b031633146116d15760405162461bcd60e51b815260040161089b906131c1565b6116d961268d565b6116ed6001600160a01b0383163383612141565b5050565b6001600160a01b0381166000908152600b602090815260409182902080548351818402810184019094528084526060939283018282801561113657602002820191906000526020600020905b81548152602001906001019080831161173d5750505050509050919050565b336000908152600a60209081526040808320848452909152902054819060ff1661179b5760405163472511eb60e11b815233600482015260240161089b565b6117a3612108565b600160008381526006602052604090205460ff1660048111156117c8576117c86130b4565b146118155760405162461bcd60e51b815260206004820152601760248201527f4465706f736974206e6f7420656e61626c656420796574000000000000000000604482015260640161089b565b6000828152600660209081526040808320805460ff1916600217905560039091529020805464ffffffffff421664ffffffffff1990911617905560008051602061344983398151915282600260405161186f92919061324a565b60405180910390a15050565b611883612108565b600081815260056020526040812060028101546001909101546118a691906131e7565b9050806005600084815260200190815260200160002060030160008282546118ce91906131e7565b9091555050600082815260056020526040812060020180548392906118f490849061325e565b90915550506000828152600260209081526040808320546004909252909120546001600160a01b039182169161192c91168284612141565b60408051848152602081018490526001600160a01b038316917f72015ace03712f361249380657b3d40777dd8f8a686664cab48afd9dbbe4499f9101610ccb565b6001600160a01b0382166000908152600d6020908152604080832084845290915281205461109e565b600081815260076020908152604091829020805483518184028101840190945280845260609392830182828015611136576020028201919060005260206000209081546001600160a01b031681526001909101906020018083116111185750505050509050919050565b336000908152600a60209081526040808320848452909152902054819060ff16611a3f5760405163472511eb60e11b815233600482015260240161089b565b611a47612108565b600260008381526006602052604090205460ff166004811115611a6c57611a6c6130b4565b14611aac5760405162461bcd60e51b815260206004820152601060248201526f141bdbdb081b9bdd081cdd185c9d195960821b604482015260640161089b565b6000828152600660209081526040808320805460ff191660039081179091559091529020805469ffffffffff000000000019166501000000000064ffffffffff42160217905560008051602061344983398151915282600360405161186f92919061324a565b6000611b1c612108565b600160008481526006602052604090205460ff166004811115611b4157611b416130b4565b14611b845760405162461bcd60e51b815260206004820152601360248201527211195c1bdcda5d081b9bdd08195b98589b1959606a1b604482015260640161089b565b60008381526003602052604090205464ffffffffff16421115611bd85760405162461bcd60e51b815260206004820152600c60248201526b141bdbdb081cdd185c9d195960a21b604482015260640161089b565b336000908152600c6020908152604080832086845290915290205460ff1615611c355760405162461bcd60e51b815260206004820152600f60248201526e105b1c9958591e481a5b881c1bdbdb608a1b604482015260640161089b565b60008381526003602052604090206002015480831015611c8a5760405162461bcd60e51b815260206004820152601060248201526f125b98dbdc9c9958dd08185b5bdd5b9d60821b604482015260640161089b565b600084815260046020526040902054611cae906001600160a01b03163330866126b7565b80831115611ce757611cc081846131e7565b60008581526005602052604081206004018054909190611ce190849061325e565b90915550505b60008481526005602052604081208054859290611d0590849061325e565b909155505060008481526005602052604081206003018054859290611d2b90849061325e565b9091555050600084815260076020908152604080832054338452600d8352818420888552909252909120611d5e91612866565b600084815260076020908152604080832080546001810182559084528284200180546001600160a01b031916339081179091558352600b825280832054600d8352818420888552909252909120611db491612893565b336000818152600b6020908152604080832080546001808201835591855283852001899055848452600c83528184208985528352818420805460ff19169091179055928252600d815282822087835290522081815560020154600160f01b900460ff1615611e4557336000908152600d602090815260408083208784529091529020600201805460ff60f01b191690555b604080518581526020810185905233917feaa18152488ce5959073c9c79c88ca90b3d96c00de1f118cfaad664c3dab06b9910160405180910390a25060019392505050565b336000908152600a60209081526040808320848452909152902054819060ff16611ec95760405163472511eb60e11b815233600482015260240161089b565b611ed1612108565b60008281526006602052604081205460ff166004811115611ef457611ef46130b4565b14611f375760405162461bcd60e51b8152602060048201526013602482015272506f6f6c20616c72656164792061637469766560681b604482015260640161089b565b60008281526006602052604090819020805460ff1916600190811790915590516000805160206134498339815191529161186f9185919061324a565b600081815260056020526040812060030154610e79565b6000546001600160a01b03163314611fb45760405162461bcd60e51b815260040161089b906131c1565b600080546001600160a01b0319166001600160a01b0383169081178255604051909133917f8be0079c531659141344cd1fd0a4f28419497f9722a3daafe3b4186f6b6457e09190a350565b336000908152600a60209081526040808320848452909152902054819060ff1661203e5760405163472511eb60e11b815233600482015260240161089b565b612046612108565b60008281526006602052604090819020805460ff1916600490811790915590516000805160206134498339815191529161186f9185919061324a565b6001600160a01b038116600090815260096020908152604091829020805483518184028101840190945280845260609392830182828015611136576020028201919060005260206000209081548152602001906001019080831161173d5750505050509050919050565b600960205281600052604060002081815481106110c157600080fd5b600054600160a01b900460ff1615610ee55760405163d93c066560e01b815260040160405180910390fd5b60018201610e2982826132cf565b6040805180820190915260078152666e6f20636f646560c81b60208201526001600160a01b0384163b6121875760405162461bcd60e51b815260040161089b919061338f565b506040516001600160a01b03838116602483015260448201839052600091829186169060640160408051601f198184030181529181526020820180516001600160e01b031663a9059cbb60e01b179052516121e291906133a2565b6000604051808303816000865af19150503d806000811461221f576040519150601f19603f3d011682016040523d82523d6000602084013e612224565b606091505b509150915081604051806040016040528060118152602001701d1c985b9cd9995c881c995d995c9d1959607a1b815250906122725760405162461bcd60e51b815260040161089b919061338f565b508051158061229057508080602001905181019061229091906130fa565b6040518060400160405280601781526020017f7472616e736665722072657475726e65642066616c7365000000000000000000815250906122e45760405162461bcd60e51b815260040161089b919061338f565b505050505050565b6001600160a01b0381166000908152600d6020908152604080832085845290915281206001810154905461232091906131e7565b6001600160a01b0383166000908152600d60209081526040808320878452825280832060028101805460ff60f01b1916600160f01b179055839055600590915281206003018054929350839290919061237a9084906131e7565b90915550506000838152600560205260408120805483929061239d9084906131e7565b909155506123b39050600d6007600c85876128ca565b6123c1600d600b8486612aac565b6000838152600460205260409020546123e4906001600160a01b03168383612141565b60408051848152602081018390526001600160a01b038416917f21e12a7cad0da5928167e1084ea4d5fdf8d9af66657a2543a9ac76a0ca0814779101610ccb565b61242d61268d565b6000805460ff60a01b191690557f5db9ee0a495bf2e6ff9c91a7834c1ba4fdd244a5e8aa4e537bd38aeae4b073aa335b6040516001600160a01b03909116815260200160405180910390a1565b612482612108565b6000805460ff60a01b1916600160a01b1790557f62e78cea01bee320cd4e420270b5ea74000d11b0c9f74754ebdbfc544b05a25861245d3390565b60008181526003602052604090205464ffffffffff166124e062015180826133be565b64ffffffffff1642101580156124fd57508064ffffffffff164211155b156125d2576000612710612511338561196d565b61251a856115b1565b61ffff1661252891906133e3565b61253291906133fa565b336000908152600d6020908152604080832087845290915281206001018054929350839290919061256490849061325e565b90915550506000838152600560205260408120600101805483929061258a90849061325e565b9091555050604080518481526020810183905260009181019190915233907f91e70b531ad5a24521e08b51cd971ba40fe890590859cd4e240cabc688861d4190606001610ccb565b8064ffffffffff164211156116ed5760006125ed338461196d565b336000908152600d6020908152604080832087845290915281206001018054929350839290919061261f90849061325e565b90915550506000838152600560205260408120600101805483929061264590849061325e565b9091555050604080518481526020810183905260019181019190915233907f91e70b531ad5a24521e08b51cd971ba40fe890590859cd4e240cabc688861d4190606001610ccb565b600054600160a01b900460ff16610ee557604051638dfc202b60e01b815260040160405180910390fd5b6040805180820190915260078152666e6f20636f646560c81b60208201526001600160a01b0385163b6126fd5760405162461bcd60e51b815260040161089b919061338f565b506040516001600160a01b038481166024830152838116604483015260648201839052600091829187169060840160408051601f198184030181529181526020820180516001600160e01b03166323b872dd60e01b1790525161276091906133a2565b6000604051808303816000865af19150503d806000811461279d576040519150601f19603f3d011682016040523d82523d6000602084013e6127a2565b606091505b509150915081604051806040016040528060158152602001741d1c985b9cd9995c919c9bdb481c995d995c9d1959605a1b815250906127f45760405162461bcd60e51b815260040161089b919061338f565b508051158061281257508080602001905181019061281291906130fa565b6040518060400160405280601b81526020017f7472616e7366657246726f6d2072657475726e65642066616c73650000000000815250906112245760405162461bcd60e51b815260040161089b919061338f565b60029190910180546effffffffffffffffffffffffffffff19166001600160781b03909216919091179055565b600290910180546001600160781b03909216600160781b026effffffffffffffffffffffffffffff60781b19909216919091179055565b6001600160a01b0382166000908152602086815260408083208484528252808320600201549187905290912080546001600160781b039092169182908110612914576129146131fa565b6000918252602090912001546001600160a01b0384811691161461293a5761293a61341c565b600082815260208690526040902054612955906001906131e7565b811015612a0b5760008281526020869052604081208054612978906001906131e7565b81548110612988576129886131fa565b600091825260208083209091015485835290889052604090912080546001600160a01b0390921692508291849081106129c3576129c36131fa565b600091825260208083209190910180546001600160a01b0319166001600160a01b039485161790559183168152888252604080822086835290925220612a099083612866565b505b6000828152602086905260409020805480612a2857612a28613432565b60008281526020808220600019908401810180546001600160a01b03191690559092019092556001600160a01b0385168083528682526040808420868552835292839020805460ff1916905591518481527fcef8fac05afb87995942422eac900de6af11a555d80d075340af81db492119fe910160405180910390a2505050505050565b6001600160a01b0382166000818152602086815260408083208584528252808320600201549383529086905290208054600160781b9092046001600160781b03169182908110612afe57612afe6131fa565b90600052602060002001548214612b1757612b1761341c565b6001600160a01b038316600090815260208590526040902054612b3c906001906131e7565b811015612bf4576001600160a01b03831660009081526020859052604081208054612b69906001906131e7565b81548110612b7957612b796131fa565b9060005260206000200154905080856000866001600160a01b03166001600160a01b031681526020019081526020016000208381548110612bbc57612bbc6131fa565b60009182526020808320909101929092556001600160a01b0386168152878252604080822084835290925220612bf29083612893565b505b6001600160a01b0383166000908152602085905260409020805480612c1b57612c1b613432565b60019003818190600052602060002001600090559055826001600160a01b03167ff0b3f080b2f718fff5676317c118cb60a324d72090440b3000b9881724fce95183604051612c6c91815260200190565b60405180910390a25050505050565b803564ffffffffff81168114612c9057600080fd5b919050565b803561ffff81168114612c9057600080fd5b6001600160a01b03811681146115ae57600080fd5b8035612c9081612ca7565b600080600080600080600060c0888a031215612ce257600080fd5b612ceb88612c7b565b9650612cf960208901612c7b565b9550604088013567ffffffffffffffff80821115612d1657600080fd5b818a0191508a601f830112612d2a57600080fd5b813581811115612d3957600080fd5b8b6020828501011115612d4b57600080fd5b60208301975080965050505060608801359250612d6a60808901612c95565b9150612d7860a08901612cbc565b905092959891949750929550565b60008060408385031215612d9957600080fd5b823591506020830135612dab81612ca7565b809150509250929050565b60008060408385031215612dc957600080fd5b50508035926020909101359150565b600060208284031215612dea57600080fd5b5035919050565b60008060408385031215612e0457600080fd5b8235612e0f81612ca7565b946020939093013593505050565b600080600060608486031215612e3257600080fd5b833592506020840135612e4481612ca7565b929592945050506040919091013590565b6020808252825182820181905260009190848201906040850190845b81811015612e965783516001600160a01b031683529284019291840191600101612e71565b50909695505050505050565b60008083601f840112612eb457600080fd5b50813567ffffffffffffffff811115612ecc57600080fd5b6020830191508360208260051b8501011115612ee757600080fd5b9250929050565b600080600080600060608688031215612f0657600080fd5b85359450602086013567ffffffffffffffff80821115612f2557600080fd5b612f3189838a01612ea2565b90965094506040880135915080821115612f4a57600080fd5b50612f5788828901612ea2565b969995985093965092949392505050565b60008060008060408587031215612f7e57600080fd5b843567ffffffffffffffff80821115612f9657600080fd5b612fa288838901612ea2565b90965094506020870135915080821115612fbb57600080fd5b50612fc887828801612ea2565b95989497509550505050565b60005b83811015612fef578181015183820152602001612fd7565b50506000910152565b60008151808452613010816020860160208601612fd4565b601f01601f19169290920160200192915050565b600064ffffffffff80871683528086166020840152506080604083015261304e6080830185612ff8565b905082606083015295945050505050565b60006020828403121561307157600080fd5b813561109e81612ca7565b6020808252825182820181905260009190848201906040850190845b81811015612e9657835183529284019291840191600101613098565b634e487b7160e01b600052602160045260246000fd5b600581106130e857634e487b7160e01b600052602160045260246000fd5b9052565b60208101610e7982846130ca565b60006020828403121561310c57600080fd5b8151801515811461109e57600080fd5b634e487b7160e01b600052601160045260246000fd5b6000600182016131445761314461311c565b5060010190565b85815260806020820152836080820152838560a0830137600060a08583010152600060a0601f19601f870116830101905083604083015261ffff831660608301529695505050505050565b602080825260119082015270139bdd0818481c185c9d1a58da5c185b9d607a1b604082015260600190565b6020808252600c908201526b15539055551213d49256915160a21b604082015260600190565b81810381811115610e7957610e7961311c565b634e487b7160e01b600052603260045260246000fd5b600181811c9082168061322457607f821691505b60208210810361324457634e487b7160e01b600052602260045260246000fd5b50919050565b8281526040810161109e60208301846130ca565b80820180821115610e7957610e7961311c565b634e487b7160e01b600052604160045260246000fd5b601f821115610e29576000816000526020600020601f850160051c810160208610156132b05750805b601f850160051c820191505b818110156122e4578281556001016132bc565b815167ffffffffffffffff8111156132e9576132e9613271565b6132fd816132f78454613210565b84613287565b602080601f831160018114613332576000841561331a5750858301515b600019600386901b1c1916600185901b1785556122e4565b600085815260208120601f198616915b8281101561336157888601518255948401946001909101908401613342565b508582101561337f5787850151600019600388901b60f8161c191681555b5050505050600190811b01905550565b60208152600061109e6020830184612ff8565b600082516133b4818460208701612fd4565b9190910192915050565b64ffffffffff8281168282160390808211156133dc576133dc61311c565b5092915050565b8082028115828204841417610e7957610e7961311c565b60008261341757634e487b7160e01b600052601260045260246000fd5b500490565b634e487b7160e01b600052600160045260246000fd5b634e487b7160e01b600052603160045260246000fdfe31a9dc34623b73afced82caba571a54d1c45d5fdeb4aacfd33ed0cb5df28e172a26469706673582212204c0b94b0724b669eb2c6a738da4ec8b259adb23eb53c5812aa0739a6ba43dfe564736f6c63430008190033","linkReferences":{"src/library/UtilsLib.sol":{"UtilsLib":[{"start":2425,"length":20}]}}},"methodIdentifiers":{"claimWinning(uint256,address)":"016c8537","claimWinnings(uint256[],address[])":"7946ec5e","collectFees(uint256)":"b17acdcd","collectRemainingBalance(uint256)":"82ef7b64","createPool(uint40,uint40,string,uint256,uint16,address)":"01285261","createdPools(address,uint256)":"fe240bed","deletePool(uint256)":"f6c2d292","deposit(uint256,uint256)":"e2bbb158","emergencyWithdraw(address,uint256)":"95ccea67","enableDeposit(uint256)":"eaccc6ed","endPool(uint256)":"c964ee9f","getExtraBalance(uint256)":"1ae36af5","getFeesAccumulated(uint256)":"93fae243","getFeesCollected(uint256)":"12b4dd8e","getHost(uint256)":"3dfd95e4","getParticipantDeposit(address,uint256)":"bb32b69c","getParticipants(uint256)":"c1e3bd3e","getPoolBalance(uint256)":"ed1375d5","getPoolFeeRate(uint256)":"917dd1c0","getPoolsCreatedBy(address)":"f8f192b9","getPoolsJoinedBy(address)":"a7c0d8d4","getWinners(uint256)":"6b1426a4","getWinningAmount(uint256,address)":"5530324d","isHost(address,uint256)":"55062d2b","isParticipant(address,uint256)":"6f527aed","isWinner(uint256,address)":"bdd415af","joinedPools(address,uint256)":"686108fc","latestPoolId()":"46541a24","owner()":"8da5cb5b","participantDetail(address,uint256)":"1f0c0499","participants(uint256,uint256)":"81fb1fb4","pause()":"8456cb59","paused()":"5c975abb","poolAdmin(uint256)":"4b17640c","poolBalance(uint256)":"6a6d964e","poolDetail(uint256)":"9294a9a0","poolStatus(uint256)":"f665d10b","poolToken(uint256)":"6e7d4019","refundParticipant(uint256,address)":"09d1fcf4","selfRefund(uint256)":"90cb68b3","setWinner(uint256,address,uint256)":"51b42283","setWinners(uint256,address[],uint256[])":"6cb0b567","startPool(uint256)":"a901d15c","transferOwnership(address)":"f2fde38b","unpause()":"3f4ba83a","winnerDetail(address,uint256)":"4c7d819b","winners(uint256,uint256)":"0efc8865"},"id":33}