{"abi":[{"type":"function","name":"isContract","inputs":[{"name":"_addr","type":"address","internalType":"address"}],"outputs":[{"name":"","type":"bool","internalType":"bool"}],"stateMutability":"view"}],"bytecode":{"object":"0x60c7610038600b82828239805160001a607314602b57634e487b7160e01b600052600060045260246000fd5b30600052607381538281f3fe730000000000000000000000000000000000000000301460806040526004361060335760003560e01c806316279055146038575b600080fd5b604f60433660046063565b3b63ffffffff16151590565b604051901515815260200160405180910390f35b600060208284031215607457600080fd5b81356001600160a01b0381168114608a57600080fd5b939250505056fea26469706673582212207e710438d850517a6f1b4151dafc8722ff2f1be35ef977a7bc191c01788bd19364736f6c63430008190033","linkReferences":{}},"methodIdentifiers":{"isContract(address)":"16279055"},"id":45}