{"abi":[{"type":"constructor","inputs":[],"stateMutability":"nonpayable"},{"type":"function","name":"BURNER_ROLE","inputs":[],"outputs":[{"name":"","type":"bytes32","internalType":"bytes32"}],"stateMutability":"view"},{"type":"function","name":"DEFAULT_ADMIN_ROLE","inputs":[],"outputs":[{"name":"","type":"bytes32","internalType":"bytes32"}],"stateMutability":"view"},{"type":"function","name":"DOMAIN_SEPARATOR","inputs":[],"outputs":[{"name":"","type":"bytes32","internalType":"bytes32"}],"stateMutability":"view"},{"type":"function","name":"MINTER_ROLE","inputs":[],"outputs":[{"name":"","type":"bytes32","internalType":"bytes32"}],"stateMutability":"view"},{"type":"function","name":"acceptDefaultAdminTransfer","inputs":[],"outputs":[],"stateMutability":"nonpayable"},{"type":"function","name":"allowance","inputs":[{"name":"owner","type":"address","internalType":"address"},{"name":"spender","type":"address","internalType":"address"}],"outputs":[{"name":"","type":"uint256","internalType":"uint256"}],"stateMutability":"view"},{"type":"function","name":"approve","inputs":[{"name":"spender","type":"address","internalType":"address"},{"name":"value","type":"uint256","internalType":"uint256"}],"outputs":[{"name":"","type":"bool","internalType":"bool"}],"stateMutability":"nonpayable"},{"type":"function","name":"balanceOf","inputs":[{"name":"account","type":"address","internalType":"address"}],"outputs":[{"name":"","type":"uint256","internalType":"uint256"}],"stateMutability":"view"},{"type":"function","name":"beginDefaultAdminTransfer","inputs":[{"name":"newAdmin","type":"address","internalType":"address"}],"outputs":[],"stateMutability":"nonpayable"},{"type":"function","name":"burn","inputs":[{"name":"amount","type":"uint256","internalType":"uint256"}],"outputs":[],"stateMutability":"nonpayable"},{"type":"function","name":"cancelDefaultAdminTransfer","inputs":[],"outputs":[],"stateMutability":"nonpayable"},{"type":"function","name":"changeDefaultAdminDelay","inputs":[{"name":"newDelay","type":"uint48","internalType":"uint48"}],"outputs":[],"stateMutability":"nonpayable"},{"type":"function","name":"decimals","inputs":[],"outputs":[{"name":"","type":"uint8","internalType":"uint8"}],"stateMutability":"view"},{"type":"function","name":"defaultAdmin","inputs":[],"outputs":[{"name":"","type":"address","internalType":"address"}],"stateMutability":"view"},{"type":"function","name":"defaultAdminDelay","inputs":[],"outputs":[{"name":"","type":"uint48","internalType":"uint48"}],"stateMutability":"view"},{"type":"function","name":"defaultAdminDelayIncreaseWait","inputs":[],"outputs":[{"name":"","type":"uint48","internalType":"uint48"}],"stateMutability":"view"},{"type":"function","name":"eip712Domain","inputs":[],"outputs":[{"name":"fields","type":"bytes1","internalType":"bytes1"},{"name":"name","type":"string","internalType":"string"},{"name":"version","type":"string","internalType":"string"},{"name":"chainId","type":"uint256","internalType":"uint256"},{"name":"verifyingContract","type":"address","internalType":"address"},{"name":"salt","type":"bytes32","internalType":"bytes32"},{"name":"extensions","type":"uint256[]","internalType":"uint256[]"}],"stateMutability":"view"},{"type":"function","name":"getRoleAdmin","inputs":[{"name":"role","type":"bytes32","internalType":"bytes32"}],"outputs":[{"name":"","type":"bytes32","internalType":"bytes32"}],"stateMutability":"view"},{"type":"function","name":"grantRole","inputs":[{"name":"role","type":"bytes32","internalType":"bytes32"},{"name":"account","type":"address","internalType":"address"}],"outputs":[],"stateMutability":"nonpayable"},{"type":"function","name":"hasRole","inputs":[{"name":"role","type":"bytes32","internalType":"bytes32"},{"name":"account","type":"address","internalType":"address"}],"outputs":[{"name":"","type":"bool","internalType":"bool"}],"stateMutability":"view"},{"type":"function","name":"mint","inputs":[{"name":"to","type":"address","internalType":"address"},{"name":"amount","type":"uint256","internalType":"uint256"}],"outputs":[],"stateMutability":"nonpayable"},{"type":"function","name":"name","inputs":[],"outputs":[{"name":"","type":"string","internalType":"string"}],"stateMutability":"view"},{"type":"function","name":"nonces","inputs":[{"name":"owner","type":"address","internalType":"address"}],"outputs":[{"name":"","type":"uint256","internalType":"uint256"}],"stateMutability":"view"},{"type":"function","name":"owner","inputs":[],"outputs":[{"name":"","type":"address","internalType":"address"}],"stateMutability":"view"},{"type":"function","name":"pendingDefaultAdmin","inputs":[],"outputs":[{"name":"newAdmin","type":"address","internalType":"address"},{"name":"schedule","type":"uint48","internalType":"uint48"}],"stateMutability":"view"},{"type":"function","name":"pendingDefaultAdminDelay","inputs":[],"outputs":[{"name":"newDelay","type":"uint48","internalType":"uint48"},{"name":"schedule","type":"uint48","internalType":"uint48"}],"stateMutability":"view"},{"type":"function","name":"permit","inputs":[{"name":"owner","type":"address","internalType":"address"},{"name":"spender","type":"address","internalType":"address"},{"name":"value","type":"uint256","internalType":"uint256"},{"name":"deadline","type":"uint256","internalType":"uint256"},{"name":"v","type":"uint8","internalType":"uint8"},{"name":"r","type":"bytes32","internalType":"bytes32"},{"name":"s","type":"bytes32","internalType":"bytes32"}],"outputs":[],"stateMutability":"nonpayable"},{"type":"function","name":"renounceRole","inputs":[{"name":"role","type":"bytes32","internalType":"bytes32"},{"name":"account","type":"address","internalType":"address"}],"outputs":[],"stateMutability":"nonpayable"},{"type":"function","name":"revokeRole","inputs":[{"name":"role","type":"bytes32","internalType":"bytes32"},{"name":"account","type":"address","internalType":"address"}],"outputs":[],"stateMutability":"nonpayable"},{"type":"function","name":"rollbackDefaultAdminDelay","inputs":[],"outputs":[],"stateMutability":"nonpayable"},{"type":"function","name":"supportsInterface","inputs":[{"name":"interfaceId","type":"bytes4","internalType":"bytes4"}],"outputs":[{"name":"","type":"bool","internalType":"bool"}],"stateMutability":"view"},{"type":"function","name":"symbol","inputs":[],"outputs":[{"name":"","type":"string","internalType":"string"}],"stateMutability":"view"},{"type":"function","name":"totalSupply","inputs":[],"outputs":[{"name":"","type":"uint256","internalType":"uint256"}],"stateMutability":"view"},{"type":"function","name":"transfer","inputs":[{"name":"to","type":"address","internalType":"address"},{"name":"value","type":"uint256","internalType":"uint256"}],"outputs":[{"name":"","type":"bool","internalType":"bool"}],"stateMutability":"nonpayable"},{"type":"function","name":"transferFrom","inputs":[{"name":"from","type":"address","internalType":"address"},{"name":"to","type":"address","internalType":"address"},{"name":"value","type":"uint256","internalType":"uint256"}],"outputs":[{"name":"","type":"bool","internalType":"bool"}],"stateMutability":"nonpayable"},{"type":"event","name":"Approval","inputs":[{"name":"owner","type":"address","indexed":true,"internalType":"address"},{"name":"spender","type":"address","indexed":true,"internalType":"address"},{"name":"value","type":"uint256","indexed":false,"internalType":"uint256"}],"anonymous":false},{"type":"event","name":"DefaultAdminDelayChangeCanceled","inputs":[],"anonymous":false},{"type":"event","name":"DefaultAdminDelayChangeScheduled","inputs":[{"name":"newDelay","type":"uint48","indexed":false,"internalType":"uint48"},{"name":"effectSchedule","type":"uint48","indexed":false,"internalType":"uint48"}],"anonymous":false},{"type":"event","name":"DefaultAdminTransferCanceled","inputs":[],"anonymous":false},{"type":"event","name":"DefaultAdminTransferScheduled","inputs":[{"name":"newAdmin","type":"address","indexed":true,"internalType":"address"},{"name":"acceptSchedule","type":"uint48","indexed":false,"internalType":"uint48"}],"anonymous":false},{"type":"event","name":"EIP712DomainChanged","inputs":[],"anonymous":false},{"type":"event","name":"RoleAdminChanged","inputs":[{"name":"role","type":"bytes32","indexed":true,"internalType":"bytes32"},{"name":"previousAdminRole","type":"bytes32","indexed":true,"internalType":"bytes32"},{"name":"newAdminRole","type":"bytes32","indexed":true,"internalType":"bytes32"}],"anonymous":false},{"type":"event","name":"RoleGranted","inputs":[{"name":"role","type":"bytes32","indexed":true,"internalType":"bytes32"},{"name":"account","type":"address","indexed":true,"internalType":"address"},{"name":"sender","type":"address","indexed":true,"internalType":"address"}],"anonymous":false},{"type":"event","name":"RoleRevoked","inputs":[{"name":"role","type":"bytes32","indexed":true,"internalType":"bytes32"},{"name":"account","type":"address","indexed":true,"internalType":"address"},{"name":"sender","type":"address","indexed":true,"internalType":"address"}],"anonymous":false},{"type":"event","name":"Transfer","inputs":[{"name":"from","type":"address","indexed":true,"internalType":"address"},{"name":"to","type":"address","indexed":true,"internalType":"address"},{"name":"value","type":"uint256","indexed":false,"internalType":"uint256"}],"anonymous":false},{"type":"error","name":"AccessControlBadConfirmation","inputs":[]},{"type":"error","name":"AccessControlEnforcedDefaultAdminDelay","inputs":[{"name":"schedule","type":"uint48","internalType":"uint48"}]},{"type":"error","name":"AccessControlEnforcedDefaultAdminRules","inputs":[]},{"type":"error","name":"AccessControlInvalidDefaultAdmin","inputs":[{"name":"defaultAdmin","type":"address","internalType":"address"}]},{"type":"error","name":"AccessControlUnauthorizedAccount","inputs":[{"name":"account","type":"address","internalType":"address"},{"name":"neededRole","type":"bytes32","internalType":"bytes32"}]},{"type":"error","name":"ECDSAInvalidSignature","inputs":[]},{"type":"error","name":"ECDSAInvalidSignatureLength","inputs":[{"name":"length","type":"uint256","internalType":"uint256"}]},{"type":"error","name":"ECDSAInvalidSignatureS","inputs":[{"name":"s","type":"bytes32","internalType":"bytes32"}]},{"type":"error","name":"ERC20InsufficientAllowance","inputs":[{"name":"spender","type":"address","internalType":"address"},{"name":"allowance","type":"uint256","internalType":"uint256"},{"name":"needed","type":"uint256","internalType":"uint256"}]},{"type":"error","name":"ERC20InsufficientBalance","inputs":[{"name":"sender","type":"address","internalType":"address"},{"name":"balance","type":"uint256","internalType":"uint256"},{"name":"needed","type":"uint256","internalType":"uint256"}]},{"type":"error","name":"ERC20InvalidApprover","inputs":[{"name":"approver","type":"address","internalType":"address"}]},{"type":"error","name":"ERC20InvalidReceiver","inputs":[{"name":"receiver","type":"address","internalType":"address"}]},{"type":"error","name":"ERC20InvalidSender","inputs":[{"name":"sender","type":"address","internalType":"address"}]},{"type":"error","name":"ERC20InvalidSpender","inputs":[{"name":"spender","type":"address","internalType":"address"}]},{"type":"error","name":"ERC2612ExpiredSignature","inputs":[{"name":"deadline","type":"uint256","internalType":"uint256"}]},{"type":"error","name":"ERC2612InvalidSigner","inputs":[{"name":"signer","type":"address","internalType":"address"},{"name":"owner","type":"address","internalType":"address"}]},{"type":"error","name":"InvalidAccountNonce","inputs":[{"name":"account","type":"address","internalType":"address"},{"name":"currentNonce","type":"uint256","internalType":"uint256"}]},{"type":"error","name":"InvalidShortString","inputs":[]},{"type":"error","name":"MinterRoleRequired","inputs":[]},{"type":"error","name":"SafeCastOverflowedUintDowncast","inputs":[{"name":"bits","type":"uint8","internalType":"uint8"},{"name":"value","type":"uint256","internalType":"uint256"}]},{"type":"error","name":"StringTooLong","inputs":[{"name":"str","type":"string","internalType":"string"}]}],"bytecode":{"object":"0x6101606040523480156200001257600080fd5b5060003360405180604001604052806007815260200166111c9bdc1b195d60ca1b81525060405180604001604052806004815260200163044524f560e41b81525081604051806040016040528060018152602001603160f81b81525083838160039081620000819190620003fa565b506004620000908282620003fa565b50620000a291508390506005620001b1565b61012052620000b3816006620001b1565b61014052815160208084019190912060e052815190820120610100524660a0526200014160e05161010051604080517f8b73c3c69bb8fe3d512ecc4cf759cc79239f7b179b0ffacaa9a75d522b39400f60208201529081019290925260608201524660808201523060a082015260009060c00160405160208183030381529060405280519060200120905090565b60805250503060c05250506001600160a01b0381166200017c57604051636116401160e11b8152600060048201526024015b60405180910390fd5b600980546001600160d01b0316600160d01b65ffffffffffff851602179055620001a8600082620001ea565b5050506200053c565b6000602083511015620001d157620001c9836200025e565b9050620001e4565b81620001de8482620003fa565b5060ff90505b92915050565b6000826200024b57600062000207600a546001600160a01b031690565b6001600160a01b0316146200022f57604051631fe1e13d60e11b815260040160405180910390fd5b600a80546001600160a01b0319166001600160a01b0384161790555b620002578383620002a1565b9392505050565b600080829050601f815111156200028c578260405163305a27a960e01b8152600401620001739190620004c6565b8051620002998262000517565b179392505050565b60008281526008602090815260408083206001600160a01b038516845290915281205460ff166200034a5760008381526008602090815260408083206001600160a01b03861684529091529020805460ff19166001179055620003013390565b6001600160a01b0316826001600160a01b0316847f2f8788117e7eff1d82e926ec794901d17c78024a50270940304540a733656f0d60405160405180910390a4506001620001e4565b506000620001e4565b634e487b7160e01b600052604160045260246000fd5b600181811c908216806200037e57607f821691505b6020821081036200039f57634e487b7160e01b600052602260045260246000fd5b50919050565b601f821115620003f5576000816000526020600020601f850160051c81016020861015620003d05750805b601f850160051c820191505b81811015620003f157828155600101620003dc565b5050505b505050565b81516001600160401b0381111562000416576200041662000353565b6200042e8162000427845462000369565b84620003a5565b602080601f8311600181146200046657600084156200044d5750858301515b600019600386901b1c1916600185901b178555620003f1565b600085815260208120601f198616915b82811015620004975788860151825594840194600190910190840162000476565b5085821015620004b65787850151600019600388901b60f8161c191681555b5050505050600190811b01905550565b60006020808352835180602085015260005b81811015620004f657858101830151858201604001528201620004d8565b506000604082860101526040601f19601f8301168501019250505092915050565b805160208083015191908110156200039f5760001960209190910360031b1b16919050565b60805160a05160c05160e051610100516101205161014051611cfd620005976000396000610fa901526000610f7c01526000610da201526000610d7a01526000610cd501526000610cff01526000610d290152611cfd6000f3fe608060405234801561001057600080fd5b50600436106102115760003560e01c806370a0823111610125578063a9059cbb116100ad578063d505accf1161007c578063d505accf146104a3578063d5391393146104b6578063d547741f146104dd578063d602b9fd146104f0578063dd62ed3e146104f857600080fd5b8063a9059cbb14610452578063cc8463c814610465578063cefc14291461046d578063cf6eefb71461047557600080fd5b80638da5cb5b116100f45780638da5cb5b1461040057806391d148541461040857806395d89b411461041b578063a1eda53c14610423578063a217fddf1461044a57600080fd5b806370a08231146103845780637ecebe00146103ad57806384b0196e146103c057806384ef8ffc146103db57600080fd5b8063282c51f3116101a857806336568abe1161017757806336568abe1461032557806340c10f191461033857806342966c681461034b578063634e93da1461035e578063649a5ec71461037157600080fd5b8063282c51f3146102d45780632f2ff15d146102fb578063313ce5671461030e5780633644e5151461031d57600080fd5b80630aa6220b116101e45780630aa6220b1461028257806318160ddd1461028c57806323b872dd1461029e578063248a9ca3146102b157600080fd5b806301ffc9a714610216578063022d63fb1461023e57806306fdde031461025a578063095ea7b31461026f575b600080fd5b610229610224366004611946565b610531565b60405190151581526020015b60405180910390f35b620697805b60405165ffffffffffff9091168152602001610235565b61026261055c565b60405161023591906119b6565b61022961027d3660046119e5565b6105ee565b61028a610606565b005b6002545b604051908152602001610235565b6102296102ac366004611a0f565b61061c565b6102906102bf366004611a4b565b60009081526008602052604090206001015490565b6102907f3c11d16cbaffd01df69ce1c404f6340ee057498f5f00246190ea54220576a84881565b61028a610309366004611a64565b610640565b60405160128152602001610235565b61029061066c565b61028a610333366004611a64565b61067b565b61028a6103463660046119e5565b610727565b61028a610359366004611a4b565b610794565b61028a61036c366004611a90565b6107fc565b61028a61037f366004611aab565b610810565b610290610392366004611a90565b6001600160a01b031660009081526020819052604090205490565b6102906103bb366004611a90565b610824565b6103c8610842565b6040516102359796959493929190611ad3565b600a546001600160a01b03165b6040516001600160a01b039091168152602001610235565b6103e8610888565b610229610416366004611a64565b61089c565b6102626108c7565b61042b6108d6565b6040805165ffffffffffff938416815292909116602083015201610235565b610290600081565b6102296104603660046119e5565b61092a565b610243610938565b61028a610997565b61047d6109d7565b604080516001600160a01b03909316835265ffffffffffff909116602083015201610235565b61028a6104b1366004611b6c565b6109f8565b6102907f9f2df0fed2c77648de5860a4cc508cd0818c85b8b8a1ab4ceeef8d981c8956a681565b61028a6104eb366004611a64565b610b32565b61028a610b5a565b610290610506366004611bdf565b6001600160a01b03918216600090815260016020908152604080832093909416825291909152205490565b60006001600160e01b031982166318a4c3c360e11b1480610556575061055682610b6d565b92915050565b60606003805461056b90611c09565b80601f016020809104026020016040519081016040528092919081815260200182805461059790611c09565b80156105e45780601f106105b9576101008083540402835291602001916105e4565b820191906000526020600020905b8154815290600101906020018083116105c757829003601f168201915b5050505050905090565b6000336105fc818585610ba2565b5060019392505050565b600061061181610baf565b610619610bb9565b50565b60003361062a858285610bc6565b610635858585610c44565b506001949350505050565b8161065e57604051631fe1e13d60e11b815260040160405180910390fd5b6106688282610ca3565b5050565b6000610676610cc8565b905090565b811580156106965750600a546001600160a01b038281169116145b1561071d576000806106a66109d7565b90925090506001600160a01b0382161515806106c8575065ffffffffffff8116155b806106db57504265ffffffffffff821610155b15610708576040516319ca5ebb60e01b815265ffffffffffff821660048201526024015b60405180910390fd5b50506009805465ffffffffffff60a01b191690555b6106688282610df3565b7f9f2df0fed2c77648de5860a4cc508cd0818c85b8b8a1ab4ceeef8d981c8956a6610752813361089c565b158015610767575061076560003361089c565b155b1561078557604051631dcd603760e01b815260040160405180910390fd5b61078f8383610e26565b505050565b7f3c11d16cbaffd01df69ce1c404f6340ee057498f5f00246190ea54220576a8486107bf813361089c565b1580156107d457506107d260003361089c565b155b156107f257604051631dcd603760e01b815260040160405180910390fd5b6106683383610e5c565b600061080781610baf565b61066882610e92565b600061081b81610baf565b61066882610f05565b6001600160a01b038116600090815260076020526040812054610556565b600060608060008060006060610856610f75565b61085e610fa2565b60408051600080825260208201909252600f60f81b9b939a50919850469750309650945092509050565b6000610676600a546001600160a01b031690565b60009182526008602090815260408084206001600160a01b0393909316845291905290205460ff1690565b60606004805461056b90611c09565b600a54600090600160d01b900465ffffffffffff16801515801561090257504265ffffffffffff821610155b61090e57600080610922565b600a54600160a01b900465ffffffffffff16815b915091509091565b6000336105fc818585610c44565b600a54600090600160d01b900465ffffffffffff16801515801561096357504265ffffffffffff8216105b61097e57600954600160d01b900465ffffffffffff16610991565b600a54600160a01b900465ffffffffffff165b91505090565b60006109a16109d7565b509050336001600160a01b038216146109cf57604051636116401160e11b81523360048201526024016106ff565b610619610fcf565b6009546001600160a01b03811691600160a01b90910465ffffffffffff1690565b83421115610a1c5760405163313c898160e11b8152600481018590526024016106ff565b60007f6e71edae12b1b97f4d1f60370fef10105fa2faae0126114a169c64845d6126c9888888610a698c6001600160a01b0316600090815260076020526040902080546001810190915590565b6040805160208101969096526001600160a01b0394851690860152929091166060840152608083015260a082015260c0810186905260e0016040516020818303038152906040528051906020012090506000610ac482611068565b90506000610ad482878787611095565b9050896001600160a01b0316816001600160a01b031614610b1b576040516325c0072360e11b81526001600160a01b0380831660048301528b1660248201526044016106ff565b610b268a8a8a610ba2565b50505050505050505050565b81610b5057604051631fe1e13d60e11b815260040160405180910390fd5b61066882826110c3565b6000610b6581610baf565b6106196110e8565b60006001600160e01b03198216637965db0b60e01b148061055657506301ffc9a760e01b6001600160e01b0319831614610556565b61078f83838360016110f3565b61061981336111c8565b610bc4600080611201565b565b6001600160a01b038381166000908152600160209081526040808320938616835292905220546000198114610c3e5781811015610c2f57604051637dc7a0d960e11b81526001600160a01b038416600482015260248101829052604481018390526064016106ff565b610c3e848484840360006110f3565b50505050565b6001600160a01b038316610c6e57604051634b637e8f60e11b8152600060048201526024016106ff565b6001600160a01b038216610c985760405163ec442f0560e01b8152600060048201526024016106ff565b61078f8383836112c1565b600082815260086020526040902060010154610cbe81610baf565b610c3e83836113eb565b6000306001600160a01b037f000000000000000000000000000000000000000000000000000000000000000016148015610d2157507f000000000000000000000000000000000000000000000000000000000000000046145b15610d4b57507f000000000000000000000000000000000000000000000000000000000000000090565b610676604080517f8b73c3c69bb8fe3d512ecc4cf759cc79239f7b179b0ffacaa9a75d522b39400f60208201527f0000000000000000000000000000000000000000000000000000000000000000918101919091527f000000000000000000000000000000000000000000000000000000000000000060608201524660808201523060a082015260009060c00160405160208183030381529060405280519060200120905090565b6001600160a01b0381163314610e1c5760405163334bd91960e11b815260040160405180910390fd5b61078f828261145a565b6001600160a01b038216610e505760405163ec442f0560e01b8152600060048201526024016106ff565b610668600083836112c1565b6001600160a01b038216610e8657604051634b637e8f60e11b8152600060048201526024016106ff565b610668826000836112c1565b6000610e9c610938565b610ea542611497565b610eaf9190611c59565b9050610ebb82826114ce565b60405165ffffffffffff821681526001600160a01b038316907f3377dc44241e779dd06afab5b788a35ca5f3b778836e2990bdb26a2a4b2e5ed69060200160405180910390a25050565b6000610f108261154d565b610f1942611497565b610f239190611c59565b9050610f2f8282611201565b6040805165ffffffffffff8085168252831660208201527ff1038c18cf84a56e432fdbfaf746924b7ea511dfe03a6506a0ceba4888788d9b910160405180910390a15050565b60606106767f00000000000000000000000000000000000000000000000000000000000000006005611595565b60606106767f00000000000000000000000000000000000000000000000000000000000000006006611595565b600080610fda6109d7565b91509150610fef8165ffffffffffff16151590565b158061100357504265ffffffffffff821610155b1561102b576040516319ca5ebb60e01b815265ffffffffffff821660048201526024016106ff565b6110476000611042600a546001600160a01b031690565b61145a565b506110536000836113eb565b5050600980546001600160d01b031916905550565b6000610556611075610cc8565b8360405161190160f01b8152600281019290925260228201526042902090565b6000806000806110a788888888611640565b9250925092506110b7828261170f565b50909695505050505050565b6000828152600860205260409020600101546110de81610baf565b610c3e838361145a565b610bc46000806114ce565b6001600160a01b03841661111d5760405163e602df0560e01b8152600060048201526024016106ff565b6001600160a01b03831661114757604051634a1406b160e11b8152600060048201526024016106ff565b6001600160a01b0380851660009081526001602090815260408083209387168352929052208290558015610c3e57826001600160a01b0316846001600160a01b03167f8c5be1e5ebec7d5bd14f71427d1e84f3dd0314c0f7b2291e5b200ac8c7c3b925846040516111ba91815260200190565b60405180910390a350505050565b6111d2828261089c565b6106685760405163e2517d3f60e01b81526001600160a01b0382166004820152602481018390526044016106ff565b600a54600160d01b900465ffffffffffff168015611284574265ffffffffffff8216101561125a57600a54600980546001600160d01b0316600160a01b90920465ffffffffffff16600160d01b02919091179055611284565b6040517f2b1fa2edafe6f7b9e97c1a9e0c3660e645beb2dcaa2d45bdbf9beaf5472e1ec590600090a15b50600a80546001600160a01b0316600160a01b65ffffffffffff948516026001600160d01b031617600160d01b9290931691909102919091179055565b6001600160a01b0383166112ec5780600260008282546112e19190611c7f565b9091555061135e9050565b6001600160a01b0383166000908152602081905260409020548181101561133f5760405163391434e360e21b81526001600160a01b038516600482015260248101829052604481018390526064016106ff565b6001600160a01b03841660009081526020819052604090209082900390555b6001600160a01b03821661137a57600280548290039055611399565b6001600160a01b03821660009081526020819052604090208054820190555b816001600160a01b0316836001600160a01b03167fddf252ad1be2c89b69c2b068fc378daa952ba7f163c4a11628f55a4df523b3ef836040516113de91815260200190565b60405180910390a3505050565b600082611449576000611406600a546001600160a01b031690565b6001600160a01b03161461142d57604051631fe1e13d60e11b815260040160405180910390fd5b600a80546001600160a01b0319166001600160a01b0384161790555b61145383836117c8565b9392505050565b6000821580156114775750600a546001600160a01b038381169116145b1561148d57600a80546001600160a01b03191690555b611453838361185c565b600065ffffffffffff8211156114ca576040516306dfcc6560e41b815260306004820152602481018390526044016106ff565b5090565b60006114d86109d7565b6009805465ffffffffffff8616600160a01b026001600160d01b03199091166001600160a01b03881617179055915061151a90508165ffffffffffff16151590565b1561078f576040517f8886ebfc4259abdbc16601dd8fb5678e54878f47b3c34836cfc51154a960510990600090a1505050565b600080611558610938565b90508065ffffffffffff168365ffffffffffff16116115805761157b8382611c92565b611453565b61145365ffffffffffff8416620697806118c9565b606060ff83146115af576115a8836118df565b9050610556565b8180546115bb90611c09565b80601f01602080910402602001604051908101604052809291908181526020018280546115e790611c09565b80156116345780601f1061160957610100808354040283529160200191611634565b820191906000526020600020905b81548152906001019060200180831161161757829003601f168201915b50505050509050610556565b600080807f7fffffffffffffffffffffffffffffff5d576e7357a4501ddfe92f46681b20a084111561167b5750600091506003905082611705565b604080516000808252602082018084528a905260ff891692820192909252606081018790526080810186905260019060a0016020604051602081039080840390855afa1580156116cf573d6000803e3d6000fd5b5050604051601f1901519150506001600160a01b0381166116fb57506000925060019150829050611705565b9250600091508190505b9450945094915050565b600082600381111561172357611723611cb1565b0361172c575050565b600182600381111561174057611740611cb1565b0361175e5760405163f645eedf60e01b815260040160405180910390fd5b600282600381111561177257611772611cb1565b036117935760405163fce698f760e01b8152600481018290526024016106ff565b60038260038111156117a7576117a7611cb1565b03610668576040516335e2f38360e21b8152600481018290526024016106ff565b60006117d4838361089c565b6118545760008381526008602090815260408083206001600160a01b03861684529091529020805460ff1916600117905561180c3390565b6001600160a01b0316826001600160a01b0316847f2f8788117e7eff1d82e926ec794901d17c78024a50270940304540a733656f0d60405160405180910390a4506001610556565b506000610556565b6000611868838361089c565b156118545760008381526008602090815260408083206001600160a01b0386168085529252808320805460ff1916905551339286917ff6391f5c32d9c69d2a47ea670b442974b53935d1edc7fd64eb21e047a839171b9190a4506001610556565b60008183106118d85781611453565b5090919050565b606060006118ec8361191e565b604080516020808252818301909252919250600091906020820181803683375050509182525060208101929092525090565b600060ff8216601f81111561055657604051632cd44ac360e21b815260040160405180910390fd5b60006020828403121561195857600080fd5b81356001600160e01b03198116811461145357600080fd5b6000815180845260005b818110156119965760208185018101518683018201520161197a565b506000602082860101526020601f19601f83011685010191505092915050565b6020815260006114536020830184611970565b80356001600160a01b03811681146119e057600080fd5b919050565b600080604083850312156119f857600080fd5b611a01836119c9565b946020939093013593505050565b600080600060608486031215611a2457600080fd5b611a2d846119c9565b9250611a3b602085016119c9565b9150604084013590509250925092565b600060208284031215611a5d57600080fd5b5035919050565b60008060408385031215611a7757600080fd5b82359150611a87602084016119c9565b90509250929050565b600060208284031215611aa257600080fd5b611453826119c9565b600060208284031215611abd57600080fd5b813565ffffffffffff8116811461145357600080fd5b60ff60f81b881681526000602060e06020840152611af460e084018a611970565b8381036040850152611b06818a611970565b606085018990526001600160a01b038816608086015260a0850187905284810360c08601528551808252602080880193509091019060005b81811015611b5a57835183529284019291840191600101611b3e565b50909c9b505050505050505050505050565b600080600080600080600060e0888a031215611b8757600080fd5b611b90886119c9565b9650611b9e602089016119c9565b95506040880135945060608801359350608088013560ff81168114611bc257600080fd5b9699959850939692959460a0840135945060c09093013592915050565b60008060408385031215611bf257600080fd5b611bfb836119c9565b9150611a87602084016119c9565b600181811c90821680611c1d57607f821691505b602082108103611c3d57634e487b7160e01b600052602260045260246000fd5b50919050565b634e487b7160e01b600052601160045260246000fd5b65ffffffffffff818116838216019080821115611c7857611c78611c43565b5092915050565b8082018082111561055657610556611c43565b65ffffffffffff828116828216039080821115611c7857611c78611c43565b634e487b7160e01b600052602160045260246000fdfea2646970667358221220bc43d42526a019a8afb1ae341947c2737db7f36be98d22e1bbe4d73346358f1264736f6c63430008180033","linkReferences":{}},"methodIdentifiers":{"BURNER_ROLE()":"282c51f3","DEFAULT_ADMIN_ROLE()":"a217fddf","DOMAIN_SEPARATOR()":"3644e515","MINTER_ROLE()":"d5391393","acceptDefaultAdminTransfer()":"cefc1429","allowance(address,address)":"dd62ed3e","approve(address,uint256)":"095ea7b3","balanceOf(address)":"70a08231","beginDefaultAdminTransfer(address)":"634e93da","burn(uint256)":"42966c68","cancelDefaultAdminTransfer()":"d602b9fd","changeDefaultAdminDelay(uint48)":"649a5ec7","decimals()":"313ce567","defaultAdmin()":"84ef8ffc","defaultAdminDelay()":"cc8463c8","defaultAdminDelayIncreaseWait()":"022d63fb","eip712Domain()":"84b0196e","getRoleAdmin(bytes32)":"248a9ca3","grantRole(bytes32,address)":"2f2ff15d","hasRole(bytes32,address)":"91d14854","mint(address,uint256)":"40c10f19","name()":"06fdde03","nonces(address)":"7ecebe00","owner()":"8da5cb5b","pendingDefaultAdmin()":"cf6eefb7","pendingDefaultAdminDelay()":"a1eda53c","permit(address,address,uint256,uint256,uint8,bytes32,bytes32)":"d505accf","renounceRole(bytes32,address)":"36568abe","revokeRole(bytes32,address)":"d547741f","rollbackDefaultAdminDelay()":"0aa6220b","supportsInterface(bytes4)":"01ffc9a7","symbol()":"95d89b41","totalSupply()":"18160ddd","transfer(address,uint256)":"a9059cbb","transferFrom(address,address,uint256)":"23b872dd"},"id":48}