{"abi":[{"type":"constructor","inputs":[{"name":"_DOMAIN_SEPARATOR","type":"bytes32","internalType":"bytes32"}],"stateMutability":"nonpayable"},{"type":"function","name":"PERMIT_TYPEHASH","inputs":[],"outputs":[{"name":"","type":"bytes32","internalType":"bytes32"}],"stateMutability":"view"},{"type":"function","name":"getTypedDataHash","inputs":[{"name":"_permit","type":"tuple","internalType":"struct SigUtilsPermit.Permit","components":[{"name":"owner","type":"address","internalType":"address"},{"name":"spender","type":"address","internalType":"address"},{"name":"value","type":"uint256","internalType":"uint256"},{"name":"nonce","type":"uint256","internalType":"uint256"},{"name":"deadline","type":"uint256","internalType":"uint256"}]}],"outputs":[{"name":"","type":"bytes32","internalType":"bytes32"}],"stateMutability":"view"}],"bytecode":{"object":"0x608060405234801561001057600080fd5b5060405161028438038061028483398101604081905261002f91610037565b600055610050565b60006020828403121561004957600080fd5b5051919050565b6102258061005f6000396000f3fe608060405234801561001057600080fd5b50600436106100365760003560e01c806330adf81f1461003b578063ba20b89d14610074575b600080fd5b6100627f6e71edae12b1b97f4d1f60370fef10105fa2faae0126114a169c64845d6126c981565b60405190815260200160405180910390f35b610062610082366004610165565b6000805461008f836100cb565b60405161190160f01b6020820152602281019290925260428201526062015b604051602081830303815290604052805190602001209050919050565b80516020808301516040808501516060860151608087015192516000966100ae967f6e71edae12b1b97f4d1f60370fef10105fa2faae0126114a169c64845d6126c996919591949392019586526001600160a01b0394851660208701529290931660408501526060840152608083019190915260a082015260c00190565b80356001600160a01b038116811461016057600080fd5b919050565b600060a0828403121561017757600080fd5b60405160a0810181811067ffffffffffffffff821117156101a857634e487b7160e01b600052604160045260246000fd5b6040526101b483610149565b81526101c260208401610149565b6020820152604083013560408201526060830135606082015260808301356080820152809150509291505056fea264697066735822122001a639458e9fe1920386cc59ac30aebcb231b38f6d0755ba334dc99c39da61d164736f6c63430008180033","linkReferences":{}},"methodIdentifiers":{"PERMIT_TYPEHASH()":"30adf81f","getTypedDataHash((address,address,uint256,uint256,uint256))":"ba20b89d"},"id":59}