{"abi":[{"type":"constructor","inputs":[],"stateMutability":"nonpayable"},{"type":"function","name":"DOMAIN_SEPARATOR","inputs":[],"outputs":[{"name":"","type":"bytes32","internalType":"bytes32"}],"stateMutability":"view"},{"type":"function","name":"balanceOf","inputs":[{"name":"token","type":"address","internalType":"address"}],"outputs":[{"name":"","type":"uint256","internalType":"uint256"}],"stateMutability":"view"},{"type":"function","name":"balanceOfAll","inputs":[],"outputs":[{"name":"","type":"tuple[]","internalType":"struct DropletClaim.Balance[]","components":[{"name":"token","type":"address","internalType":"address"},{"name":"amount","type":"uint256","internalType":"uint256"}]}],"stateMutability":"view"},{"type":"function","name":"claim","inputs":[{"name":"amount","type":"uint256","internalType":"uint256"},{"name":"token","type":"address","internalType":"address"},{"name":"signature","type":"bytes","internalType":"bytes"}],"outputs":[{"name":"","type":"bool","internalType":"bool"}],"stateMutability":"nonpayable"},{"type":"function","name":"depositMany","inputs":[{"name":"tokens","type":"address[]","internalType":"address[]"},{"name":"amounts","type":"uint256[]","internalType":"uint256[]"}],"outputs":[],"stateMutability":"nonpayable"},{"type":"function","name":"depositManySig","inputs":[{"name":"tokens","type":"address[]","internalType":"address[]"},{"name":"amounts","type":"uint256[]","internalType":"uint256[]"},{"name":"signatures","type":"bytes[]","internalType":"bytes[]"},{"name":"deadlines","type":"uint256[]","internalType":"uint256[]"}],"outputs":[],"stateMutability":"nonpayable"},{"type":"function","name":"depositToken","inputs":[{"name":"token","type":"address","internalType":"address"},{"name":"amount","type":"uint256","internalType":"uint256"}],"outputs":[{"name":"","type":"bool","internalType":"bool"}],"stateMutability":"nonpayable"},{"type":"function","name":"depositTokenSig","inputs":[{"name":"token","type":"address","internalType":"address"},{"name":"amount","type":"uint256","internalType":"uint256"},{"name":"signature","type":"bytes","internalType":"bytes"},{"name":"deadline","type":"uint256","internalType":"uint256"}],"outputs":[{"name":"","type":"bool","internalType":"bool"}],"stateMutability":"nonpayable"},{"type":"function","name":"eip712Domain","inputs":[],"outputs":[{"name":"fields","type":"bytes1","internalType":"bytes1"},{"name":"name","type":"string","internalType":"string"},{"name":"version","type":"string","internalType":"string"},{"name":"chainId","type":"uint256","internalType":"uint256"},{"name":"verifyingContract","type":"address","internalType":"address"},{"name":"salt","type":"bytes32","internalType":"bytes32"},{"name":"extensions","type":"uint256[]","internalType":"uint256[]"}],"stateMutability":"view"},{"type":"function","name":"listOfTokens","inputs":[{"name":"","type":"uint256","internalType":"uint256"}],"outputs":[{"name":"","type":"address","internalType":"address"}],"stateMutability":"view"},{"type":"function","name":"nonces","inputs":[{"name":"owner","type":"address","internalType":"address"}],"outputs":[{"name":"","type":"uint256","internalType":"uint256"}],"stateMutability":"view"},{"type":"function","name":"owner","inputs":[],"outputs":[{"name":"","type":"address","internalType":"address"}],"stateMutability":"view"},{"type":"function","name":"renounceOwnership","inputs":[],"outputs":[],"stateMutability":"nonpayable"},{"type":"function","name":"tokenRegistered","inputs":[{"name":"","type":"address","internalType":"address"}],"outputs":[{"name":"","type":"bool","internalType":"bool"}],"stateMutability":"view"},{"type":"function","name":"transferOwnership","inputs":[{"name":"newOwner","type":"address","internalType":"address"}],"outputs":[],"stateMutability":"nonpayable"},{"type":"function","name":"withdrawAll","inputs":[],"outputs":[],"stateMutability":"nonpayable"},{"type":"function","name":"withdrawToken","inputs":[{"name":"token","type":"address","internalType":"address"},{"name":"amount","type":"uint256","internalType":"uint256"},{"name":"all","type":"bool","internalType":"bool"}],"outputs":[],"stateMutability":"nonpayable"},{"type":"event","name":"Claimed","inputs":[{"name":"from","type":"address","indexed":true,"internalType":"address"},{"name":"amount","type":"uint256","indexed":false,"internalType":"uint256"},{"name":"token","type":"address","indexed":true,"internalType":"address"},{"name":"nonce","type":"uint256","indexed":false,"internalType":"uint256"}],"anonymous":false},{"type":"event","name":"Deposited","inputs":[{"name":"from","type":"address","indexed":true,"internalType":"address"},{"name":"amount","type":"uint256","indexed":false,"internalType":"uint256"},{"name":"token","type":"address","indexed":true,"internalType":"address"}],"anonymous":false},{"type":"event","name":"EIP712DomainChanged","inputs":[],"anonymous":false},{"type":"event","name":"OwnershipTransferred","inputs":[{"name":"previousOwner","type":"address","indexed":true,"internalType":"address"},{"name":"newOwner","type":"address","indexed":true,"internalType":"address"}],"anonymous":false},{"type":"event","name":"Withdrawn","inputs":[{"name":"to","type":"address","indexed":true,"internalType":"address"},{"name":"amount","type":"uint256","indexed":false,"internalType":"uint256"},{"name":"token","type":"address","indexed":true,"internalType":"address"}],"anonymous":false},{"type":"error","name":"ECDSAInvalidSignature","inputs":[]},{"type":"error","name":"ECDSAInvalidSignatureLength","inputs":[{"name":"length","type":"uint256","internalType":"uint256"}]},{"type":"error","name":"ECDSAInvalidSignatureS","inputs":[{"name":"s","type":"bytes32","internalType":"bytes32"}]},{"type":"error","name":"InvalidAccountNonce","inputs":[{"name":"account","type":"address","internalType":"address"},{"name":"currentNonce","type":"uint256","internalType":"uint256"}]},{"type":"error","name":"InvalidShortString","inputs":[]},{"type":"error","name":"OwnableInvalidOwner","inputs":[{"name":"owner","type":"address","internalType":"address"}]},{"type":"error","name":"OwnableUnauthorizedAccount","inputs":[{"name":"account","type":"address","internalType":"address"}]},{"type":"error","name":"StringTooLong","inputs":[{"name":"str","type":"string","internalType":"string"}]}],"bytecode":{"object":"0x6101606040523480156200001257600080fd5b50604080518082018252600c81526b44726f706c6574436c61696d60a01b602080830191909152825180840190935260018352603160f81b908301529033806200007757604051631e4fbdf760e01b8152600060048201526024015b60405180910390fd5b62000082816200013e565b50620000908260016200018e565b61012052620000a18160026200018e565b61014052815160208084019190912060e052815190820120610100524660a0526200012f60e05161010051604080517f8b73c3c69bb8fe3d512ecc4cf759cc79239f7b179b0ffacaa9a75d522b39400f60208201529081019290925260608201524660808201523060a082015260009060c00160405160208183030381529060405280519060200120905090565b60805250503060c052620003f3565b600080546001600160a01b038381166001600160a01b0319831681178455604051919092169283917f8be0079c531659141344cd1fd0a4f28419497f9722a3daafe3b4186f6b6457e09190a35050565b6000602083511015620001ae57620001a683620001c7565b9050620001c1565b81620001bb8482620002b1565b5060ff90505b92915050565b600080829050601f81511115620001f5578260405163305a27a960e01b81526004016200006e91906200037d565b80516200020282620003ce565b179392505050565b634e487b7160e01b600052604160045260246000fd5b600181811c908216806200023557607f821691505b6020821081036200025657634e487b7160e01b600052602260045260246000fd5b50919050565b601f821115620002ac576000816000526020600020601f850160051c81016020861015620002875750805b601f850160051c820191505b81811015620002a85782815560010162000293565b5050505b505050565b81516001600160401b03811115620002cd57620002cd6200020a565b620002e581620002de845462000220565b846200025c565b602080601f8311600181146200031d5760008415620003045750858301515b600019600386901b1c1916600185901b178555620002a8565b600085815260208120601f198616915b828110156200034e578886015182559484019460019091019084016200032d565b50858210156200036d5787850151600019600388901b60f8161c191681555b5050505050600190811b01905550565b60006020808352835180602085015260005b81811015620003ad578581018301518582016040015282016200038f565b506000604082860101526040601f19601f8301168501019250505092915050565b80516020808301519190811015620002565760001960209190910360031b1b16919050565b60805160a05160c05160e051610100516101205161014051611ce06200044e60003960006112a501526000611278015260006111d0015260006111a8015260006111030152600061112d015260006111570152611ce06000f3fe608060405234801561001057600080fd5b506004361061010b5760003560e01c8063715018a6116100a25780638da5cb5b116100715780638da5cb5b14610234578063a2e1ce6214610245578063ecbd45af14610268578063ef1f1a161461027b578063f2fde38b1461028e57600080fd5b8063715018a6146101e05780637ecebe00146101e857806384b0196e14610211578063853828b61461022c57600080fd5b8063338b5dea116100de578063338b5dea146101815780633644e515146101a4578063638c079a146101ba57806370a08231146101cd57600080fd5b8063186ea66f14610110578063208e509f14610125578063256a1a03146101435780632ad62d511461016e575b600080fd5b61012361011e3660046116a5565b6102a1565b005b61012d610415565b60405161013a91906116e5565b60405180910390f35b61015661015136600461173d565b61059d565b6040516001600160a01b03909116815260200161013a565b61012361017c3660046117a2565b6105c7565b61019461018f366004611866565b6106fd565b604051901515815260200161013a565b6101ac610881565b60405190815260200161013a565b6101236101c8366004611890565b610890565b6101ac6101db3660046118fc565b61096f565b6101236109da565b6101ac6101f63660046118fc565b6001600160a01b031660009081526003602052604090205490565b6102196109ee565b60405161013a9796959493929190611964565b610123610a34565b6000546001600160a01b0316610156565b6101946102533660046118fc565b60056020526000908152604090205460ff1681565b610194610276366004611a13565b610bce565b610194610289366004611ade565b610e32565b61012361029c3660046118fc565b61108b565b6102a96110c9565b801561031a576040516370a0823160e01b81523060048201526001600160a01b038416906370a0823190602401602060405180830381865afa1580156102f3573d6000803e3d6000fd5b505050506040513d601f19601f820116820180604052508101906103179190611b6d565b91505b600082116103435760405162461bcd60e51b815260040161033a90611b86565b60405180910390fd5b60405163a9059cbb60e01b8152336004820152602481018390526001600160a01b0384169063a9059cbb906044016020604051808303816000875af1158015610390573d6000803e3d6000fd5b505050506040513d601f19601f820116820180604052508101906103b49190611bbd565b6103d05760405162461bcd60e51b815260040161033a90611bda565b6040518281526001600160a01b0384169033907fcbcdbdf10631a43cc99c80acace8232649421c3f4f73919f16013d47c83a687a9060200160405180910390a3505050565b60045460609060009067ffffffffffffffff811115610436576104366119fd565b60405190808252806020026020018201604052801561047b57816020015b60408051808201909152600080825260208201528152602001906001900390816104545790505b50905060005b600454811015610597576004818154811061049e5761049e611c03565b9060005260206000200160009054906101000a90046001600160a01b03168282815181106104ce576104ce611c03565b60209081029190910101516001600160a01b03909116905260048054829081106104fa576104fa611c03565b6000918252602090912001546040516370a0823160e01b81523060048201526001600160a01b03909116906370a0823190602401602060405180830381865afa15801561054b573d6000803e3d6000fd5b505050506040513d601f19601f8201168201806040525081019061056f9190611b6d565b82828151811061058157610581611c03565b6020908102919091018101510152600101610481565b50919050565b600481815481106105ad57600080fd5b6000918252602090912001546001600160a01b0316905081565b86851480156105d557508281145b80156105e057508683145b61061d5760405162461bcd60e51b815260206004820152600e60248201526d0aadccae2eac2d840d8cadccee8d60931b604482015260640161033a565b60005b878110156106f2576106ad89898381811061063d5761063d611c03565b905060200201602081019061065291906118fc565b88888481811061066457610664611c03565b9050602002013587878581811061067d5761067d611c03565b905060200281019061068f9190611c19565b8787878181106106a1576106a1611c03565b90506020020135610e32565b6106ea5760405162461bcd60e51b815260206004820152600e60248201526d11195c1bdcda5d0819985a5b195960921b604482015260640161033a565b600101610620565b505050505050505050565b600080821161071e5760405162461bcd60e51b815260040161033a90611b86565b6001600160a01b03831660009081526005602052604090205460ff166107a4576001600160a01b0383166000818152600560205260408120805460ff191660019081179091556004805491820181559091527f8a35acfbc15ff81a39ae7d344fd709f28e8600b4aa8c65c6b64bfe7fe36bd19b0180546001600160a01b03191690911790555b6040516323b872dd60e01b8152336004820152306024820152604481018390526001600160a01b038416906323b872dd906064016020604051808303816000875af11580156107f7573d6000803e3d6000fd5b505050506040513d601f19601f8201168201806040525081019061081b9190611bbd565b6108375760405162461bcd60e51b815260040161033a90611bda565b6040518281526001600160a01b0384169033907fb4e1304f97b5093610f51b33ddab6622388422e2dac138b0d32f93dcfbd39edf9060200160405180910390a35060015b92915050565b600061088b6110f6565b905090565b8281146108d05760405162461bcd60e51b815260206004820152600e60248201526d0aadccae2eac2d840d8cadccee8d60931b604482015260640161033a565b60005b83811015610968576109238585838181106108f0576108f0611c03565b905060200201602081019061090591906118fc565b84848481811061091757610917611c03565b905060200201356106fd565b6109605760405162461bcd60e51b815260206004820152600e60248201526d11195c1bdcda5d0819985a5b195960921b604482015260640161033a565b6001016108d3565b5050505050565b6040516370a0823160e01b81523060048201526000906001600160a01b038316906370a0823190602401602060405180830381865afa1580156109b6573d6000803e3d6000fd5b505050506040513d601f19601f8201168201806040525081019061087b9190611b6d565b6109e26110c9565b6109ec6000611221565b565b600060608060008060006060610a02611271565b610a0a61129e565b60408051600080825260208201909252600f60f81b9b939a50919850469750309650945092509050565b610a3c6110c9565b6000610a46610415565b905060005b8151811015610bca576000828281518110610a6857610a68611c03565b6020026020010151602001511115610bc257818181518110610a8c57610a8c611c03565b6020026020010151600001516001600160a01b031663a9059cbb33848481518110610ab957610ab9611c03565b6020026020010151602001516040518363ffffffff1660e01b8152600401610af69291906001600160a01b03929092168252602082015260400190565b6020604051808303816000875af1158015610b15573d6000803e3d6000fd5b505050506040513d601f19601f82011682018060405250810190610b399190611bbd565b50818181518110610b4c57610b4c611c03565b6020026020010151600001516001600160a01b0316336001600160a01b03167fcbcdbdf10631a43cc99c80acace8232649421c3f4f73919f16013d47c83a687a848481518110610b9e57610b9e611c03565b602002602001015160200151604051610bb991815260200190565b60405180910390a35b600101610a4b565b5050565b6000808411610bef5760405162461bcd60e51b815260040161033a90611b86565b6001600160a01b03831660009081526005602052604090205460ff16610c4e5760405162461bcd60e51b8152602060048201526014602482015273151bdad95b881b9bdd081c9959da5cdd195c995960621b604482015260640161033a565b336000908152600360205260408120805460018101909155604080517fdf1125e21a3c1780cef37e28b5e17b91626efbd31353506b44cd3276beef95bc60208201523391810191909152606081018790526001600160a01b038616608082015260a0810182905290915060009060c0016040516020818303038152906040528051906020012090506000610ce1826112cb565b9050610cf56000546001600160a01b031690565b6001600160a01b0316610d0882876112f8565b6001600160a01b031614610d525760405162461bcd60e51b8152602060048201526011602482015270496e76616c6964207369676e617475726560781b604482015260640161033a565b60405163a9059cbb60e01b8152336004820152602481018890526001600160a01b0387169063a9059cbb906044016020604051808303816000875af1158015610d9f573d6000803e3d6000fd5b505050506040513d601f19601f82011682018060405250810190610dc39190611bbd565b610ddf5760405162461bcd60e51b815260040161033a90611bda565b60408051888152602081018590526001600160a01b0388169133917f8dab6d35466ca3cba614bc5b262979b277949786977e81107f375f7e39f7734a910160405180910390a35060019695505050505050565b6000808511610e535760405162461bcd60e51b815260040161033a90611b86565b6001600160a01b03861660009081526005602052604090205460ff16610ed9576001600160a01b0386166000818152600560205260408120805460ff191660019081179091556004805491820181559091527f8a35acfbc15ff81a39ae7d344fd709f28e8600b4aa8c65c6b64bfe7fe36bd19b0180546001600160a01b03191690911790555b6000806000610f1d87878080601f01602080910402602001604051908101604052809392919081815260200183838082843760009201919091525061132292505050565b60405163d505accf60e01b8152336004820152306024820152604481018c90526064810189905260ff8416608482015260a4810183905260c4810182905292955090935091506001600160a01b038a169063d505accf9060e401600060405180830381600087803b158015610f9157600080fd5b505af1158015610fa5573d6000803e3d6000fd5b50506040516323b872dd60e01b8152336004820152306024820152604481018b90526001600160a01b038c1692506323b872dd91506064016020604051808303816000875af1158015610ffc573d6000803e3d6000fd5b505050506040513d601f19601f820116820180604052508101906110209190611bbd565b61103c5760405162461bcd60e51b815260040161033a90611bda565b6040518881526001600160a01b038a169033907fb4e1304f97b5093610f51b33ddab6622388422e2dac138b0d32f93dcfbd39edf9060200160405180910390a350600198975050505050505050565b6110936110c9565b6001600160a01b0381166110bd57604051631e4fbdf760e01b81526000600482015260240161033a565b6110c681611221565b50565b6000546001600160a01b031633146109ec5760405163118cdaa760e01b815233600482015260240161033a565b6000306001600160a01b037f00000000000000000000000000000000000000000000000000000000000000001614801561114f57507f000000000000000000000000000000000000000000000000000000000000000046145b1561117957507f000000000000000000000000000000000000000000000000000000000000000090565b61088b604080517f8b73c3c69bb8fe3d512ecc4cf759cc79239f7b179b0ffacaa9a75d522b39400f60208201527f0000000000000000000000000000000000000000000000000000000000000000918101919091527f000000000000000000000000000000000000000000000000000000000000000060608201524660808201523060a082015260009060c00160405160208183030381529060405280519060200120905090565b600080546001600160a01b038381166001600160a01b0319831681178455604051919092169283917f8be0079c531659141344cd1fd0a4f28419497f9722a3daafe3b4186f6b6457e09190a35050565b606061088b7f00000000000000000000000000000000000000000000000000000000000000006001611394565b606061088b7f00000000000000000000000000000000000000000000000000000000000000006002611394565b600061087b6112d86110f6565b8360405161190160f01b8152600281019290925260228201526042902090565b600080600080611308868661143f565b925092509250611318828261148c565b5090949350505050565b600080600083516041146113785760405162461bcd60e51b815260206004820152601860248201527f696e76616c6964207369676e6174757265206c656e6774680000000000000000604482015260640161033a565b5050506020810151604082015160609092015160001a92909190565b606060ff83146113ae576113a783611545565b905061087b565b8180546113ba90611c60565b80601f01602080910402602001604051908101604052809291908181526020018280546113e690611c60565b80156114335780601f1061140857610100808354040283529160200191611433565b820191906000526020600020905b81548152906001019060200180831161141657829003601f168201915b5050505050905061087b565b600080600083516041036114795760208401516040850151606086015160001a61146b88828585611584565b955095509550505050611485565b50508151600091506002905b9250925092565b60008260038111156114a0576114a0611c94565b036114a9575050565b60018260038111156114bd576114bd611c94565b036114db5760405163f645eedf60e01b815260040160405180910390fd5b60028260038111156114ef576114ef611c94565b036115105760405163fce698f760e01b81526004810182905260240161033a565b600382600381111561152457611524611c94565b03610bca576040516335e2f38360e21b81526004810182905260240161033a565b6060600061155283611653565b604080516020808252818301909252919250600091906020820181803683375050509182525060208101929092525090565b600080807f7fffffffffffffffffffffffffffffff5d576e7357a4501ddfe92f46681b20a08411156115bf5750600091506003905082611649565b604080516000808252602082018084528a905260ff891692820192909252606081018790526080810186905260019060a0016020604051602081039080840390855afa158015611613573d6000803e3d6000fd5b5050604051601f1901519150506001600160a01b03811661163f57506000925060019150829050611649565b9250600091508190505b9450945094915050565b600060ff8216601f81111561087b57604051632cd44ac360e21b815260040160405180910390fd5b80356001600160a01b038116811461169257600080fd5b919050565b80151581146110c657600080fd5b6000806000606084860312156116ba57600080fd5b6116c38461167b565b92506020840135915060408401356116da81611697565b809150509250925092565b602080825282518282018190526000919060409081850190868401855b8281101561173057815180516001600160a01b03168552860151868501529284019290850190600101611702565b5091979650505050505050565b60006020828403121561174f57600080fd5b5035919050565b60008083601f84011261176857600080fd5b50813567ffffffffffffffff81111561178057600080fd5b6020830191508360208260051b850101111561179b57600080fd5b9250929050565b6000806000806000806000806080898b0312156117be57600080fd5b883567ffffffffffffffff808211156117d657600080fd5b6117e28c838d01611756565b909a50985060208b01359150808211156117fb57600080fd5b6118078c838d01611756565b909850965060408b013591508082111561182057600080fd5b61182c8c838d01611756565b909650945060608b013591508082111561184557600080fd5b506118528b828c01611756565b999c989b5096995094979396929594505050565b6000806040838503121561187957600080fd5b6118828361167b565b946020939093013593505050565b600080600080604085870312156118a657600080fd5b843567ffffffffffffffff808211156118be57600080fd5b6118ca88838901611756565b909650945060208701359150808211156118e357600080fd5b506118f087828801611756565b95989497509550505050565b60006020828403121561190e57600080fd5b6119178261167b565b9392505050565b6000815180845260005b8181101561194457602081850181015186830182015201611928565b506000602082860101526020601f19601f83011685010191505092915050565b60ff60f81b881681526000602060e0602084015261198560e084018a61191e565b8381036040850152611997818a61191e565b606085018990526001600160a01b038816608086015260a0850187905284810360c08601528551808252602080880193509091019060005b818110156119eb578351835292840192918401916001016119cf565b50909c9b505050505050505050505050565b634e487b7160e01b600052604160045260246000fd5b600080600060608486031215611a2857600080fd5b83359250611a386020850161167b565b9150604084013567ffffffffffffffff80821115611a5557600080fd5b818601915086601f830112611a6957600080fd5b813581811115611a7b57611a7b6119fd565b604051601f8201601f19908116603f01168101908382118183101715611aa357611aa36119fd565b81604052828152896020848701011115611abc57600080fd5b8260208601602083013760006020848301015280955050505050509250925092565b600080600080600060808688031215611af657600080fd5b611aff8661167b565b945060208601359350604086013567ffffffffffffffff80821115611b2357600080fd5b818801915088601f830112611b3757600080fd5b813581811115611b4657600080fd5b896020828501011115611b5857600080fd5b96999598505060200195606001359392505050565b600060208284031215611b7f57600080fd5b5051919050565b6020808252601d908201527f416d6f756e74206d7573742062652067726561746572207468616e2030000000604082015260600190565b600060208284031215611bcf57600080fd5b815161191781611697565b6020808252600f908201526e151c985b9cd9995c8819985a5b1959608a1b604082015260600190565b634e487b7160e01b600052603260045260246000fd5b6000808335601e19843603018112611c3057600080fd5b83018035915067ffffffffffffffff821115611c4b57600080fd5b60200191503681900382131561179b57600080fd5b600181811c90821680611c7457607f821691505b60208210810361059757634e487b7160e01b600052602260045260246000fd5b634e487b7160e01b600052602160045260246000fdfea26469706673582212207b21136288e8e0a2c137ae47cc8a3dcbe9665d81718239b19dda86cf22fc8e7464736f6c63430008180033","linkReferences":{}},"methodIdentifiers":{"DOMAIN_SEPARATOR()":"3644e515","balanceOf(address)":"70a08231","balanceOfAll()":"208e509f","claim(uint256,address,bytes)":"ecbd45af","depositMany(address[],uint256[])":"638c079a","depositManySig(address[],uint256[],bytes[],uint256[])":"2ad62d51","depositToken(address,uint256)":"338b5dea","depositTokenSig(address,uint256,bytes,uint256)":"ef1f1a16","eip712Domain()":"84b0196e","listOfTokens(uint256)":"256a1a03","nonces(address)":"7ecebe00","owner()":"8da5cb5b","renounceOwnership()":"715018a6","tokenRegistered(address)":"a2e1ce62","transferOwnership(address)":"f2fde38b","withdrawAll()":"853828b6","withdrawToken(address,uint256,bool)":"186ea66f"},"id":49}